{"abi":[{"type":"constructor","inputs":[{"name":"_aoiFactory","type":"address","internalType":"address"},{"name":"_aoiRouter","type":"address","internalType":"address"},{"name":"_WETH","type":"address","internalType":"address"}],"stateMutability":"nonpayable"},{"type":"receive","stateMutability":"payable"},{"type":"function","name":"AOI_DEX_FACTORY","inputs":[],"outputs":[{"name":"","type":"address","internalType":"address"}],"stateMutability":"view"},{"type":"function","name":"AOI_DEX_ROUTER","inputs":[],"outputs":[{"name":"","type":"address","internalType":"address"}],"stateMutability":"view"},{"type":"function","name":"EMPTY_MERKLE_ROOT","inputs":[],"outputs":[{"name":"","type":"bytes32","internalType":"bytes32"}],"stateMutability":"view"},{"type":"function","name":"IDO_FEE_RATE","inputs":[],"outputs":[{"name":"","type":"uint16","internalType":"uint16"}],"stateMutability":"view"},{"type":"function","name":"WETH","inputs":[],"outputs":[{"name":"","type":"address","internalType":"address"}],"stateMutability":"view"},{"type":"function","name":"checkPoolIsValid","inputs":[{"name":"poolId","type":"uint256","internalType":"uint256"}],"outputs":[{"name":"","type":"bool","internalType":"bool"}],"stateMutability":"view"},{"type":"function","name":"createPool","inputs":[{"name":"poolDetails","type":"tuple","internalType":"struct IIDOPool.IDOPoolDetails","components":[{"name":"tokenAddress","type":"address","internalType":"address"},{"name":"pricePerToken","type":"uint256","internalType":"uint256"},{"name":"startTime","type":"uint256","internalType":"uint256"},{"name":"endTime","type":"uint256","internalType":"uint256"},{"name":"raisedAmount","type":"uint256","internalType":"uint256"},{"name":"raisedTokenAmount","type":"uint256","internalType":"uint256"},{"name":"softCap","type":"uint256","internalType":"uint256"},{"name":"hardCap","type":"uint256","internalType":"uint256"},{"name":"minInvest","type":"uint256","internalType":"uint256"},{"name":"maxInvest","type":"uint256","internalType":"uint256"},{"name":"liquidityWETH9","type":"uint256","internalType":"uint256"},{"name":"liquidityToken","type":"uint256","internalType":"uint256"},{"name":"whitelistedRoot","type":"bytes32","internalType":"bytes32"}]},{"name":"action","type":"uint8","internalType":"enum IIDOFactory.LiquidityPoolAction"},{"name":"lockExpired","type":"uint256","internalType":"uint256"}],"outputs":[{"name":"poolAddress","type":"address","internalType":"address"}],"stateMutability":"payable"},{"type":"function","name":"depositLiquidityPool","inputs":[{"name":"poolId","type":"uint256","internalType":"uint256"}],"outputs":[{"name":"liquidityPoolAddress","type":"address","internalType":"address"}],"stateMutability":"nonpayable"},{"type":"function","name":"getIdoPoolAddress","inputs":[{"name":"poolId","type":"uint256","internalType":"uint256"}],"outputs":[{"name":"","type":"address","internalType":"address"}],"stateMutability":"view"},{"type":"function","name":"getLiquidityLockExpired","inputs":[{"name":"poolId","type":"uint256","internalType":"uint256"}],"outputs":[{"name":"","type":"uint256","internalType":"uint256"}],"stateMutability":"view"},{"type":"function","name":"getLiquidityPoolAction","inputs":[{"name":"poolId","type":"uint256","internalType":"uint256"}],"outputs":[{"name":"","type":"uint8","internalType":"enum IIDOFactory.LiquidityPoolAction"}],"stateMutability":"view"},{"type":"function","name":"getLiquidityPoolAddress","inputs":[{"name":"poolId","type":"uint256","internalType":"uint256"}],"outputs":[{"name":"","type":"address","internalType":"address"}],"stateMutability":"view"},{"type":"function","name":"getTotalPool","inputs":[],"outputs":[{"name":"","type":"uint256","internalType":"uint256"}],"stateMutability":"view"},{"type":"function","name":"owner","inputs":[],"outputs":[{"name":"","type":"address","internalType":"address"}],"stateMutability":"view"},{"type":"function","name":"renounceOwnership","inputs":[],"outputs":[],"stateMutability":"nonpayable"},{"type":"function","name":"transferOwnership","inputs":[{"name":"newOwner","type":"address","internalType":"address"}],"outputs":[],"stateMutability":"nonpayable"},{"type":"event","name":"OwnershipTransferred","inputs":[{"name":"previousOwner","type":"address","indexed":true,"internalType":"address"},{"name":"newOwner","type":"address","indexed":true,"internalType":"address"}],"anonymous":false},{"type":"event","name":"PoolCreated","inputs":[{"name":"owner","type":"address","indexed":true,"internalType":"address"},{"name":"tokenAddress","type":"address","indexed":true,"internalType":"address"},{"name":"poolId","type":"uint256","indexed":false,"internalType":"uint256"},{"name":"startTime","type":"uint256","indexed":false,"internalType":"uint256"},{"name":"endTime","type":"uint256","indexed":false,"internalType":"uint256"}],"anonymous":false},{"type":"event","name":"PoolDepositedLiquidityPool","inputs":[{"name":"liquidityPool","type":"address","indexed":true,"internalType":"address"},{"name":"poolId","type":"uint256","indexed":true,"internalType":"uint256"}],"anonymous":false},{"type":"error","name":"ActionIsNotNothing","inputs":[]},{"type":"error","name":"IdoPoolAlreadyDeposited","inputs":[]},{"type":"error","name":"InvalidAction","inputs":[]},{"type":"error","name":"InvalidLockExpired","inputs":[]},{"type":"error","name":"InvalidPoolId","inputs":[]},{"type":"error","name":"InvalidPricePerToken","inputs":[]},{"type":"error","name":"InvalidTokenAddress","inputs":[]},{"type":"error","name":"NotPoolOwner","inputs":[]},{"type":"error","name":"OwnableInvalidOwner","inputs":[{"name":"owner","type":"address","internalType":"address"}]},{"type":"error","name":"OwnableUnauthorizedAccount","inputs":[{"name":"account","type":"address","internalType":"address"}]},{"type":"error","name":"SafeERC20FailedOperation","inputs":[{"name":"token","type":"address","internalType":"address"}]}],"bytecode":{"object":"0x60e0604052600160005534801561001557600080fd5b50604051613369380380613369833981016040819052610034916100f3565b6001600160a01b0383811660805282811660a052811660c052338061007357604051631e4fbdf760e01b81526000600482015260240160405180910390fd5b61007c81610085565b50505050610136565b600180546001600160a01b038381166001600160a01b0319831681179093556040519116919082907f8be0079c531659141344cd1fd0a4f28419497f9722a3daafe3b4186f6b6457e090600090a35050565b80516001600160a01b03811681146100ee57600080fd5b919050565b60008060006060848603121561010857600080fd5b610111846100d7565b925061011f602085016100d7565b915061012d604085016100d7565b90509250925092565b60805160a05160c0516131ef61017a60003960008181610309015261043b01526000818161016501526104c40152600081816101e7015261048301526131ef6000f3fe6080604052600436106100f75760003560e01c80638da5cb5b1161008a578063c6bcdacc11610059578063c6bcdacc14610354578063c9705e0814610384578063caee620714610397578063f2fde38b146103b757600080fd5b80638da5cb5b146102c4578063a75d4d6e146102e2578063ad5c4648146102f7578063b5697a1c1461032b57600080fd5b8063715018a6116100c6578063715018a61461020957806375f4d67714610220578063779c0b7f146102435780637b2c74dc1461027c57600080fd5b80630b32a9a6146101035780631595cd6f146101535780634c516ed41461019f5780634ecabfb2146101d557600080fd5b366100fe57005b600080fd5b34801561010f57600080fd5b5061013d61011e366004610ca1565b600090815260036020526040902060050154600160a01b900460ff1690565b60405161014a9190610cd0565b60405180910390f35b34801561015f57600080fd5b506101877f000000000000000000000000000000000000000000000000000000000000000081565b6040516001600160a01b03909116815260200161014a565b3480156101ab57600080fd5b506101876101ba366004610ca1565b6000908152600260205260409020546001600160a01b031690565b3480156101e157600080fd5b506101877f000000000000000000000000000000000000000000000000000000000000000081565b34801561021557600080fd5b5061021e6103d7565b005b34801561022c57600080fd5b506102356103eb565b60405190815260200161014a565b34801561024f57600080fd5b5061018761025e366004610ca1565b6000908152600360205260409020600501546001600160a01b031690565b34801561028857600080fd5b506102b4610297366004610ca1565b6000908152600260205260409020546001600160a01b0316151590565b604051901515815260200161014a565b3480156102d057600080fd5b506001546001600160a01b0316610187565b3480156102ee57600080fd5b50610235600081565b34801561030357600080fd5b506101877f000000000000000000000000000000000000000000000000000000000000000081565b34801561033757600080fd5b506103416101f481565b60405161ffff909116815260200161014a565b34801561036057600080fd5b5061023561036f366004610ca1565b60009081526003602052604090206007015490565b610187610392366004610d64565b610401565b3480156103a357600080fd5b506101876103b2366004610ca1565b6108c6565b3480156103c357600080fd5b5061021e6103d2366004610e3c565b610aaf565b6103df610af2565b6103e96000610b1f565b565b600060016000546103fc9190610e76565b905090565b60006080840181905260a084018190526040513390829061042460208201610c94565b601f1982820381018352601f9091011660408181527f00000000000000000000000000000000000000000000000000000000000000006001600160a01b031660208301520160408051601f198184030181528282526001600160a01b037f0000000000000000000000000000000000000000000000000000000000000000166020840152910160408051601f198184030181528282526001600160a01b037f0000000000000000000000000000000000000000000000000000000000000000166020840152910160408051601f198184030181529082905261050b94939291602001610ebf565b60408051601f19818403018152908290526bffffffffffffffffffffffff19606085901b1660208301524260348301529150600090605401604051602081830303815290604052805190602001209050808251602084016000f59350833b61057257600080fd5b6040516348ac9e9b60e01b81526001600160a01b038516906348ac9e9b906105a0908a908790600401610ef0565b600060405180830381600087803b1580156105ba57600080fd5b505af11580156105ce573d6000803e3d6000fd5b505050506000805490506000604051806101200160405280838152602001876001600160a01b031681526020018a600001516001600160a01b031681526020018a610160015181526020018a6101400151815260200160006001600160a01b0316815260200189600281111561064657610646610cba565b815260200160018a600281111561065f5761065f610cba565b1461068a5760028a600281111561067857610678610cba565b14610683578661068c565b600061068c565b305b6001600160a01b0316815260200160018a60028111156106ae576106ae610cba565b146106ba5760006106bc565b885b905260008381526003602081815260409283902084518155908401516001820180546001600160a01b03199081166001600160a01b039384161790915593850151600280840180548716928416929092179091556060860151938301939093556080850151600483015560a085015160058301805495861691909216908117825560c086015195965086959294929391926001600160a81b0319161790600160a01b90849081111561077057610770610cba565b021790555060e08201516006820180546001600160a01b03199081166001600160a01b0393841617909155610100909301516007909201919091556000848152600260205260408120805490931691891691909117909155805490806107d583610f9a565b919050555088610140015134146107eb57600080fd5b610140890151610805906001600160a01b03881690610b71565b60006108228a602001518b60e00151610b9190919063ffffffff16565b905061084d86888c61016001518461083a9190610fb3565b8d516001600160a01b0316929190610bc3565b89600001516001600160a01b0316866001600160a01b03167f60611117dba3df8bc1ec57b58406e59f2782d88c7538a8b28095441be9053a1b858d604001518e606001516040516108b1939291909283526020830191909152604082015260600190565b60405180910390a35050505050509392505050565b6000818152600260205260408120546001600160a01b0316806108fc5760405163015f4fdd60e31b815260040160405180910390fd5b60008381526003602081815260408084208151610120810183528154815260018201546001600160a01b039081169482019490945260028083015485169382019390935293810154606085015260048101546080850152600581015492831660a08501529160c0840191600160a01b90910460ff169081111561098157610981610cba565b600281111561099257610992610cba565b815260068201546001600160a01b03908116602083015260079092015460409091015260a082015191925016156109dc57604051637107c20b60e11b815260040160405180910390fd5b60e08101516040516301b1b22f60e61b81526001600160a01b03918216600482015290831690636c6c8bc0906024016020604051808303816000875af1158015610a2a573d6000803e3d6000fd5b505050506040513d601f19601f82011682018060405250810190610a4e9190610fc6565b60008581526003602052604080822060050180546001600160a01b0319166001600160a01b0385169081179091559051929550869290917f27772842e26c81f4914a08e0f44666ce481012ad110b5a71f4ca49d55f00f4a191a35050919050565b610ab7610af2565b6001600160a01b038116610ae657604051631e4fbdf760e01b8152600060048201526024015b60405180910390fd5b610aef81610b1f565b50565b6001546001600160a01b031633146103e95760405163118cdaa760e01b8152336004820152602401610add565b600180546001600160a01b038381166001600160a01b0319831681179093556040519116919082907f8be0079c531659141344cd1fd0a4f28419497f9722a3daafe3b4186f6b6457e090600090a35050565b60003860003884865af1610b8d5763b12d13eb6000526004601cfd5b5050565b60008160001904831115610bb3578115610bb35763bac65e5b6000526004601cfd5b50670de0b6b3a764000091020490565b604080516001600160a01b0385811660248301528416604482015260648082018490528251808303909101815260849091019091526020810180516001600160e01b03166323b872dd60e01b179052610c1d908590610c23565b50505050565b600080602060008451602086016000885af180610c46576040513d6000823e3d81fd5b50506000513d91508115610c5e578060011415610c6b565b6001600160a01b0384163b155b15610c1d57604051635274afe760e01b81526001600160a01b0385166004820152602401610add565b6121d680610fe483390190565b600060208284031215610cb357600080fd5b5035919050565b634e487b7160e01b600052602160045260246000fd5b6020810160038310610cf257634e487b7160e01b600052602160045260246000fd5b91905290565b6040516101a0810167ffffffffffffffff81118282101715610d2a57634e487b7160e01b600052604160045260246000fd5b60405290565b6001600160a01b0381168114610aef57600080fd5b8035610d5081610d30565b919050565b803560038110610d5057600080fd5b60008060008385036101e0811215610d7b57600080fd5b6101a0811215610d8a57600080fd5b50610d93610cf8565b610d9c85610d45565b81526020858101359082015260408086013590820152606080860135908201526080808601359082015260a0808601359082015260c0808601359082015260e08086013590820152610100808601359082015261012080860135908201526101408086013590820152610160808601359082015261018080860135908201529250610e2a6101a08501610d55565b929592945050506101c0919091013590565b600060208284031215610e4e57600080fd5b8135610e5981610d30565b9392505050565b634e487b7160e01b600052601160045260246000fd5b81810381811115610e8957610e89610e60565b92915050565b6000815160005b81811015610eb05760208185018101518683015201610e96565b50600093019283525090919050565b6000610ee6610ee0610eda610ed4858a610e8f565b88610e8f565b86610e8f565b84610e8f565b9695505050505050565b82516001600160a01b031681526101c081016020840151602083015260408401516040830152606084015160608301526080840151608083015260a084015160a083015260c084015160c083015260e084015160e0830152610100840151610100830152610120840151610120830152610140840151610140830152610160840151610160830152610180840151610180830152610e596101a08301846001600160a01b03169052565b600060018201610fac57610fac610e60565b5060010190565b80820180821115610e8957610e89610e60565b600060208284031215610fd857600080fd5b8151610e5981610d3056fe60e060405234801561001057600080fd5b506040516121d63803806121d683398101604081905261002f916100f4565b6001600160a01b0380841660c052808316608052811660a052338061006e57604051631e4fbdf760e01b81526000600482015260240160405180910390fd5b61007781610086565b50506001600255506101379050565b600180546001600160a01b038381166001600160a01b0319831681179093556040519116919082907f8be0079c531659141344cd1fd0a4f28419497f9722a3daafe3b4186f6b6457e090600090a35050565b80516001600160a01b03811681146100ef57600080fd5b919050565b60008060006060848603121561010957600080fd5b610112846100d8565b9250610120602085016100d8565b915061012e604085016100d8565b90509250925092565b60805160a05160c051612054610182600039600081816106560152610fc00152600081816102f901528181610e620152610f2f0152600081816104240152610feb01526120546000f3fe60806040526004361061024a5760003560e01c80637c480cb411610139578063b92289f9116100b6578063df868ed31161007a578063df868ed314610707578063e4a2ec9d1461071e578063e9fb050514610731578063eb4f76b714610746578063f039a0841461077b578063f2fde38b1461079057600080fd5b8063b92289f914610693578063c0477b92146106a8578063ca1e9738146106bd578063cf0b2270146106d2578063d4466a91146106f257600080fd5b806397ea1c19116100fd57806397ea1c191461055c578063a9b79d0d14610578578063aca34c111461058d578063ad5c464814610644578063ad69184b1461067857600080fd5b80637c480cb4146102e55780637ee5eef2146104ff57806384eeae43146105145780638da5cb5b1461052957806394f8e9541461054757600080fd5b8063465a5044116101c75780635cb732be1161018b5780635cb732be146104825780636b14c5e2146104975780636c6c8bc0146104ac578063715018a6146104cc57806378c53533146104e157600080fd5b8063465a5044146103dd57806348ac9e9b146103f25780634ecabfb21461041257806351d1892d146104465780635a604c521461045b57600080fd5b80631d6f6ed51161020e5780631d6f6ed514610351578063367dfede146103665780633af32abf1461037b5780633b1e79fb146103b35780634451d89f146103c857600080fd5b806309d46746146102565780630cec2a761461027a5780630fe2c1eb146102dd5780631595cd6f146102e7578063194d28a61461033357600080fd5b3661025157005b600080fd5b34801561026257600080fd5b506008545b6040519081526020015b60405180910390f35b34801561028657600080fd5b50610267610295366004611bca565b6001600160a01b03166000908152601160209081526040918290208251606081018452815480825260018301549382019390935260029091015460ff16151592019190915290565b6102e56107b0565b005b3480156102f357600080fd5b5061031b7f000000000000000000000000000000000000000000000000000000000000000081565b6040516001600160a01b039091168152602001610271565b34801561033f57600080fd5b506003546001600160a01b031661031b565b34801561035d57600080fd5b50600a54610267565b34801561037257600080fd5b50600554610267565b34801561038757600080fd5b506103a3610396366004611bca565b6001600160a01b03161590565b6040519015158152602001610271565b3480156103bf57600080fd5b50600e54610267565b3480156103d457600080fd5b506102e561083f565b3480156103e957600080fd5b50610267610999565b3480156103fe57600080fd5b506102e561040d366004611c58565b610a40565b34801561041e57600080fd5b5061031b7f000000000000000000000000000000000000000000000000000000000000000081565b34801561045257600080fd5b50600c54610267565b34801561046757600080fd5b50610470600481565b60405160ff9091168152602001610271565b34801561048e57600080fd5b506102e5610d04565b3480156104a357600080fd5b50600d54610267565b3480156104b857600080fd5b5061031b6104c7366004611bca565b610e33565b3480156104d857600080fd5b506102e56110dd565b3480156104ed57600080fd5b506000546001600160a01b031661031b565b34801561050b57600080fd5b506102e56110f1565b34801561052057600080fd5b50600754610267565b34801561053557600080fd5b506001546001600160a01b031661031b565b34801561055357600080fd5b506102e561120d565b34801561056857600080fd5b50610267670de0b6b3a764000081565b34801561058457600080fd5b50600b54610267565b34801561059957600080fd5b506105a261136c565b604051610271919081516001600160a01b031681526101a081016020830151602083015260408301516040830152606083015160608301526080830151608083015260a083015160a083015260c083015160c083015260e083015160e083015261010083015161010083015261012083015161012083015261014083015161014083015261016083015161016083015261018083015161018083015292915050565b34801561065057600080fd5b5061031b7f000000000000000000000000000000000000000000000000000000000000000081565b34801561068457600080fd5b5061026766038d7ea4c6800081565b34801561069f57600080fd5b506103a3611467565b3480156106b457600080fd5b50600654610267565b3480156106c957600080fd5b50600454610267565b3480156106de57600080fd5b5060005461031b906001600160a01b031681565b3480156106fe57600080fd5b5061026761148a565b34801561071357600080fd5b5060065442106103a3565b6102e561072c366004611d25565b6114fc565b34801561073d57600080fd5b50610267611649565b34801561075257600080fd5b5061075c618ca081565b6040516dffffffffffffffffffffffffffff9091168152602001610271565b34801561078757600080fd5b50600954610267565b34801561079c57600080fd5b506102e56107ab366004611bca565b611672565b60055442908110156107d55760405163f7f1fb2760e01b815260040160405180910390fd5b6006548111156107f8576040516372c3664160e11b815260040160405180910390fd5b601054339060019060ff168181111561081357610813611dde565b0361083157604051630ff6444f60e21b815260040160405180910390fd5b61083b81346116b5565b5050565b600654421161086157604051634c6ae11f60e01b815260040160405180910390fd5b600754600954111561088657604051632bdc91ad60e01b815260040160405180910390fd5b336000818152601160209081526040918290208251606081018452815481526001820154928101929092526002015460ff1615801592820192909252906108e057604051633753fb7960e01b815260040160405180910390fd5b6001600160a01b0382166000908152601160205260408120600101549081900361091d5760405163569d45cf60e11b815260040160405180910390fd5b600354610934906001600160a01b031684836118f6565b6001600160a01b03831660008181526011602052604090819020600201805460ff19166001179055517fbc8e5aa70c5eb96080a341466c708cb7bb7bdd986731a1411986a803637ff88e9061098c9084815260200190565b60405180910390a2505050565b600a546003546040805163313ce56760e01b815290516000939284926001600160a01b039091169163313ce567916004808201926020929091908290030181865afa1580156109ec573d6000803e3d6000fd5b505050506040513d601f19601f82011682018060405250810190610a109190611df4565b600454909150600090610a2483600a611f14565b610a2e9085611f23565b610a389190611f3a565b949350505050565b610a4861194d565b600054600160a81b900460ff1615610a7357604051633914894960e11b815260040160405180910390fd5b81516001600160a01b0316610a9b5760405163d92e233d60e01b815260040160405180910390fd5b8160200151600003610ac057604051637841c2c960e11b815260040160405180910390fd5b4282604001511080610ad9575081606001518260400151115b15610af7576040516331d75b1160e11b815260040160405180910390fd5b610b0342618ca0611f5c565b82604001511015610b2757604051636a05191960e01b815260040160405180910390fd5b6101208201511580610b4257508160e0015182610120015110155b80610b565750816101000151826101200151105b15610b7457604051635f7cc84560e01b815260040160405180910390fd5b600082610100015111610b9a57604051630e07239b60e01b815260040160405180910390fd5b60e08201511580610bb357508160c001518260e0015111155b15610bd15760405163a17bc06b60e01b815260040160405180910390fd5b60008260c0015111610bf6576040516330fae41b60e21b815260040160405180910390fd5b670de0b6b3a76400008261014001511015610c2457604051631f2c4df760e11b815260040160405180910390fd5b8151600380546001600160a01b0319166001600160a01b03909216919091179055602082015160045560408201516005556060820151600655608082015160075560a082015160085560c082015160095560e0820151600a55610100820151600b55610120820151600c55610140820151600d55610160820151600e55610180820151600f81905515610cb8576001610cbb565b60005b6010805460ff191660018381811115610cd657610cd6611dde565b021790555060008054600161ff0160a01b0319166001600160a01b0390921691909117600160a81b17905550565b6006544211610d2657604051634c6ae11f60e01b815260040160405180910390fd5b60075460095411610d4a5760405163629c1b6760e01b815260040160405180910390fd5b336000818152601160209081526040918290208251606081018452815481526001820154928101929092526002015460ff161580159282019290925290610da457604051633753fb7960e01b815260040160405180910390fd5b80516000819003610dc85760405163569d45cf60e11b815260040160405180910390fd5b6001600160a01b0383166000818152601160205260409020600201805460ff19166001179055610df8908261197a565b826001600160a01b03167fd1a4dc08c0259db1bb035dab2943722545923d8da2990f31bd8182b1037c56e28260405161098c91815260200190565b6000610e3d61194d565b610e45611996565b600354600e5460405163095ea7b360e01b81526001600160a01b037f000000000000000000000000000000000000000000000000000000000000000081166004830152602482019290925291169063095ea7b3906044016020604051808303816000875af1158015610ebb573d6000803e3d6000fd5b505050506040513d601f19601f82011682018060405250810190610edf9190611f6f565b50600d54600354600e5460405163f305d71960e01b81526001600160a01b0392831660048201526024810182905260448101919091526064810183905284821660848201524260a48201526000927f00000000000000000000000000000000000000000000000000000000000000009092169163f305d7199160c40160606040518083038185885af1158015610f79573d6000803e3d6000fd5b50505050506040513d601f19601f82011682018060405250810190610f9e9190611f91565b60035460405163e6a4390560e01b81526001600160a01b0391821660048201527f0000000000000000000000000000000000000000000000000000000000000000821660248201529194507f000000000000000000000000000000000000000000000000000000000000000016925063e6a439059150604401602060405180830381865afa158015611034573d6000803e3d6000fd5b505050506040513d601f19601f820116820180604052508101906110589190611fbf565b91506001600160a01b03821661106d57600080fd5b600354600d54600e54604080516001600160a01b038781168252602082019490945290810191909152606081018490529116907f1079442b04b4beff799900bb01cd00e1a880ec71fbf2182fa1b9dd3cfcfcfdbd9060800160405180910390a2506110d86001600255565b919050565b6110e561194d565b6110ef60006119be565b565b6110f961194d565b604080516101a0810182526003546001600160a01b031681526004546020820152600554918101919091526006546060820152600754608082015260085460a082015260095460c0820152600a5460e0820152600b54610100820152600c54610120820152600d54610140820152600e54610160820152600f54610180820152600060105460ff16600181111561119257611192611dde565b036111b057604051634848b0b360e11b815260040160405180910390fd5b6040810151429081106111d657604051630d546eab60e01b815260040160405180910390fd5b6010805460ff191690556040517f3d984f34350d1df4a595b8ebcc4da4e394f68815a5957cd0ccbe67f31e8d83ac90600090a15050565b60055442908110156112325760405163f7f1fb2760e01b815260040160405180910390fd5b600654811115611255576040516372c3664160e11b815260040160405180910390fd5b3360008181526011602090815260409182902082516060810184528154808252600183015493820184905260029092015460ff161515938101939093529081158061129e575080155b156112bc5760405163569d45cf60e11b815260040160405180910390fd5b6001600160a01b0384166000908152601160205260408120818155600101819055600780548492906112ef908490611fdc565b909155505060088054829190600090611309908490611fdc565b9091555061132290506001600160a01b0385168361197a565b836001600160a01b03167f52fb71e2222fd8800605b059151202115cf3676224e25387d35afed0591041d78360405161135d91815260200190565b60405180910390a25050505050565b6113e3604051806101a0016040528060006001600160a01b031681526020016000815260200160008152602001600081526020016000815260200160008152602001600081526020016000815260200160008152602001600081526020016000815260200160008152602001600080191681525090565b50604080516101a0810182526003546001600160a01b031681526004546020820152600554918101919091526006546060820152600754608082015260085460a082015260095460c0820152600a5460e0820152600b54610100820152600c54610120820152600d54610140820152600e54610160820152600f5461018082015290565b6007546009546000919080156114805780821015611483565b60005b9250505090565b6003546040516370a0823160e01b81523060048201526000916001600160a01b0316906370a0823190602401602060405180830381865afa1580156114d3573d6000803e3d6000fd5b505050506040513d601f19601f820116820180604052508101906114f79190611fef565b905090565b60055442908110156115215760405163f7f1fb2760e01b815260040160405180910390fd5b600654811115611544576040516372c3664160e11b815260040160405180910390fd5b604080516101a0810182526003546001600160a01b031681526004546020820152600554918101919091526006546060820152600754608082015260085460a082015260095460c0820152600a5460e0820152600b54610100820152600c54610120820152600d54610140820152600e54610160820152600f54610180820152601054339060019060ff16818111156115df576115df611dde565b1480156115f957506115f78583610180015183611a10565b155b8061161a5750600060105460ff16600181111561161857611618611dde565b145b15611638576040516338c20bc560e21b815260040160405180910390fd5b61164281346116b5565b5050505050565b6006546000904290811061165e57600061166c565b60065461166c908290611fdc565b91505090565b61167a61194d565b6001600160a01b0381166116a957604051631e4fbdf760e01b8152600060048201526024015b60405180910390fd5b6116b2816119be565b50565b604080516101a0810182526003546001600160a01b039081168252600454602080840191909152600554838501526006546060808501919091526007546080850190815260085460a086015260095460c0860152600a5460e0860152600b54610100860152600c54610120860152600d54610140860152600e54610160860152600f54610180860152928716600090815260118352859020855191820186528054825260018101549282019290925260029091015460ff1615159381019390935251909190611785908490611f5c565b8260e0015110156117a957604051631c4af3c960e11b815260040160405180910390fd5b61010082015181516117bb9085611f5c565b10156117da5760405163753f384d60e11b815260040160405180910390fd5b61012082015181516117ec9085611f5c565b111561180b57604051631ba05a5760e31b815260040160405180910390fd5b60045460009061181b9085611a74565b90506000811161182a57600080fd5b836003600401600082825461183f9190611f5c565b909155505060088054829190600090611859908490611f5c565b90915550506001600160a01b03851660009081526011602052604081208054869290611886908490611f5c565b90915550506001600160a01b038516600090815260116020526040812060010180548392906118b6908490611f5c565b90915550506040518481526001600160a01b038616907fbc2c8c4e77d1056c1a17c98a5ccb744c860e9a624c0547cd3b8790ec86c5fe449060200161135d565b604080516001600160a01b038416602482015260448082018490528251808303909101815260649091019091526020810180516001600160e01b031663a9059cbb60e01b179052611948908490611aa6565b505050565b6001546001600160a01b031633146110ef5760405163118cdaa760e01b81523360048201526024016116a0565b60003860003884865af161083b5763b12d13eb6000526004601cfd5b60028054036119b857604051633ee5aeb560e01b815260040160405180910390fd5b60028055565b600180546001600160a01b038381166001600160a01b0319831681179093556040519116919082907f8be0079c531659141344cd1fd0a4f28419497f9722a3daafe3b4186f6b6457e090600090a35050565b604080516001600160a01b038316602082015260009182910160408051601f198184030181528282528051602091820120908301520160408051601f1981840301815291905280516020909101209050611a6b858583611b1d565b95945050505050565b60008160001904831115611a96578115611a965763bac65e5b6000526004601cfd5b50670de0b6b3a764000091020490565b600080602060008451602086016000885af180611ac9576040513d6000823e3d81fd5b50506000513d91508115611ae1578060011415611aee565b6001600160a01b0384163b155b15611b1757604051635274afe760e01b81526001600160a01b03851660048201526024016116a0565b50505050565b600082611b2a8584611b33565b14949350505050565b600081815b8451811015611b6e57611b6482868381518110611b5757611b57612008565b6020026020010151611b78565b9150600101611b38565b5090505b92915050565b6000818310611b94576000828152602084905260409020611ba3565b60008381526020839052604090205b9392505050565b6001600160a01b03811681146116b257600080fd5b80356110d881611baa565b600060208284031215611bdc57600080fd5b8135611ba381611baa565b634e487b7160e01b600052604160045260246000fd5b6040516101a0810167ffffffffffffffff81118282101715611c2157611c21611be7565b60405290565b604051601f8201601f1916810167ffffffffffffffff81118282101715611c5057611c50611be7565b604052919050565b6000808284036101c0811215611c6d57600080fd5b6101a0811215611c7c57600080fd5b50611c85611bfd565b611c8e84611bbf565b81526020848101359082015260408085013590820152606080850135908201526080808501359082015260a0808501359082015260c0808501359082015260e08085013590820152610100808501359082015261012080850135908201526101408085013590820152610160808501359082015261018080850135908201529150611d1c6101a08401611bbf565b90509250929050565b60008060408385031215611d3857600080fd5b823567ffffffffffffffff811115611d4f57600080fd5b8301601f81018513611d6057600080fd5b803567ffffffffffffffff811115611d7a57611d7a611be7565b8060051b611d8a60208201611c27565b91825260208184018101929081019088841115611da657600080fd5b6020850194505b83851015611dcc57843580835260209586019590935090910190611dad565b98602097909701359750505050505050565b634e487b7160e01b600052602160045260246000fd5b600060208284031215611e0657600080fd5b815160ff81168114611ba357600080fd5b634e487b7160e01b600052601160045260246000fd5b6001815b6001841115611e6857808504811115611e4c57611e4c611e17565b6001841615611e5a57908102905b60019390931c928002611e31565b935093915050565b600082611e7f57506001611b72565b81611e8c57506000611b72565b8160018114611ea25760028114611eac57611ec8565b6001915050611b72565b60ff841115611ebd57611ebd611e17565b50506001821b611b72565b5060208310610133831016604e8410600b8410161715611eeb575081810a611b72565b611ef86000198484611e2d565b8060001904821115611f0c57611f0c611e17565b029392505050565b6000611ba360ff841683611e70565b8082028115828204841417611b7257611b72611e17565b600082611f5757634e487b7160e01b600052601260045260246000fd5b500490565b80820180821115611b7257611b72611e17565b600060208284031215611f8157600080fd5b81518015158114611ba357600080fd5b600080600060608486031215611fa657600080fd5b5050815160208301516040909301519094929350919050565b600060208284031215611fd157600080fd5b8151611ba381611baa565b81810381811115611b7257611b72611e17565b60006020828403121561200157600080fd5b5051919050565b634e487b7160e01b600052603260045260246000fdfea2646970667358221220f1a3bb1a70b627db06f0e2dd6eea6273ad4b8f42ee8f12afc6783c56b3963cef64736f6c634300081a0033a2646970667358221220955f9beb25ca0eeff368463daa264944bde09ad1c0b743402efc67008018d76964736f6c634300081a0033","linkReferences":{}},"methodIdentifiers":{"AOI_DEX_FACTORY()":"4ecabfb2","AOI_DEX_ROUTER()":"1595cd6f","EMPTY_MERKLE_ROOT()":"a75d4d6e","IDO_FEE_RATE()":"b5697a1c","WETH()":"ad5c4648","checkPoolIsValid(uint256)":"7b2c74dc","createPool((address,uint256,uint256,uint256,uint256,uint256,uint256,uint256,uint256,uint256,uint256,uint256,bytes32),uint8,uint256)":"c9705e08","depositLiquidityPool(uint256)":"caee6207","getIdoPoolAddress(uint256)":"4c516ed4","getLiquidityLockExpired(uint256)":"c6bcdacc","getLiquidityPoolAction(uint256)":"0b32a9a6","getLiquidityPoolAddress(uint256)":"779c0b7f","getTotalPool()":"75f4d677","owner()":"8da5cb5b","renounceOwnership()":"715018a6","transferOwnership(address)":"f2fde38b"},"id":48}