{"abi":[{"type":"constructor","inputs":[{"name":"_aoiFactory","type":"address","internalType":"address"},{"name":"_aoiRouter","type":"address","internalType":"address"},{"name":"_WETH","type":"address","internalType":"address"}],"stateMutability":"nonpayable"},{"type":"receive","stateMutability":"payable"},{"type":"function","name":"AOI_DEX_FACTORY","inputs":[],"outputs":[{"name":"","type":"address","internalType":"address"}],"stateMutability":"view"},{"type":"function","name":"AOI_DEX_ROUTER","inputs":[],"outputs":[{"name":"","type":"address","internalType":"address"}],"stateMutability":"view"},{"type":"function","name":"EMPTY_MERKLE_ROOT","inputs":[],"outputs":[{"name":"","type":"bytes32","internalType":"bytes32"}],"stateMutability":"view"},{"type":"function","name":"IDO_FEE_RATE","inputs":[],"outputs":[{"name":"","type":"uint16","internalType":"uint16"}],"stateMutability":"view"},{"type":"function","name":"MIN_LOCKED_DURATION","inputs":[],"outputs":[{"name":"","type":"uint256","internalType":"uint256"}],"stateMutability":"view"},{"type":"function","name":"WETH","inputs":[],"outputs":[{"name":"","type":"address","internalType":"address"}],"stateMutability":"view"},{"type":"function","name":"checkPoolIsValid","inputs":[{"name":"poolId","type":"uint256","internalType":"uint256"}],"outputs":[{"name":"","type":"bool","internalType":"bool"}],"stateMutability":"view"},{"type":"function","name":"createPool","inputs":[{"name":"poolDetails","type":"tuple","internalType":"struct IIDOPool.IDOPoolDetails","components":[{"name":"tokenAddress","type":"address","internalType":"address"},{"name":"pricePerToken","type":"uint256","internalType":"uint256"},{"name":"raisedAmount","type":"uint256","internalType":"uint256"},{"name":"raisedTokenAmount","type":"uint256","internalType":"uint256"},{"name":"softCap","type":"uint256","internalType":"uint256"},{"name":"hardCap","type":"uint256","internalType":"uint256"},{"name":"minInvest","type":"uint256","internalType":"uint256"},{"name":"maxInvest","type":"uint256","internalType":"uint256"},{"name":"liquidityWETH9","type":"uint256","internalType":"uint256"},{"name":"liquidityToken","type":"uint256","internalType":"uint256"},{"name":"privateSaleAmount","type":"uint256","internalType":"uint256"}]},{"name":"poolTime","type":"tuple","internalType":"struct IIDOPool.IDOTime","components":[{"name":"startTime","type":"uint256","internalType":"uint256"},{"name":"endTime","type":"uint256","internalType":"uint256"},{"name":"startPublicSale","type":"uint256","internalType":"uint256"}]},{"name":"privateSale","type":"bool","internalType":"bool"},{"name":"whitelisted","type":"bytes32","internalType":"bytes32"},{"name":"action","type":"uint8","internalType":"enum IIDOFactory.LiquidityPoolAction"},{"name":"lockExpired","type":"uint256","internalType":"uint256"}],"outputs":[{"name":"poolAddress","type":"address","internalType":"address"}],"stateMutability":"payable"},{"type":"function","name":"depositLiquidityPool","inputs":[{"name":"poolId","type":"uint256","internalType":"uint256"}],"outputs":[{"name":"liquidityPoolAddress","type":"address","internalType":"address"},{"name":"lpAmount","type":"uint256","internalType":"uint256"}],"stateMutability":"nonpayable"},{"type":"function","name":"getIdoPoolAddress","inputs":[{"name":"poolId","type":"uint256","internalType":"uint256"}],"outputs":[{"name":"","type":"address","internalType":"address"}],"stateMutability":"view"},{"type":"function","name":"getLiquidityLockExpired","inputs":[{"name":"poolId","type":"uint256","internalType":"uint256"}],"outputs":[{"name":"","type":"uint256","internalType":"uint256"}],"stateMutability":"view"},{"type":"function","name":"getLiquidityPoolAction","inputs":[{"name":"poolId","type":"uint256","internalType":"uint256"}],"outputs":[{"name":"","type":"uint8","internalType":"enum IIDOFactory.LiquidityPoolAction"}],"stateMutability":"view"},{"type":"function","name":"getLiquidityPoolAddress","inputs":[{"name":"poolId","type":"uint256","internalType":"uint256"}],"outputs":[{"name":"","type":"address","internalType":"address"}],"stateMutability":"view"},{"type":"function","name":"getLpAmount","inputs":[{"name":"poolId","type":"uint256","internalType":"uint256"}],"outputs":[{"name":"","type":"uint256","internalType":"uint256"}],"stateMutability":"view"},{"type":"function","name":"getTotalPool","inputs":[],"outputs":[{"name":"","type":"uint256","internalType":"uint256"}],"stateMutability":"view"},{"type":"function","name":"owner","inputs":[],"outputs":[{"name":"","type":"address","internalType":"address"}],"stateMutability":"view"},{"type":"function","name":"receiveLpToken","inputs":[{"name":"poolId","type":"uint256","internalType":"uint256"}],"outputs":[],"stateMutability":"nonpayable"},{"type":"function","name":"renounceOwnership","inputs":[],"outputs":[],"stateMutability":"nonpayable"},{"type":"function","name":"transferOwnership","inputs":[{"name":"newOwner","type":"address","internalType":"address"}],"outputs":[],"stateMutability":"nonpayable"},{"type":"event","name":"OwnershipTransferred","inputs":[{"name":"previousOwner","type":"address","indexed":true,"internalType":"address"},{"name":"newOwner","type":"address","indexed":true,"internalType":"address"}],"anonymous":false},{"type":"event","name":"PoolCreated","inputs":[{"name":"owner","type":"address","indexed":true,"internalType":"address"},{"name":"tokenAddress","type":"address","indexed":true,"internalType":"address"},{"name":"poolId","type":"uint256","indexed":false,"internalType":"uint256"}],"anonymous":false},{"type":"error","name":"ActionIsNotNothing","inputs":[]},{"type":"error","name":"CannotUnlockLiquidityLocked","inputs":[]},{"type":"error","name":"IdoPoolAlreadyDeposited","inputs":[]},{"type":"error","name":"InvalidAction","inputs":[]},{"type":"error","name":"InvalidLockExpired","inputs":[]},{"type":"error","name":"InvalidPoolId","inputs":[]},{"type":"error","name":"InvalidPricePerToken","inputs":[]},{"type":"error","name":"InvalidTokenAddress","inputs":[]},{"type":"error","name":"LiquidityIsNotLocked","inputs":[]},{"type":"error","name":"NotPoolOwner","inputs":[]},{"type":"error","name":"OwnableInvalidOwner","inputs":[{"name":"owner","type":"address","internalType":"address"}]},{"type":"error","name":"OwnableUnauthorizedAccount","inputs":[{"name":"account","type":"address","internalType":"address"}]},{"type":"error","name":"SafeERC20FailedOperation","inputs":[{"name":"token","type":"address","internalType":"address"}]}],"bytecode":{"object":"0x60e03461011457601f6200333b38819003918201601f19168301916001600160401b0383118484101761011957808492606094604052833981010312610114576100488161012f565b90610061604061005a6020840161012f565b920161012f565b91600160005560805260a05260c05233156100fb5760018054336001600160a01b03198216811790925560405191906001600160a01b03167f8be0079c531659141344cd1fd0a4f28419497f9722a3daafe3b4186f6b6457e0600080a36131f790816200014482396080518181816102800152610e04015260a0518181816102030152610e54015260c0518181816108080152610d9e0152f35b604051631e4fbdf760e01b815260006004820152602490fd5b600080fd5b634e487b7160e01b600052604160045260246000fd5b51906001600160a01b03821682036101145756fe608060405260043610156200001d575b36156200001b57600080fd5b005b60003560e01c80630b32a9a614620001725780631595cd6f146200016c5780634c516ed414620001665780634ecabfb2146200016057806353ef4f5b146200015a5780635f8e9e911462000154578063715018a6146200014e57806375f4d6771462000148578063779c0b7f14620001425780637b2c74dc146200013c5780638da5cb5b14620001365780639577d5701462000130578063a75d4d6e146200012a578063ac7aa1f61462000124578063ad5c4648146200011e578063b5697a1c1462000118578063c6bcdacc1462000112578063caee6207146200010c5763f2fde38b036200000f5762000a2d565b62000887565b62000856565b62000837565b620007f0565b620007d0565b620007b2565b620006d6565b62000577565b6200053f565b62000506565b620004d2565b6200046d565b6200043c565b620002af565b62000268565b62000232565b620001eb565b62000199565b600311156200018357565b634e487b7160e01b600052602160045260246000fd5b34620001da576020366003190112620001da57600435600052600360205260ff60076040600020015460a01c16604051600382101562000183576020918152f35b600080fd5b6000910312620001da57565b34620001da576000366003190112620001da576040517f00000000000000000000000000000000000000000000000000000000000000006001600160a01b03168152602090f35b34620001da576020366003190112620001da576004356000526002602052602060018060a01b0360406000205416604051908152f35b34620001da576000366003190112620001da576040517f00000000000000000000000000000000000000000000000000000000000000006001600160a01b03168152602090f35b34620001da576020366003190112620001da57600435620002e4620002de826000526003602052604060002090565b62001288565b602081015162000304906001600160a01b03165b6001600160a01b031690565b33036200042a5760016101008201516200031e8162000178565b620003298162000178565b148015906200041c575b6200040a576101408101514210620003f857620003b3602091600060096200036682966000526003602052604060002090565b015560e081015160c0906200038690620002f8906001600160a01b031681565b91015160405163a9059cbb60e01b8152336004820152602481019190915293849283919082906044820190565b03925af18015620003f257620003c557005b6200001b9060203d8111620003ea575b620003e18183620005ea565b8101906200135c565b503d620003d5565b62000bf4565b604051635e63d49360e11b8152600490fd5b60405163eab5041b60e01b8152600490fd5b506101408101511562000333565b6040516367d056a760e11b8152600490fd5b34620001da576020366003190112620001da5760043560005260036020526020600660406000200154604051908152f35b34620001da57600080600319360112620004cf576200048b62000ac6565b600180546001600160a01b0319811690915581906001600160a01b03167f8be0079c531659141344cd1fd0a4f28419497f9722a3daafe3b4186f6b6457e08280a380f35b80fd5b34620001da576000366003190112620001da5760005460001981019081116200050057602090604051908152f35b62000c00565b34620001da576020366003190112620001da576004356000526003602052602060018060a01b0360076040600020015416604051908152f35b34620001da576020366003190112620001da576004356000526002602052602060018060a01b03604060002054161515604051908152f35b34620001da576000366003190112620001da576001546040516001600160a01b039091168152602090f35b67ffffffffffffffff8111620005b757604052565b634e487b7160e01b600052604160045260246000fd5b60a0810190811067ffffffffffffffff821117620005b757604052565b90601f8019910116810190811067ffffffffffffffff821117620005b757604052565b60405190610160820182811067ffffffffffffffff821117620005b757604052565b906200063f6040519283620005ea565b565b6001600160a01b03811603620001da57565b600435906200063f8262000641565b606090610163190112620001da57604051906060820182811067ffffffffffffffff821117620005b7576040528161016435815261018435602082015260406101a435910152565b80151503620001da57565b6101c435906200063f82620006aa565b61020435906003821015620001da57565b36600319016102408112620001da5761016013620001da57620007ae62000794620007006200060d565b6200070a62000653565b8152602435602082015260443560408201526064356060820152608435608082015260a43560a082015260c43560c082015260e43560e08201526101043561010082015261012435610120820152610144356101408201526200076d3662000662565b9062000778620006b5565b9062000783620006c5565b9161022435936101e4359262000d5e565b6040516001600160a01b0390911681529081906020820190565b0390f35b34620001da576000366003190112620001da57602060405160008152f35b34620001da576000366003190112620001da576020604051620151808152f35b34620001da576000366003190112620001da576040517f00000000000000000000000000000000000000000000000000000000000000006001600160a01b03168152602090f35b34620001da576000366003190112620001da5760206040516101f48152f35b34620001da576020366003190112620001da5760043560005260036020526020600960406000200154604051908152f35b34620001da576020366003190112620001da576004356000818152600260205260409020546001600160a01b0316801562000a1b57620008d5620002de836000526003602052604060002090565b60e0810151909190620008f1906001600160a01b0316620002f8565b62000a09576200093f60409162000914610120600095015160018060a01b031690565b83516301b1b22f60e61b81526001600160a01b03909116600482015293849283919082906024820190565b03925af1918215620003f2576000918293620009c9575b506006620009ab826200099b8560076200097b89976000526003602052604060002090565b0180546001600160a01b0319166001600160a01b03909216919091179055565b6000526003602052604060002090565b0155604080516001600160a01b039290921682526020820192909252f35b620009ab935060069250620009f89060403d811162000a01575b620009ef8183620005ea565b8101906200133a565b93509162000956565b503d620009e3565b604051637107c20b60e11b8152600490fd5b60405163015f4fdd60e31b8152600490fd5b34620001da576020366003190112620001da5760043562000a4e8162000641565b62000a5862000ac6565b6001600160a01b0390811690811562000aad57600154826bffffffffffffffffffffffff60a01b821617600155167f8be0079c531659141344cd1fd0a4f28419497f9722a3daafe3b4186f6b6457e0600080a3005b604051631e4fbdf760e01b815260006004820152602490fd5b6001546001600160a01b0316330362000adb57565b60405163118cdaa760e01b8152336004820152602490fd5b9081519160005b83811062000b0c575050016000815290565b806020809284010151818501520162000afa565b909594929362000be66200063f9562000bd56102009561022086019a62000b4f87825160018060a01b03169052565b6020810151602088015260408101516040880152606081015160608801526080810151608088015260a081015160a088015260c081015160c088015260e081015160e08801526101008082015190880152610120808201519088015261014080910151908701526101608601906040809180518452602081015160208501520151910152565b6001600160a01b03166101c0840152565b6101e0820152019015159052565b6040513d6000823e3d90fd5b634e487b7160e01b600052601160045260246000fd5b90620151809182018092116200050057565b919082018092116200050057565b6003821015620001835752565b9060038110156200018357815460ff60a01b191660a09190911b60ff60a01b16179055565b8151815560208201516001820180546001600160a01b039283166001600160a01b031991821617909155604084015160028401805491841691831691909117905560608401516003840180549184169183169190911790556080840151600484015560a0840151600584015560c0840151600684015560e084015160078401805491909316911617815561010083015191926009926101409262000d18919062000d128262000178565b62000c43565b6101208101516008850180546001600160a01b0319166001600160a01b039092169190911790550151910155565b6000198114620005005760010190565b15620001da57565b909291939594956000946040958087850152806060850152611e4a9162000ea260209362000d8e8582016200062f565b90808252620013788683013989517f00000000000000000000000000000000000000000000000000000000000000006001600160a01b0316868201908152819003808252601f199162000eb691889162000ea9918f9162000ea29162000df89060200182620005ea565b82516001600160a01b037f000000000000000000000000000000000000000000000000000000000000000016868201908152909162000ea29162000e48908490602001038a8101855284620005ea565b84516001600160a01b037f00000000000000000000000000000000000000000000000000000000000000001688820190815290959062000e94908790602001038b8101885287620005ea565b519a8b978801809b62000af3565b9062000af3565b03828101855284620005ea565b8a513360601b6bffffffffffffffffffffffff19168782019081524260148201529162000eef90826034850103908101835282620005ea565b51902091519084f5998a3b15620011a6576001600160a01b03968b8816803b15620011a25790849188838c62000f3d8f5198899687958694630383e4b760e61b865233916004870162000b20565b03925af1918215620003f257849262001184575b5082549762000f608662000178565b60018614928391826200116c575b50506200115b5785518b939289928b926001600160a01b03169789610120928382019a8b51906101008094019a8b519362000fa98762000178565b8815620011375730985b62000fbe8862000178565b156200112e57985b62000fd06200060d565b9a8b52338e8c01526001600160a01b03909116908a01526001600160a01b03166060890152608088015260a08701528660c08701528660e0870152850190620010199162000c36565b6001600160a01b039091169083015261014082015262001043886000526003602052604060002090565b906200104f9162000c68565b8962001065886000526002602052604060002090565b80546001600160a01b0319166001600160a01b0390921691909117905580546200108f9062000d46565b9055516200109f34821462000d56565b620010ab908962001269565b60a083015190830151620010bf9162001237565b82516001600160a01b03169151620010d79162000c28565b878433931692620010e893620011aa565b516001600160a01b03161691518033926200110890829190602083019252565b037ff8a0462f666b427ea753848be7e91f9ce413975906f6f39950be296ca9a4d52491a3565b508a9862000fc6565b620011428762000178565b6002870362001154578b5b9862000fb3565b336200114d565b88516317fbf86960e21b8152600490fd5b6200117a9250015162000c16565b8110843862000f6e565b80620011946200119b92620005a2565b80620001df565b3862000f51565b8480fd5b8280fd5b9260209160009160405190848201926323b872dd60e01b845260018060a01b0396878092166024850152166044830152606482015260648152620011ee81620005cd565b519082865af11562000bf4576000513d6200122d57508082163b155b62001213575050565b604051635274afe760e01b81529116600482015260249150fd5b600114156200120a565b908060001904821162001254575b670de0b6b3a764000091020490565b8015620012455763bac65e5b6000526004601cfd5b600080809338935af1156200127a57565b63b12d13eb6000526004601cfd5b906009620012956200060d565b8354815260018401546001600160a01b031660208201529260028101546001600160a01b0316604085015260038101546001600160a01b0316606085015260048101546080850152600581015460a0850152600681015460c085015260078101546001600160a01b03811660e08601526200131c9060ff9060a01c16610100860162000c36565b60088101546001600160a01b03166101208501520154610140830152565b9190826040910312620001da5760208251620013568162000641565b92015190565b90816020910312620001da57516200137481620006aa565b9056fe60e0346200011e57601f62001e4a38819003918201601f19168301916001600160401b0383118484101762000123578084926060946040528339810103126200011e576200004d8162000139565b906200006a6040620000626020840162000139565b920162000139565b9160c05260805260a0523315620001055760038054336001600160a01b03198216811790925560405191906001600160a01b03167f8be0079c531659141344cd1fd0a4f28419497f9722a3daafe3b4186f6b6457e0600080a36001600455611cfb90816200014f823960805181818161148301526117a4015260a05181818161138c0152611951015260c051818181610e8c01526114550152f35b604051631e4fbdf760e01b815260006004820152602490fd5b600080fd5b634e487b7160e01b600052604160045260246000fd5b51906001600160a01b03821682036200011e5756fe608080604052600436101561001d575b50361561001b57600080fd5b005b60009060e08235811c91826309c88ac714611a1c5750816309d46746146119fe5781630b71f116146119e15781630cec2a76146119805781631595cd6f1461193b578163194d28a6146119125781631d6f6ed5146118f4578163367dfede146118d65781633b1e79fb146118b85781634451d89f146117d35781634ecabfb21461178e57816351d1892d146117705781635a604c52146117545781635cb732be146116555781636aabc35014610dc15781636b14c5e2146116375781636c6c8bc0146112fe578163715018a6146112a157816378c535331461065f5781637c480cb41461116a57816384eeae431461114c5781638da5cb5b1461112357816394186d96146110d457816394f8e95414610fd857816397ea1c1914610fb5578163a9b79d0d14610f97578163aca34c1114610ebb578163ad5c464814610e76578163ad69184b14610e54578163b92289f914610e1e578163c0477b9214610e00578163c3c5a54714610dc1578163ca1e973814610da3578163cd25325714610d13578163cdfeb95b14610c32578163cf9afab514610bf2578163df868ed314610bbc578163e04d77ae14610b9f578163e0f92dc0146106e0578163e9fb0505146106a5578163eb4f76b714610688578163eb71e8c41461065f578163eeb6ea7e146102c657508063f039a084146102a85763f2fde38b0361000f57346102a55760203660031901126102a557610230611a40565b610238611ae8565b6001600160a01b0390811690811561028c57600354826bffffffffffffffffffffffff60a01b821617600355167f8be0079c531659141344cd1fd0a4f28419497f9722a3daafe3b4186f6b6457e08380a380f35b604051631e4fbdf760e01b815260048101849052602490fd5b80fd5b50346102a557806003193601126102a5576020600a54604051908152f35b602091503660031901821361065b576004359067ffffffffffffffff80831161065757366023840112156106575782600401359081116106435760059281841b906040519261031787840185611ac6565b8352858301602480938301019136831161063f5783889101915b83831061062f57505050506011918254421061061d57601254421161060b5760019460ff865460a81c16156105f957610368611ba7565b9260ff82541660028110156105e6579087809214958661052b575b5050505050816104eb575b506104d95761039b611b37565b90338552601484526040852060ff6002604051926103b884611a5b565b8054845286810154888501520154161515604082015260a08301516103e1346040860151611b14565b116104c7576103f1815134611b14565b60c0840151116104b557610406905134611b14565b910151106104a35761041a34600754611c95565b90811561049f5761046f9061043134600854611b14565b60085561044083600954611b14565b6009553385526014845260408520610459348254611b14565b9055338552601484526040852001918254611b14565b90557fbc2c8c4e77d1056c1a17c98a5ccb744c860e9a624c0547cd3b8790ec86c5fe44604051913483523392a280f35b8380fd5b604051631ba05a5760e31b8152600490fd5b60405163753f384d60e11b8152600490fd5b604051631c4af3c960e11b8152600490fd5b6040516338c20bc560e21b8152600490fd5b60400180511591508115610514575b8115610508575b503861038e565b90504290511138610501565b33865260028552604086205460ff161591506104fa565b909192939495508954946040518a8101903382528b815261054b81611aaa565b5190206040518b81019182528b815261056381611aaa565b519020948b945b610581575b50505050501415903880858180610383565b909192939482518610156105e05785821b83018b015190818110156105d2578c528a5260408b205b9460001981146105bf578901939291908961056a565b634e487b7160e01b8c526004849052848cfd5b908c528a5260408b206105a9565b9461056f565b50634e487b7160e01b8952602160045288fd5b604051632fd798ed60e11b8152600490fd5b6040516372c3664160e11b8152600490fd5b60405163f7f1fb2760e01b8152600490fd5b8235815291810191889101610331565b8880fd5b634e487b7160e01b85526041600452602485fd5b8480fd5b8280fd5b82346102a557806003193601126102a5576001546040516001600160a01b039091168152602090f35b82346102a557806003193601126102a5576020604051618ca08152f35b82346102a557806003193601126102a5576020906012544281116000146106da576106d291504290611bcb565b604051908152f35b506106d2565b905034610b9b573660031901610220811261065b5761016013610b9b576040519061070a82611a8d565b610712611a40565b8252602435602083015260443560408301526064356060830152608435608083015260a43560a083015260c43560c083015260e4358183015261010435610100830152610124356101208301526101443561014083015260606101631936011261065b576040519161078383611a5b565b6101643583526101843560208401526101a43560408401526101c4356001600160a01b038116900361049f57610204351515610204350361049f576001549260ff8460a81c16610b895781516001600160a01b031615610b7757602082015115610b65578051428110908115610b57575b50610b45578051618ca090428201809211610a705710610b335760055492600260ff85161015610b1f57600160ff85161480610ad9575b610ac757808301518015908115610ab8575b8115610aaa575b50610a985760c08301518015908115610a42575b50610a305760a08301518015908115610a21575b50610a0f576080830151156109fd5761020435806109d8575b6109c657670de0b6b3a7640000610100840151106109b4576040926101409160018060a01b038251166bffffffffffffffffffffffff60a01b600654161760065560208201516007558482015160085560608201516009556080820151600a5560a0820151600b5560c0820151600c55810151600d55610100810151600e55610120810151600f550151601055805160115560208101516012550151601355610204356000146109ae5760015b600281101561099a5760ff1990911660ff91909116176005556101e4358255600161ff0160a01b0319166101c4356001600160a01b031617600160a81b176001557f1646a0d7e8b0d2e652ab8f7c10066bd4531b0e3931c70c4076d1f4c3bcae488e8180a180f35b634e487b7160e01b84526021600452602484fd5b82610932565b604051631f2c4df760e11b8152600490fd5b6040516378d7ec3d60e11b8152600490fd5b5061014083015180159081156109ef575b50610885565b905060a084015110386109e9565b6040516330fae41b60e21b8152600490fd5b60405163a17bc06b60e01b8152600490fd5b9050608084015110153861086c565b604051630e07239b60e01b8152600490fd5b9060a085015190610a84570460c084015190818102918183041490151715610a705760808401511138610858565b634e487b7160e01b87526011600452602487fd5b634e487b7160e01b88526012600452602488fd5b604051635f7cc84560e01b8152600490fd5b905060c08401511138610844565b60a0850151811015915061083d565b604051633aa1c78760e21b8152600490fd5b5060408201516020830151811090811591610af5575b5061082b565b8351614650810192508210610b0b571038610aef565b634e487b7160e01b88526011600452602488fd5b634e487b7160e01b86526021600452602486fd5b604051636a05191960e01b8152600490fd5b6040516331d75b1160e11b8152600490fd5b9050602082015110386107f4565b604051637841c2c960e11b8152600490fd5b60405163d92e233d60e01b8152600490fd5b604051633914894960e11b8152600490fd5b5080fd5b82346102a557806003193601126102a55760206040516146508152f35b82346102a557806003193601126102a55760115442101580610be6575b6020906040519015158152f35b50601254421115610bd9565b82346102a557806003193601126102a55760ff60055416604051906002811015610c1e57602092508152f35b634e487b7160e01b83526021600452602483fd5b82346102a557806003193601126102a55760ff60015460a81c16156105f957601154421061061d5760ff600554166002811015610cff5715610ced5760135415610cdb57338152600260205260ff604082205416610cc95733808252600260205260408220805460ff191660011790557f3e2e83ce5ae1775e4885fb5893c4da3d96807b244cbc81d8ca376160ac8b83dc8280a280f35b60405163a62730eb60e01b8152600490fd5b604051633e28c36d60e11b8152600490fd5b604051630ff6444f60e21b8152600490fd5b634e487b7160e01b82526021600452602482fd5b82346102a557806003193601126102a55760ff600554166002811015610cff5715610ced5760135415610cdb57338152600260205260ff60408220541615610d915733808252600260205260408220805460ff191690557fe849a6016287673559cafb1b858b9cc68989587b3f4ac1ff4bdfa54ee8689f398280a280f35b6040516312154ec760e31b8152600490fd5b82346102a557806003193601126102a5576020600754604051908152f35b82346102a55760203660031901126102a55760209060ff906040906001600160a01b03610dec611a40565b168152600284522054166040519015158152f35b82346102a557806003193601126102a5576020601254604051908152f35b82346102a557806003193601126102a557600854600a546020929181610e4b5750505b6040519015158152f35b10159050610e41565b82346102a557806003193601126102a557602060405166038d7ea4c680008152f35b82346102a557806003193601126102a5576040517f00000000000000000000000000000000000000000000000000000000000000006001600160a01b03168152602090f35b905034610b9b5781600319360112610b9b5761016091604051610edd81611a8d565b8181528160208201528160408201528160608201528160808201528160a08201528160c0820152818382015261010082818301526101208381840152610140938480940152610f2a611b37565b916040519560018060a01b0384511687526020840151602088015260408401516040880152606084015160608801526080840151608088015260a084015160a088015260c084015160c0880152808401519087015280830151908601528082015190850152015190820152f35b82346102a557806003193601126102a5576020600c54604051908152f35b82346102a557806003193601126102a5576020604051670de0b6b3a76400008152f35b82346102a557806003193601126102a557601154421061061d57601254421161060b5760ff60015460a81c16156105f9573381526014602052604081206040519061102282611a5b565b805491828152604060ff60026001850154948560208601520154161515910152811580156110cc575b6110ba5761107e90338452601460205283600160408220828155015561107383600854611bcb565b600855600954611bcb565b60095561108b8133611bd8565b6040519081527fa4f094027e7ab8dea7e40b214fbacc0deed8a1fad0b42b29d76cf60e0793683260203392a280f35b60405163569d45cf60e11b8152600490fd5b50801561104b565b82346102a557806003193601126102a557604080516110f281611a5b565b82815282602082015201526060611107611ba7565b6040805191805183526020810151602084015201516040820152f35b82346102a557806003193601126102a5576003546040516001600160a01b039091168152602090f35b82346102a557806003193601126102a5576020600854604051908152f35b82806003193601126102a55760015460ff8160a81c16156105f95760ff8160a01c161561128f5760ff8160b01c1661127d5760407f8f974d7b17ae2ba05e0a9548bdf900e6e3e642c7d7bff6d9b2edb6b936137fe1916111c8611b37565b80830151478110611277575047905b6111ea60a0820151602083015190611c95565b606082015181811061126857505085925b60ff60b01b198116600160b01b17600155828061124f575b5050828061122c575b505082519182526020820152a180f35b905160015461124892916001600160a01b039182169116611bf6565b858261121c565b611261916001600160a01b0316611bd8565b8682611213565b61127191611bcb565b926111fb565b906111d7565b6040516318b366af60e21b8152600490fd5b6040516316b8570d60e01b8152600490fd5b82346102a557806003193601126102a5576112ba611ae8565b600380546001600160a01b0319811690915581906001600160a01b03167f8be0079c531659141344cd1fd0a4f28419497f9722a3daafe3b4186f6b6457e08280a380f35b82346102a557602090816003193601126102a55761131a611a40565b91611323611ae8565b60026004541461162557600260045560015460ff8160a81c16156105f95760a01c60ff1661161357611353611b37565b918161135d611ba7565b015142106116015760408301516080840151116115ef5782516101208401805160405163095ea7b360e01b81527f00000000000000000000000000000000000000000000000000000000000000006001600160a01b03818116600484015260248301939093529593849082906044908290899087165af18015611570576115bc575b50606061010087019560c48751848a51169085875194816040519e8f97889663f305d71960e01b8852600488015280602488015260448701528460648701521660848501524260a4850152165af19687156115b157849761157b575b50855160405163e6a4390560e01b815290821660048201527f0000000000000000000000000000000000000000000000000000000000000000821660248201529583876044817f000000000000000000000000000000000000000000000000000000000000000086165afa968715611570578597611538575b508187169485156102a5575091608093917f1079442b04b4beff799900bb01cd00e1a880ec71fbf2182fa1b9dd3cfcfcfdbd9593600160a01b60ff60a01b196001541617600155511695519051916040519384528301526040820152856060820152a26001600455604080516001600160a01b039290921682526020820192909252f35b9096508381813d8311611569575b6115508183611ac6565b81010312610657575181811681036106575795886114b4565b503d611546565b6040513d87823e3d90fd5b9096506060813d82116115a9575b8161159660609383611ac6565b8101031261049f5760400151958761143b565b3d9150611589565b6040513d86823e3d90fd5b8381813d83116115e8575b6115d18183611ac6565b8101031261065757518015150361049f57876113df565b503d6115c7565b604051632bdc91ad60e01b8152600490fd5b60405163e71cb6ed60e01b8152600490fd5b6040516339ebcc1960e01b8152600490fd5b604051633ee5aeb560e01b8152600490fd5b82346102a557806003193601126102a5576020600e54604051908152f35b82346102a557806003193601126102a55760125442111561174257600a5460085410156117305760ff60015460a81c16156105f95733815260146020526040812060ff6002604051926116a784611a5b565b8054845260018101546020850152015416151580604083015261171e575180156110ba57338252601460205260026040832001600160ff198254161790556116ef8133611bd8565b6040519081527fd1a4dc08c0259db1bb035dab2943722545923d8da2990f31bd8182b1037c56e260203392a280f35b604051633753fb7960e01b8152600490fd5b60405163629c1b6760e01b8152600490fd5b604051634c6ae11f60e01b8152600490fd5b82346102a557806003193601126102a557602060405160048152f35b82346102a557806003193601126102a5576020600d54604051908152f35b82346102a557806003193601126102a5576040517f00000000000000000000000000000000000000000000000000000000000000006001600160a01b03168152602090f35b82346102a557806003193601126102a55760125442111561174257600a54600854106115ef5760ff60015460a81c16156105f9573381526014602052604080822060ff600283519261182484611a5b565b80548452600181015460208501520154161515918291015261171e573381526014602052600160408220015480156110ba5760065461186f90829033906001600160a01b0316611bf6565b338252601460205260026040832001600160ff198254161790556040519081527fbc8e5aa70c5eb96080a341466c708cb7bb7bdd986731a1411986a803637ff88e60203392a280f35b82346102a557806003193601126102a5576020600f54604051908152f35b82346102a557806003193601126102a5576020601154604051908152f35b82346102a557806003193601126102a5576020600b54604051908152f35b82346102a557806003193601126102a5576006546040516001600160a01b039091168152602090f35b82346102a557806003193601126102a5576040517f00000000000000000000000000000000000000000000000000000000000000006001600160a01b03168152602090f35b82346102a55760203660031901126102a5576020906040906001600160a01b036119a8611a40565b16815260148352206040516119bc81611a5b565b604060ff60028454948585526001810154878601520154161515910152604051908152f35b82346102a557806003193601126102a55760209054604051908152f35b82346102a557806003193601126102a5576020600954604051908152f35b839034610b9b5781600319360112610b9b5760209060ff60015460a01c1615158152f35b600435906001600160a01b0382168203611a5657565b600080fd5b6060810190811067ffffffffffffffff821117611a7757604052565b634e487b7160e01b600052604160045260246000fd5b610160810190811067ffffffffffffffff821117611a7757604052565b6040810190811067ffffffffffffffff821117611a7757604052565b90601f8019910116810190811067ffffffffffffffff821117611a7757604052565b6003546001600160a01b03163303611afc57565b60405163118cdaa760e01b8152336004820152602490fd5b91908201809211611b2157565b634e487b7160e01b600052601160045260246000fd5b60405190611b4482611a8d565b6006546001600160a01b03168252600754602083015260085460408301526009546060830152600a546080830152600b5460a0830152600c5460c0830152600d5460e0830152600e54610100830152600f54610120830152601054610140830152565b60405190611bb482611a5b565b601154825260125460208301526013546040830152565b91908203918211611b2157565b600080809338935af115611be857565b63b12d13eb6000526004601cfd5b60405163a9059cbb60e01b60208083019182526001600160a01b039490941660248301526044808301959095529381529092600091611c36606482611ac6565b519082855af115611c89576000513d611c8057506001600160a01b0381163b155b611c5e5750565b604051635274afe760e01b81526001600160a01b039091166004820152602490fd5b60011415611c57565b6040513d6000823e3d90fd5b9080600019048211611cb1575b670de0b6b3a764000091020490565b8015611ca25763bac65e5b6000526004601cfdfea264697066735822122045e70a351f060bf12e576ae039b807c2792a4d39f3fbf30a719983eadd05100364736f6c63430008140033a26469706673582212207ea5087f8aed2c50d241ab08f98a1bd360f7e53e983b9c8355b8974100663b4564736f6c63430008140033","linkReferences":{}},"methodIdentifiers":{"AOI_DEX_FACTORY()":"4ecabfb2","AOI_DEX_ROUTER()":"1595cd6f","EMPTY_MERKLE_ROOT()":"a75d4d6e","IDO_FEE_RATE()":"b5697a1c","MIN_LOCKED_DURATION()":"ac7aa1f6","WETH()":"ad5c4648","checkPoolIsValid(uint256)":"7b2c74dc","createPool((address,uint256,uint256,uint256,uint256,uint256,uint256,uint256,uint256,uint256,uint256),(uint256,uint256,uint256),bool,bytes32,uint8,uint256)":"9577d570","depositLiquidityPool(uint256)":"caee6207","getIdoPoolAddress(uint256)":"4c516ed4","getLiquidityLockExpired(uint256)":"c6bcdacc","getLiquidityPoolAction(uint256)":"0b32a9a6","getLiquidityPoolAddress(uint256)":"779c0b7f","getLpAmount(uint256)":"5f8e9e91","getTotalPool()":"75f4d677","owner()":"8da5cb5b","receiveLpToken(uint256)":"53ef4f5b","renounceOwnership()":"715018a6","transferOwnership(address)":"f2fde38b"},"id":51}