{"abi":[{"type":"constructor","inputs":[{"name":"_aoiFactory","type":"address","internalType":"address"},{"name":"_aoiRouter","type":"address","internalType":"address"},{"name":"_WETH","type":"address","internalType":"address"}],"stateMutability":"nonpayable"},{"type":"receive","stateMutability":"payable"},{"type":"function","name":"AOI_DEX_FACTORY","inputs":[],"outputs":[{"name":"","type":"address","internalType":"address"}],"stateMutability":"view"},{"type":"function","name":"AOI_DEX_ROUTER","inputs":[],"outputs":[{"name":"","type":"address","internalType":"address"}],"stateMutability":"view"},{"type":"function","name":"EMPTY_MERKLE_ROOT","inputs":[],"outputs":[{"name":"","type":"bytes32","internalType":"bytes32"}],"stateMutability":"view"},{"type":"function","name":"IDO_FEE_RATE","inputs":[],"outputs":[{"name":"","type":"uint16","internalType":"uint16"}],"stateMutability":"view"},{"type":"function","name":"MIN_LOCKED_DURATION","inputs":[],"outputs":[{"name":"","type":"uint256","internalType":"uint256"}],"stateMutability":"view"},{"type":"function","name":"WETH","inputs":[],"outputs":[{"name":"","type":"address","internalType":"address"}],"stateMutability":"view"},{"type":"function","name":"checkPoolIsValid","inputs":[{"name":"poolId","type":"uint256","internalType":"uint256"}],"outputs":[{"name":"","type":"bool","internalType":"bool"}],"stateMutability":"view"},{"type":"function","name":"createPool","inputs":[{"name":"poolDetails","type":"tuple","internalType":"struct IIDOPool.IDOPoolDetails","components":[{"name":"tokenAddress","type":"address","internalType":"address"},{"name":"pricePerToken","type":"uint256","internalType":"uint256"},{"name":"raisedAmount","type":"uint256","internalType":"uint256"},{"name":"raisedTokenAmount","type":"uint256","internalType":"uint256"},{"name":"softCap","type":"uint256","internalType":"uint256"},{"name":"hardCap","type":"uint256","internalType":"uint256"},{"name":"minInvest","type":"uint256","internalType":"uint256"},{"name":"maxInvest","type":"uint256","internalType":"uint256"},{"name":"liquidityWETH9","type":"uint256","internalType":"uint256"},{"name":"liquidityToken","type":"uint256","internalType":"uint256"},{"name":"privateSaleAmount","type":"uint256","internalType":"uint256"}]},{"name":"poolTime","type":"tuple","internalType":"struct IIDOPool.IDOTime","components":[{"name":"startTime","type":"uint256","internalType":"uint256"},{"name":"endTime","type":"uint256","internalType":"uint256"},{"name":"startPublicSale","type":"uint256","internalType":"uint256"}]},{"name":"privateSale","type":"bool","internalType":"bool"},{"name":"whitelisted","type":"bytes32","internalType":"bytes32"},{"name":"action","type":"uint8","internalType":"enum IIDOFactory.LiquidityPoolAction"},{"name":"lockExpired","type":"uint256","internalType":"uint256"}],"outputs":[{"name":"poolAddress","type":"address","internalType":"address"}],"stateMutability":"payable"},{"type":"function","name":"depositLiquidityPool","inputs":[{"name":"poolId","type":"uint256","internalType":"uint256"}],"outputs":[{"name":"liquidityPoolAddress","type":"address","internalType":"address"},{"name":"lpAmount","type":"uint256","internalType":"uint256"}],"stateMutability":"nonpayable"},{"type":"function","name":"getIdoPoolAddress","inputs":[{"name":"poolId","type":"uint256","internalType":"uint256"}],"outputs":[{"name":"","type":"address","internalType":"address"}],"stateMutability":"view"},{"type":"function","name":"getLiquidityLockExpired","inputs":[{"name":"poolId","type":"uint256","internalType":"uint256"}],"outputs":[{"name":"","type":"uint256","internalType":"uint256"}],"stateMutability":"view"},{"type":"function","name":"getLiquidityPool","inputs":[{"name":"poolId","type":"uint256","internalType":"uint256"}],"outputs":[{"name":"","type":"tuple","internalType":"struct IIDOFactory.LiquidityPool","components":[{"name":"idoPoolId","type":"uint256","internalType":"uint256"},{"name":"idoOwner","type":"address","internalType":"address"},{"name":"idoPoolAddress","type":"address","internalType":"address"},{"name":"tokenAddress","type":"address","internalType":"address"},{"name":"tokenAmount","type":"uint256","internalType":"uint256"},{"name":"wethAmount","type":"uint256","internalType":"uint256"},{"name":"lpAmount","type":"uint256","internalType":"uint256"},{"name":"liquidityPoolAddress","type":"address","internalType":"address"},{"name":"action","type":"uint8","internalType":"enum IIDOFactory.LiquidityPoolAction"},{"name":"to","type":"address","internalType":"address"},{"name":"lockExpired","type":"uint256","internalType":"uint256"}]}],"stateMutability":"view"},{"type":"function","name":"getLiquidityPoolAction","inputs":[{"name":"poolId","type":"uint256","internalType":"uint256"}],"outputs":[{"name":"","type":"uint8","internalType":"enum IIDOFactory.LiquidityPoolAction"}],"stateMutability":"view"},{"type":"function","name":"getLiquidityPoolAddress","inputs":[{"name":"poolId","type":"uint256","internalType":"uint256"}],"outputs":[{"name":"","type":"address","internalType":"address"}],"stateMutability":"view"},{"type":"function","name":"getLpAmount","inputs":[{"name":"poolId","type":"uint256","internalType":"uint256"}],"outputs":[{"name":"","type":"uint256","internalType":"uint256"}],"stateMutability":"view"},{"type":"function","name":"getTotalPool","inputs":[],"outputs":[{"name":"","type":"uint256","internalType":"uint256"}],"stateMutability":"view"},{"type":"function","name":"owner","inputs":[],"outputs":[{"name":"","type":"address","internalType":"address"}],"stateMutability":"view"},{"type":"function","name":"receiveLpToken","inputs":[{"name":"poolId","type":"uint256","internalType":"uint256"}],"outputs":[],"stateMutability":"nonpayable"},{"type":"function","name":"renounceOwnership","inputs":[],"outputs":[],"stateMutability":"nonpayable"},{"type":"function","name":"transferOwnership","inputs":[{"name":"newOwner","type":"address","internalType":"address"}],"outputs":[],"stateMutability":"nonpayable"},{"type":"event","name":"OwnershipTransferred","inputs":[{"name":"previousOwner","type":"address","indexed":true,"internalType":"address"},{"name":"newOwner","type":"address","indexed":true,"internalType":"address"}],"anonymous":false},{"type":"event","name":"PoolCreated","inputs":[{"name":"owner","type":"address","indexed":true,"internalType":"address"},{"name":"tokenAddress","type":"address","indexed":true,"internalType":"address"},{"name":"poolId","type":"uint256","indexed":false,"internalType":"uint256"}],"anonymous":false},{"type":"error","name":"ActionIsNotNothing","inputs":[]},{"type":"error","name":"CannotUnlockLiquidityLocked","inputs":[]},{"type":"error","name":"IdoPoolAlreadyDeposited","inputs":[]},{"type":"error","name":"InvalidAction","inputs":[]},{"type":"error","name":"InvalidLockExpired","inputs":[]},{"type":"error","name":"InvalidPoolId","inputs":[]},{"type":"error","name":"InvalidPricePerToken","inputs":[]},{"type":"error","name":"InvalidTokenAddress","inputs":[]},{"type":"error","name":"LiquidityIsNotLocked","inputs":[]},{"type":"error","name":"NotPoolOwner","inputs":[]},{"type":"error","name":"OwnableInvalidOwner","inputs":[{"name":"owner","type":"address","internalType":"address"}]},{"type":"error","name":"OwnableUnauthorizedAccount","inputs":[{"name":"account","type":"address","internalType":"address"}]},{"type":"error","name":"SafeERC20FailedOperation","inputs":[{"name":"token","type":"address","internalType":"address"}]}],"bytecode":{"object":"0x60e0346200011e57601f6200359538819003918201601f19168301916001600160401b0383118484101762000123578084926060946040528339810103126200011e576200004d8162000139565b906200006a6040620000626020840162000139565b920162000139565b91600160005560805260a05260c0523315620001055760018054336001600160a01b03198216811790925560405191906001600160a01b03167f8be0079c531659141344cd1fd0a4f28419497f9722a3daafe3b4186f6b6457e0600080a361344690816200014f823960805181818161029f0152611010015260a0518181816102220152611060015260c051818181610a140152610faa0152f35b604051631e4fbdf760e01b815260006004820152602490fd5b600080fd5b634e487b7160e01b600052604160045260246000fd5b51906001600160a01b03821682036200011e5756fe608060405260043610156200001d575b36156200001b57600080fd5b005b60003560e01c80630b32a9a614620001845780631595cd6f146200017e5780634c516ed414620001785780634ecabfb2146200017257806353ef4f5b146200016c5780635f8e9e911462000166578063715018a6146200016057806375f4d677146200015a578063779c0b7f14620001545780637b2c74dc146200014e5780638da5cb5b14620001485780639577d5701462000142578063a74498aa146200013c578063a75d4d6e1462000136578063ac7aa1f61462000130578063ad5c4648146200012a578063b5697a1c1462000124578063c6bcdacc146200011e578063caee620714620001185763f2fde38b036200000f5762000c39565b62000a93565b62000a62565b62000a43565b620009fc565b620009dc565b620009be565b62000886565b62000700565b62000596565b6200055e565b62000525565b620004f1565b6200048c565b6200045b565b620002ce565b62000287565b62000251565b6200020a565b620001b9565b600311156200019557565b634e487b7160e01b600052602160045260246000fd5b906003821015620001955752565b34620001f9576020366003190112620001f9576004356000526003602052602060ff60076040600020015460a01c16620001f76040518092620001ab565bf35b600080fd5b6000910312620001f957565b34620001f9576000366003190112620001f9576040517f00000000000000000000000000000000000000000000000000000000000000006001600160a01b03168152602090f35b34620001f9576020366003190112620001f9576004356000526002602052602060018060a01b0360406000205416604051908152f35b34620001f9576000366003190112620001f9576040517f00000000000000000000000000000000000000000000000000000000000000006001600160a01b03168152602090f35b34620001f9576020366003190112620001f95760043562000303620002fd826000526003602052604060002090565b62001494565b602081015162000323906001600160a01b03165b6001600160a01b031690565b3303620004495760016101008201516200033d816200018a565b62000348816200018a565b148015906200043b575b620004295761014081015142106200041757620003d2602091600060096200038582966000526003602052604060002090565b015560e081015160c090620003a59062000317906001600160a01b031681565b91015160405163a9059cbb60e01b8152336004820152602481019190915293849283919082906044820190565b03925af180156200041157620003e457005b6200001b9060203d811162000409575b62000400818362000627565b81019062001568565b503d620003f4565b62000e00565b604051635e63d49360e11b8152600490fd5b60405163eab5041b60e01b8152600490fd5b506101408101511562000352565b6040516367d056a760e11b8152600490fd5b34620001f9576020366003190112620001f95760043560005260036020526020600660406000200154604051908152f35b34620001f957600080600319360112620004ee57620004aa62000cd2565b600180546001600160a01b0319811690915581906001600160a01b03167f8be0079c531659141344cd1fd0a4f28419497f9722a3daafe3b4186f6b6457e08280a380f35b80fd5b34620001f9576000366003190112620001f95760005460001981019081116200051f57602090604051908152f35b62000e0c565b34620001f9576020366003190112620001f9576004356000526003602052602060018060a01b0360076040600020015416604051908152f35b34620001f9576020366003190112620001f9576004356000526002602052602060018060a01b03604060002054161515604051908152f35b34620001f9576000366003190112620001f9576001546040516001600160a01b039091168152602090f35b610160810190811067ffffffffffffffff821117620005df57604052565b634e487b7160e01b600052604160045260246000fd5b67ffffffffffffffff8111620005df57604052565b60a0810190811067ffffffffffffffff821117620005df57604052565b90601f8019910116810190811067ffffffffffffffff821117620005df57604052565b604051906200065982620005c1565b565b9062000659604051928362000627565b6001600160a01b03811603620001f957565b6004359062000659826200066b565b606090610163190112620001f957604051906060820182811067ffffffffffffffff821117620005df576040528161016435815261018435602082015260406101a435910152565b80151503620001f957565b6101c435906200065982620006d4565b61020435906003821015620001f957565b36600319016102408112620001f95761016013620001f957620007d8620007be6200072a6200064a565b620007346200067d565b8152602435602082015260443560408201526064356060820152608435608082015260a43560a082015260c43560c082015260e43560e082015261010435610100820152610124356101208201526101443561014082015262000797366200068c565b90620007a2620006df565b90620007ad620006ef565b9161022435936101e4359262000f6a565b6040516001600160a01b0390911681529081906020820190565b0390f35b815181526020808301516001600160a01b031690820152610160810192916040818101516001600160a01b0316908301526060818101516001600160a01b0316908301526080818101519083015260a0808201519083015260c0808201519083015260e0808201516001600160a01b031690830152620008666101008083015190840190620001ab565b610120818101516001600160a01b03169083015261014080910151910152565b34620001f9576020366003190112620001f957620007d8604051620008ab81620005c1565b6000908181528160208201528160408201528160608201528160808201528160a08201528160c08201528160e08201526009610100928084840152620009ab6040610120928084870152806101408097015260043581526003602052209162000997620009176200064a565b8454815260018501546001600160a01b031660208201529660028501546001600160a01b0316604089015260038501546001600160a01b0316606089015260048501546080890152600585015460a0890152600685015460c089015260078501546001600160a01b03811660e08a015260ff9060a01c1690880162000e42565b60088301546001600160a01b031690860152565b01549082015260405191829182620007dc565b34620001f9576000366003190112620001f957602060405160008152f35b34620001f9576000366003190112620001f9576020604051620151808152f35b34620001f9576000366003190112620001f9576040517f00000000000000000000000000000000000000000000000000000000000000006001600160a01b03168152602090f35b34620001f9576000366003190112620001f95760206040516101f48152f35b34620001f9576020366003190112620001f95760043560005260036020526020600960406000200154604051908152f35b34620001f9576020366003190112620001f9576004356000818152600260205260409020546001600160a01b0316801562000c275762000ae1620002fd836000526003602052604060002090565b60e081015190919062000afd906001600160a01b031662000317565b62000c155762000b4b60409162000b20610120600095015160018060a01b031690565b83516301b1b22f60e61b81526001600160a01b03909116600482015293849283919082906024820190565b03925af19182156200041157600091829362000bd5575b50600662000bb78262000ba785600762000b8789976000526003602052604060002090565b0180546001600160a01b0319166001600160a01b03909216919091179055565b6000526003602052604060002090565b0155604080516001600160a01b039290921682526020820192909252f35b62000bb793506006925062000c049060403d811162000c0d575b62000bfb818362000627565b81019062001546565b93509162000b62565b503d62000bef565b604051637107c20b60e11b8152600490fd5b60405163015f4fdd60e31b8152600490fd5b34620001f9576020366003190112620001f95760043562000c5a816200066b565b62000c6462000cd2565b6001600160a01b0390811690811562000cb957600154826bffffffffffffffffffffffff60a01b821617600155167f8be0079c531659141344cd1fd0a4f28419497f9722a3daafe3b4186f6b6457e0600080a3005b604051631e4fbdf760e01b815260006004820152602490fd5b6001546001600160a01b0316330362000ce757565b60405163118cdaa760e01b8152336004820152602490fd5b9081519160005b83811062000d18575050016000815290565b806020809284010151818501520162000d06565b909594929362000df2620006599562000de16102009561022086019a62000d5b87825160018060a01b03169052565b6020810151602088015260408101516040880152606081015160608801526080810151608088015260a081015160a088015260c081015160c088015260e081015160e08801526101008082015190880152610120808201519088015261014080910151908701526101608601906040809180518452602081015160208501520151910152565b6001600160a01b03166101c0840152565b6101e0820152019015159052565b6040513d6000823e3d90fd5b634e487b7160e01b600052601160045260246000fd5b90620151809182018092116200051f57565b919082018092116200051f57565b6003821015620001955752565b9060038110156200019557815460ff60a01b191660a09190911b60ff60a01b16179055565b8151815560208201516001820180546001600160a01b039283166001600160a01b031991821617909155604084015160028401805491841691831691909117905560608401516003840180549184169183169190911790556080840151600484015560a0840151600584015560c0840151600684015560e084015160078401805491909316911617815561010083015191926009926101409262000f24919062000f1e826200018a565b62000e4f565b6101208101516008850180546001600160a01b0319166001600160a01b039092169190911790550151910155565b60001981146200051f5760010190565b15620001f957565b909291939594956000946040958087850152806060850152611e8d91620010ae60209362000f9a8582016200065b565b90808252620015848683013989517f00000000000000000000000000000000000000000000000000000000000000006001600160a01b0316868201908152819003808252601f1991620010c2918891620010b5918f91620010ae9162001004906020018262000627565b82516001600160a01b037f0000000000000000000000000000000000000000000000000000000000000000168682019081529091620010ae9162001054908490602001038a810185528462000627565b84516001600160a01b037f000000000000000000000000000000000000000000000000000000000000000016888201908152909590620010a0908790602001038b810188528762000627565b519a8b978801809b62000cff565b9062000cff565b0382810185528462000627565b8a513360601b6bffffffffffffffffffffffff191687820190815242601482015291620010fb9082603485010390810183528262000627565b51902091519084f5998a3b15620013b2576001600160a01b03968b8816803b15620013ae5790849188838c620011498f5198899687958694630383e4b760e61b865233916004870162000d2c565b03925af19182156200041157849262001390575b508254976200116c866200018a565b600186149283918262001378575b5050620013675785518b939289928b926001600160a01b03169789610120928382019a8b51906101008094019a8b5193620011b5876200018a565b8815620013435730985b620011ca886200018a565b156200133a57985b620011dc6200064a565b9a8b52338e8c01526001600160a01b03909116908a01526001600160a01b03166060890152608088015260a08701528660c08701528660e0870152850190620012259162000e42565b6001600160a01b03909116908301526101408201526200124f886000526003602052604060002090565b906200125b9162000e74565b8962001271886000526002602052604060002090565b80546001600160a01b0319166001600160a01b0390921691909117905580546200129b9062000f52565b905551620012ab34821462000f62565b620012b7908962001475565b60a083015190830151620012cb9162001443565b82516001600160a01b03169151620012e39162000e34565b878433931692620012f493620013b6565b516001600160a01b03161691518033926200131490829190602083019252565b037ff8a0462f666b427ea753848be7e91f9ce413975906f6f39950be296ca9a4d52491a3565b508a98620011d2565b6200134e876200018a565b6002870362001360578b5b98620011bf565b3362001359565b88516317fbf86960e21b8152600490fd5b620013869250015162000e22565b811084386200117a565b80620013a0620013a792620005f5565b80620001fe565b386200115d565b8480fd5b8280fd5b9260209160009160405190848201926323b872dd60e01b845260018060a01b0396878092166024850152166044830152606482015260648152620013fa816200060a565b519082865af11562000e00576000513d6200143957508082163b155b6200141f575050565b604051635274afe760e01b81529116600482015260249150fd5b6001141562001416565b908060001904821162001460575b670de0b6b3a764000091020490565b8015620014515763bac65e5b6000526004601cfd5b600080809338935af1156200148657565b63b12d13eb6000526004601cfd5b906009620014a16200064a565b8354815260018401546001600160a01b031660208201529260028101546001600160a01b0316604085015260038101546001600160a01b0316606085015260048101546080850152600581015460a0850152600681015460c085015260078101546001600160a01b03811660e0860152620015289060ff9060a01c16610100860162000e42565b60088101546001600160a01b03166101208501520154610140830152565b9190826040910312620001f9576020825162001562816200066b565b92015190565b90816020910312620001f957516200158081620006d4565b9056fe60e0346200011e57601f62001e8d38819003918201601f19168301916001600160401b0383118484101762000123578084926060946040528339810103126200011e576200004d8162000139565b906200006a6040620000626020840162000139565b920162000139565b9160c05260805260a0523315620001055760038054336001600160a01b03198216811790925560405191906001600160a01b03167f8be0079c531659141344cd1fd0a4f28419497f9722a3daafe3b4186f6b6457e0600080a36001600455611d3e90816200014f82396080518181816114c601526117e7015260a0518181816113cf0152611994015260c051818181610ed001526114980152f35b604051631e4fbdf760e01b815260006004820152602490fd5b600080fd5b634e487b7160e01b600052604160045260246000fd5b51906001600160a01b03821682036200011e5756fe608080604052600436101561001d575b50361561001b57600080fd5b005b60009060e08235811c91826309c88ac714611a5f5750816309d4674614611a415781630b71f11614611a245781630cec2a76146119c35781631595cd6f1461197e578163194d28a6146119555781631d6f6ed514611937578163367dfede146119195781633b1e79fb146118fb5781634451d89f146118165781634ecabfb2146117d157816351d1892d146117b35781635a604c52146117975781635cb732be146116985781636aabc35014610e055781636b14c5e21461167a5781636c6c8bc014611341578163715018a6146112e457816378c535331461067e5781637c480cb4146111ad57816384eeae431461118f5781638da5cb5b1461116657816394186d961461111757816394f8e9541461101b57816397ea1c1914610ff9578163a9b79d0d14610fdb578163aca34c1114610eff578163ad5c464814610eba578163ad69184b14610e98578163b92289f914610e62578163c0477b9214610e44578163c3c5a54714610e05578163ca1e973814610de7578163cd25325714610d57578163cdfeb95b14610c75578163cf9afab514610c35578163df868ed314610bff578163e04d77ae14610be2578163e0f92dc0146106ff578163e9fb0505146106c4578163eb4f76b7146106a7578163eb71e8c41461067e578163eeb6ea7e146102c657508063f039a084146102a85763f2fde38b0361000f57346102a55760203660031901126102a557610230611a83565b610238611b2b565b6001600160a01b0390811690811561028c57600354826bffffffffffffffffffffffff60a01b821617600355167f8be0079c531659141344cd1fd0a4f28419497f9722a3daafe3b4186f6b6457e08380a380f35b604051631e4fbdf760e01b815260048101849052602490fd5b80fd5b50346102a557806003193601126102a5576020600a54604051908152f35b602091503660031901821361067a576004359067ffffffffffffffff80831161067657366023840112156106765782600401359081116106625760059080821b936040519161031787870184611b09565b8252858201602480968301019136831161065e5786889101915b83831061064e57505050506011918254421061063c57601254421161062a5760019460ff865460a81c161561061857610368611bea565b93610371611b7a565b94338a526014895260408a209660ff60026040519961038f8b611a9e565b80548b528b8101548d8c01520154161515604089015260a08701519760408801986103bb348b51611b57565b11610606576103cb815134611b57565b60c0890151116105f4576103e0905134611b57565b90870151106105e25760ff84541660028110156105cf579088809493921490816105c1575b506104b0575b5050505050505061041a611b7a565b5061042734600754611cd8565b9081156104ac5761047c9061043e34600854611b57565b60085561044d83600954611b57565b6009553385526014845260408520610466348254611b57565b9055338552601484526040852001918254611b57565b90557fbc2c8c4e77d1056c1a17c98a5ccb744c860e9a624c0547cd3b8790ec86c5fe44604051913483523392a280f35b8380fd5b8954946040518a8101903382528b81526104c981611aed565b5190206040518b81019182528b81526104e181611aed565b519020948b945b61055c575b5050505050141580610546575b6105345761014061051091015191349051611b57565b1015610522573880808084818061040b565b604051633a51960b60e11b8152600490fd5b6040516338c20bc560e21b8152600490fd5b503385526002845260ff604086205416156104fa565b909192939482518610156105bb5785821b83018b015190818110156105ad578c528a5260408b205b94600019811461059a57890193929190896104e8565b634e487b7160e01b8c526004849052848cfd5b908c528a5260408b20610584565b946104ed565b604091500151421038610405565b634e487b7160e01b8b526021600452838bfd5b604051631ba05a5760e31b8152600490fd5b60405163753f384d60e11b8152600490fd5b604051631c4af3c960e11b8152600490fd5b604051632fd798ed60e11b8152600490fd5b6040516372c3664160e11b8152600490fd5b60405163f7f1fb2760e01b8152600490fd5b8235815291810191889101610331565b8880fd5b634e487b7160e01b85526041600452602485fd5b8480fd5b8280fd5b82346102a557806003193601126102a5576001546040516001600160a01b039091168152602090f35b82346102a557806003193601126102a55760206040516102588152f35b82346102a557806003193601126102a5576020906012544281116000146106f9576106f191504290611c0e565b604051908152f35b506106f1565b905034610bde573660031901610220811261067a5761016013610bde576040519061072982611ad0565b610731611a83565b8252602435602083015260443560408301526064356060830152608435608083015260a43560a083015260c43560c083015260e4358183015261010435610100830152610124356101208301526101443561014083015260606101631936011261067a57604051916107a283611a9e565b6101643583526101843560208401526101a43560408401526101c4356001600160a01b03811690036104ac5761020435151561020435036104ac576001549260ff8460a81c16610bcc5781516001600160a01b031615610bba57602082015115610ba8578051428110908115610b9a575b50610b8857805161025890428201809211610a575710610b76576102043580610b51575b610b3f5760055492600260ff85161015610b2b57600160ff85161480610ac0575b610aae57808301518015908115610a9f575b8115610a91575b50610a7f5760c08301518015908115610a29575b50610a175760a08301518015908115610a08575b506109f6576080830151156109e457662386f26fc10000610100840151106109d2576040926101409160018060a01b038251166bffffffffffffffffffffffff60a01b600654161760065560208201516007558482015160085560608201516009556080820151600a5560a0820151600b5560c0820151600c55810151600d55610100810151600e55610120810151600f550151601055805160115560208101516012550151601355610204356000146109cc5760015b60028110156109b85760ff1990911660ff91909116176005556101e4358255600161ff0160a01b0319166101c4356001600160a01b031617600160a81b176001557f1646a0d7e8b0d2e652ab8f7c10066bd4531b0e3931c70c4076d1f4c3bcae488e8180a180f35b634e487b7160e01b84526021600452602484fd5b82610950565b604051631f2c4df760e11b8152600490fd5b6040516330fae41b60e21b8152600490fd5b60405163a17bc06b60e01b8152600490fd5b90506080840151101538610899565b604051630e07239b60e01b8152600490fd5b9060a085015190610a6b570460c084015190818102918183041490151715610a575760808401511138610885565b634e487b7160e01b87526011600452602487fd5b634e487b7160e01b88526012600452602488fd5b604051635f7cc84560e01b8152600490fd5b905060c08401511138610871565b60a0850151811015915061086a565b604051633aa1c78760e21b8152600490fd5b5061014083015160a08401511480610b1e575b80610858575060408201516020830151811090811591610af4575b50610858565b835161012c810192508210610b0a571038610aee565b634e487b7160e01b88526011600452602488fd5b5060408201511515610ad3565b634e487b7160e01b86526021600452602486fd5b6040516378d7ec3d60e11b8152600490fd5b506101408201518015908115610b68575b50610837565b905060a08301511038610b62565b604051636a05191960e01b8152600490fd5b6040516331d75b1160e11b8152600490fd5b905060208201511038610813565b604051637841c2c960e11b8152600490fd5b60405163d92e233d60e01b8152600490fd5b604051633914894960e11b8152600490fd5b5080fd5b82346102a557806003193601126102a557602060405161012c8152f35b82346102a557806003193601126102a55760115442101580610c29575b6020906040519015158152f35b50601254421115610c1c565b82346102a557806003193601126102a55760ff60055416604051906002811015610c6157602092508152f35b634e487b7160e01b83526021600452602483fd5b82346102a557806003193601126102a55760ff60015460a81c16156106185760115442101561063c5760ff600554166002811015610d435715610d315760135415610d1f57338152600260205260ff604082205416610d0d5733808252600260205260408220805460ff191660011790557f3e2e83ce5ae1775e4885fb5893c4da3d96807b244cbc81d8ca376160ac8b83dc8280a280f35b60405163a62730eb60e01b8152600490fd5b604051633e28c36d60e11b8152600490fd5b604051630ff6444f60e21b8152600490fd5b634e487b7160e01b82526021600452602482fd5b82346102a557806003193601126102a55760ff600554166002811015610d435715610d315760135415610d1f57338152600260205260ff60408220541615610dd55733808252600260205260408220805460ff191690557fe849a6016287673559cafb1b858b9cc68989587b3f4ac1ff4bdfa54ee8689f398280a280f35b6040516312154ec760e31b8152600490fd5b82346102a557806003193601126102a5576020600754604051908152f35b82346102a55760203660031901126102a55760209060ff906040906001600160a01b03610e30611a83565b168152600284522054166040519015158152f35b82346102a557806003193601126102a5576020601254604051908152f35b82346102a557806003193601126102a557600854600a546020929181610e8f5750505b6040519015158152f35b10159050610e85565b82346102a557806003193601126102a557602060405166038d7ea4c680008152f35b82346102a557806003193601126102a5576040517f00000000000000000000000000000000000000000000000000000000000000006001600160a01b03168152602090f35b905034610bde5781600319360112610bde5761016091604051610f2181611ad0565b8181528160208201528160408201528160608201528160808201528160a08201528160c0820152818382015261010082818301526101208381840152610140938480940152610f6e611b7a565b916040519560018060a01b0384511687526020840151602088015260408401516040880152606084015160608801526080840151608088015260a084015160a088015260c084015160c0880152808401519087015280830151908601528082015190850152015190820152f35b82346102a557806003193601126102a5576020600c54604051908152f35b82346102a557806003193601126102a5576020604051662386f26fc100008152f35b82346102a557806003193601126102a557601154421061063c57601254421161062a5760ff60015460a81c1615610618573381526014602052604081206040519061106582611a9e565b805491828152604060ff600260018501549485602086015201541615159101528115801561110f575b6110fd576110c19033845260146020528360016040822082815501556110b683600854611c0e565b600855600954611c0e565b6009556110ce8133611c1b565b6040519081527fa4f094027e7ab8dea7e40b214fbacc0deed8a1fad0b42b29d76cf60e0793683260203392a280f35b60405163569d45cf60e11b8152600490fd5b50801561108e565b82346102a557806003193601126102a5576040805161113581611a9e565b8281528260208201520152606061114a611bea565b6040805191805183526020810151602084015201516040820152f35b82346102a557806003193601126102a5576003546040516001600160a01b039091168152602090f35b82346102a557806003193601126102a5576020600854604051908152f35b82806003193601126102a55760015460ff8160a81c16156106185760ff8160a01c16156112d25760ff8160b01c166112c05760407f8f974d7b17ae2ba05e0a9548bdf900e6e3e642c7d7bff6d9b2edb6b936137fe19161120b611b7a565b808301514781106112ba575047905b61122d60a0820151602083015190611cd8565b60608201518181106112ab57505085925b60ff60b01b198116600160b01b176001558280611292575b5050828061126f575b505082519182526020820152a180f35b905160015461128b92916001600160a01b039182169116611c39565b858261125f565b6112a4916001600160a01b0316611c1b565b8682611256565b6112b491611c0e565b9261123e565b9061121a565b6040516318b366af60e21b8152600490fd5b6040516316b8570d60e01b8152600490fd5b82346102a557806003193601126102a5576112fd611b2b565b600380546001600160a01b0319811690915581906001600160a01b03167f8be0079c531659141344cd1fd0a4f28419497f9722a3daafe3b4186f6b6457e08280a380f35b82346102a557602090816003193601126102a55761135d611a83565b91611366611b2b565b60026004541461166857600260045560015460ff8160a81c16156106185760a01c60ff1661165657611396611b7a565b91816113a0611bea565b015142106116445760408301516080840151116116325782516101208401805160405163095ea7b360e01b81527f00000000000000000000000000000000000000000000000000000000000000006001600160a01b03818116600484015260248301939093529593849082906044908290899087165af180156115b3576115ff575b50606061010087019560c48751848a51169085875194816040519e8f97889663f305d71960e01b8852600488015280602488015260448701528460648701521660848501524260a4850152165af19687156115f45784976115be575b50855160405163e6a4390560e01b815290821660048201527f0000000000000000000000000000000000000000000000000000000000000000821660248201529583876044817f000000000000000000000000000000000000000000000000000000000000000086165afa9687156115b357859761157b575b508187169485156102a5575091608093917f1079442b04b4beff799900bb01cd00e1a880ec71fbf2182fa1b9dd3cfcfcfdbd9593600160a01b60ff60a01b196001541617600155511695519051916040519384528301526040820152856060820152a26001600455604080516001600160a01b039290921682526020820192909252f35b9096508381813d83116115ac575b6115938183611b09565b81010312610676575181811681036106765795886114f7565b503d611589565b6040513d87823e3d90fd5b9096506060813d82116115ec575b816115d960609383611b09565b810103126104ac5760400151958761147e565b3d91506115cc565b6040513d86823e3d90fd5b8381813d831161162b575b6116148183611b09565b810103126106765751801515036104ac5787611422565b503d61160a565b604051632bdc91ad60e01b8152600490fd5b60405163e71cb6ed60e01b8152600490fd5b6040516339ebcc1960e01b8152600490fd5b604051633ee5aeb560e01b8152600490fd5b82346102a557806003193601126102a5576020600e54604051908152f35b82346102a557806003193601126102a55760125442111561178557600a5460085410156117735760ff60015460a81c16156106185733815260146020526040812060ff6002604051926116ea84611a9e565b80548452600181015460208501520154161515806040830152611761575180156110fd57338252601460205260026040832001600160ff198254161790556117328133611c1b565b6040519081527fd1a4dc08c0259db1bb035dab2943722545923d8da2990f31bd8182b1037c56e260203392a280f35b604051633753fb7960e01b8152600490fd5b60405163629c1b6760e01b8152600490fd5b604051634c6ae11f60e01b8152600490fd5b82346102a557806003193601126102a557602060405160048152f35b82346102a557806003193601126102a5576020600d54604051908152f35b82346102a557806003193601126102a5576040517f00000000000000000000000000000000000000000000000000000000000000006001600160a01b03168152602090f35b82346102a557806003193601126102a55760125442111561178557600a54600854106116325760ff60015460a81c1615610618573381526014602052604080822060ff600283519261186784611a9e565b805484526001810154602085015201541615159182910152611761573381526014602052600160408220015480156110fd576006546118b290829033906001600160a01b0316611c39565b338252601460205260026040832001600160ff198254161790556040519081527fbc8e5aa70c5eb96080a341466c708cb7bb7bdd986731a1411986a803637ff88e60203392a280f35b82346102a557806003193601126102a5576020600f54604051908152f35b82346102a557806003193601126102a5576020601154604051908152f35b82346102a557806003193601126102a5576020600b54604051908152f35b82346102a557806003193601126102a5576006546040516001600160a01b039091168152602090f35b82346102a557806003193601126102a5576040517f00000000000000000000000000000000000000000000000000000000000000006001600160a01b03168152602090f35b82346102a55760203660031901126102a5576020906040906001600160a01b036119eb611a83565b16815260148352206040516119ff81611a9e565b604060ff60028454948585526001810154878601520154161515910152604051908152f35b82346102a557806003193601126102a55760209054604051908152f35b82346102a557806003193601126102a5576020600954604051908152f35b839034610bde5781600319360112610bde5760209060ff60015460a01c1615158152f35b600435906001600160a01b0382168203611a9957565b600080fd5b6060810190811067ffffffffffffffff821117611aba57604052565b634e487b7160e01b600052604160045260246000fd5b610160810190811067ffffffffffffffff821117611aba57604052565b6040810190811067ffffffffffffffff821117611aba57604052565b90601f8019910116810190811067ffffffffffffffff821117611aba57604052565b6003546001600160a01b03163303611b3f57565b60405163118cdaa760e01b8152336004820152602490fd5b91908201809211611b6457565b634e487b7160e01b600052601160045260246000fd5b60405190611b8782611ad0565b6006546001600160a01b03168252600754602083015260085460408301526009546060830152600a546080830152600b5460a0830152600c5460c0830152600d5460e0830152600e54610100830152600f54610120830152601054610140830152565b60405190611bf782611a9e565b601154825260125460208301526013546040830152565b91908203918211611b6457565b600080809338935af115611c2b57565b63b12d13eb6000526004601cfd5b60405163a9059cbb60e01b60208083019182526001600160a01b039490941660248301526044808301959095529381529092600091611c79606482611b09565b519082855af115611ccc576000513d611cc357506001600160a01b0381163b155b611ca15750565b604051635274afe760e01b81526001600160a01b039091166004820152602490fd5b60011415611c9a565b6040513d6000823e3d90fd5b9080600019048211611cf4575b670de0b6b3a764000091020490565b8015611ce55763bac65e5b6000526004601cfdfea26469706673582212206cd94844a37db238db438f2e707c79aed670e83362c2d95bb6e9ba90695e4cd364736f6c63430008140033a2646970667358221220664c1464f01f651efeade9ef688ea66dcd30a4a85e94509d8a957f54194349bb64736f6c63430008140033","linkReferences":{}},"methodIdentifiers":{"AOI_DEX_FACTORY()":"4ecabfb2","AOI_DEX_ROUTER()":"1595cd6f","EMPTY_MERKLE_ROOT()":"a75d4d6e","IDO_FEE_RATE()":"b5697a1c","MIN_LOCKED_DURATION()":"ac7aa1f6","WETH()":"ad5c4648","checkPoolIsValid(uint256)":"7b2c74dc","createPool((address,uint256,uint256,uint256,uint256,uint256,uint256,uint256,uint256,uint256,uint256),(uint256,uint256,uint256),bool,bytes32,uint8,uint256)":"9577d570","depositLiquidityPool(uint256)":"caee6207","getIdoPoolAddress(uint256)":"4c516ed4","getLiquidityLockExpired(uint256)":"c6bcdacc","getLiquidityPool(uint256)":"a74498aa","getLiquidityPoolAction(uint256)":"0b32a9a6","getLiquidityPoolAddress(uint256)":"779c0b7f","getLpAmount(uint256)":"5f8e9e91","getTotalPool()":"75f4d677","owner()":"8da5cb5b","receiveLpToken(uint256)":"53ef4f5b","renounceOwnership()":"715018a6","transferOwnership(address)":"f2fde38b"},"id":48}