{"abi":[{"type":"constructor","inputs":[{"name":"_WETH","type":"address","internalType":"address"},{"name":"_AOI_DEX_FACTORY","type":"address","internalType":"address"},{"name":"_AOI_DEX_ROUTER","type":"address","internalType":"address"}],"stateMutability":"nonpayable"},{"type":"function","name":"AOI_DEX_FACTORY","inputs":[],"outputs":[{"name":"","type":"address","internalType":"address"}],"stateMutability":"view"},{"type":"function","name":"AOI_DEX_ROUTER","inputs":[],"outputs":[{"name":"","type":"address","internalType":"address"}],"stateMutability":"view"},{"type":"function","name":"MIN_DELAY_STARTING","inputs":[],"outputs":[{"name":"","type":"uint112","internalType":"uint112"}],"stateMutability":"view"},{"type":"function","name":"MIN_PRICE_TOKEN","inputs":[],"outputs":[{"name":"","type":"uint256","internalType":"uint256"}],"stateMutability":"view"},{"type":"function","name":"MIN_WETH","inputs":[],"outputs":[{"name":"","type":"uint256","internalType":"uint256"}],"stateMutability":"view"},{"type":"function","name":"RATE_DECIMALS","inputs":[],"outputs":[{"name":"","type":"uint8","internalType":"uint8"}],"stateMutability":"view"},{"type":"function","name":"WETH","inputs":[],"outputs":[{"name":"","type":"address","internalType":"address"}],"stateMutability":"view"},{"type":"function","name":"poolOwner","inputs":[],"outputs":[{"name":"","type":"address","internalType":"address"}],"stateMutability":"view"}],"bytecode":{"object":"0x60e060405234801561001057600080fd5b506040516102ad3803806102ad83398101604081905261002f91610068565b6001600160a01b0392831660c0529082166080521660a0526100ab565b80516001600160a01b038116811461006357600080fd5b919050565b60008060006060848603121561007d57600080fd5b6100868461004c565b92506100946020850161004c565b91506100a26040850161004c565b90509250925092565b60805160a05160c0516101d56100d860003960006101340152600060920152600060d601526101d56000f3fe608060405234801561001057600080fd5b50600436106100885760003560e01c8063ad5c46481161005b578063ad5c46481461012f578063ad69184b14610156578063cf0b227014610164578063eb4f76b71461017757600080fd5b80631595cd6f1461008d5780634ecabfb2146100d15780635a604c52146100f857806397ea1c1914610112575b600080fd5b6100b47f000000000000000000000000000000000000000000000000000000000000000081565b6040516001600160a01b0390911681526020015b60405180910390f35b6100b47f000000000000000000000000000000000000000000000000000000000000000081565b610100600481565b60405160ff90911681526020016100c8565b610121670de0b6b3a764000081565b6040519081526020016100c8565b6100b47f000000000000000000000000000000000000000000000000000000000000000081565b61012166038d7ea4c6800081565b6000546100b4906001600160a01b031681565b610180618ca081565b6040516dffffffffffffffffffffffffffff90911681526020016100c856fea2646970667358221220c5260ce20455edf4a032c727416cbfbfa0e956a7f682827273d9dba60486074364736f6c634300081a0033","linkReferences":{}},"methodIdentifiers":{"AOI_DEX_FACTORY()":"4ecabfb2","AOI_DEX_ROUTER()":"1595cd6f","MIN_DELAY_STARTING()":"eb4f76b7","MIN_PRICE_TOKEN()":"ad69184b","MIN_WETH()":"97ea1c19","RATE_DECIMALS()":"5a604c52","WETH()":"ad5c4648","poolOwner()":"cf0b2270"},"id":51}