{"abi":[{"type":"constructor","inputs":[{"name":"_WETH","type":"address","internalType":"address"},{"name":"_AOI_DEX_FACTORY","type":"address","internalType":"address"},{"name":"_AOI_DEX_ROUTER","type":"address","internalType":"address"}],"stateMutability":"nonpayable"},{"type":"function","name":"AOI_DEX_FACTORY","inputs":[],"outputs":[{"name":"","type":"address","internalType":"address"}],"stateMutability":"view"},{"type":"function","name":"AOI_DEX_ROUTER","inputs":[],"outputs":[{"name":"","type":"address","internalType":"address"}],"stateMutability":"view"},{"type":"function","name":"MIN_DELAY_STARTING","inputs":[],"outputs":[{"name":"","type":"uint112","internalType":"uint112"}],"stateMutability":"view"},{"type":"function","name":"MIN_PRICE_TOKEN","inputs":[],"outputs":[{"name":"","type":"uint256","internalType":"uint256"}],"stateMutability":"view"},{"type":"function","name":"MIN_PRIVATE_SALES_ENDING","inputs":[],"outputs":[{"name":"","type":"uint112","internalType":"uint112"}],"stateMutability":"view"},{"type":"function","name":"MIN_WETH","inputs":[],"outputs":[{"name":"","type":"uint256","internalType":"uint256"}],"stateMutability":"view"},{"type":"function","name":"POOL_OWNER","inputs":[],"outputs":[{"name":"","type":"address","internalType":"address"}],"stateMutability":"view"},{"type":"function","name":"RATE_DECIMALS","inputs":[],"outputs":[{"name":"","type":"uint8","internalType":"uint8"}],"stateMutability":"view"},{"type":"function","name":"WETH","inputs":[],"outputs":[{"name":"","type":"address","internalType":"address"}],"stateMutability":"view"},{"type":"function","name":"WHITELISTED","inputs":[],"outputs":[{"name":"","type":"bytes32","internalType":"bytes32"}],"stateMutability":"view"},{"type":"function","name":"registers","inputs":[{"name":"","type":"address","internalType":"address"}],"outputs":[{"name":"","type":"bool","internalType":"bool"}],"stateMutability":"view"}],"bytecode":{"object":"0x60e03461009457601f61037d38819003918201601f19168301916001600160401b038311848410176100995780849260609460405283398101031261009457610047816100af565b906100606040610059602084016100af565b92016100af565b9160c05260805260a0526040516102b990816100c48239608051816101f7015260a0518161023a015260c051816101330152f35b600080fd5b634e487b7160e01b600052604160045260246000fd5b51906001600160a01b03821682036100945756fe60806040818152600436101561001457600080fd5b600091823560e01c9081630b71f11614610269575080631595cd6f146102265780634ecabfb2146101e35780635a604c52146101c85780636aabc3501461018457806397ea1c1914610162578063ad5c46481461011f578063ad69184b146100fe578063e04d77ae146100e2578063eb4f76b7146100c65763eb71e8c41461009b57600080fd5b346100c257816003193601126100c25760015490516001600160a01b039091168152602090f35b5080fd5b50346100c257816003193601126100c25760209051618ca08152f35b50346100c257816003193601126100c257602090516146508152f35b50346100c257816003193601126100c2576020905166038d7ea4c680008152f35b50346100c257816003193601126100c257517f00000000000000000000000000000000000000000000000000000000000000006001600160a01b03168152602090f35b50346100c257816003193601126100c25760209051670de0b6b3a76400008152f35b50346100c25760203660031901126100c2576004356001600160a01b038116908190036101c457818360ff92602095526002855220541690519015158152f35b8280fd5b50346100c257816003193601126100c2576020905160048152f35b50346100c257816003193601126100c257517f00000000000000000000000000000000000000000000000000000000000000006001600160a01b03168152602090f35b50346100c257816003193601126100c257517f00000000000000000000000000000000000000000000000000000000000000006001600160a01b03168152602090f35b8390346100c257816003193601126100c257602091548152f3fea264697066735822122038f640351c5d4a056ba44dbfe40da8e5cfddcf5a8757480f5a15e58c2e19001364736f6c63430008140033","linkReferences":{}},"methodIdentifiers":{"AOI_DEX_FACTORY()":"4ecabfb2","AOI_DEX_ROUTER()":"1595cd6f","MIN_DELAY_STARTING()":"eb4f76b7","MIN_PRICE_TOKEN()":"ad69184b","MIN_PRIVATE_SALES_ENDING()":"e04d77ae","MIN_WETH()":"97ea1c19","POOL_OWNER()":"eb71e8c4","RATE_DECIMALS()":"5a604c52","WETH()":"ad5c4648","WHITELISTED()":"0b71f116","registers(address)":"6aabc350"},"id":54}