{"abi":[{"type":"constructor","inputs":[{"name":"_WETH","type":"address","internalType":"address"},{"name":"_AOI_DEX_FACTORY","type":"address","internalType":"address"},{"name":"_AOI_DEX_ROUTER","type":"address","internalType":"address"}],"stateMutability":"nonpayable"},{"type":"function","name":"AOI_DEX_FACTORY","inputs":[],"outputs":[{"name":"","type":"address","internalType":"address"}],"stateMutability":"view"},{"type":"function","name":"AOI_DEX_ROUTER","inputs":[],"outputs":[{"name":"","type":"address","internalType":"address"}],"stateMutability":"view"},{"type":"function","name":"MIN_DELAY_STARTING","inputs":[],"outputs":[{"name":"","type":"uint112","internalType":"uint112"}],"stateMutability":"view"},{"type":"function","name":"MIN_PRICE_TOKEN","inputs":[],"outputs":[{"name":"","type":"uint256","internalType":"uint256"}],"stateMutability":"view"},{"type":"function","name":"MIN_PRIVATE_SALES_ENDING","inputs":[],"outputs":[{"name":"","type":"uint112","internalType":"uint112"}],"stateMutability":"view"},{"type":"function","name":"MIN_WETH","inputs":[],"outputs":[{"name":"","type":"uint256","internalType":"uint256"}],"stateMutability":"view"},{"type":"function","name":"POOL_OWNER","inputs":[],"outputs":[{"name":"","type":"address","internalType":"address"}],"stateMutability":"view"},{"type":"function","name":"RATE_DECIMALS","inputs":[],"outputs":[{"name":"","type":"uint8","internalType":"uint8"}],"stateMutability":"view"},{"type":"function","name":"WETH","inputs":[],"outputs":[{"name":"","type":"address","internalType":"address"}],"stateMutability":"view"},{"type":"function","name":"WHITELISTED","inputs":[],"outputs":[{"name":"","type":"bytes32","internalType":"bytes32"}],"stateMutability":"view"},{"type":"function","name":"registers","inputs":[{"name":"","type":"address","internalType":"address"}],"outputs":[{"name":"","type":"bool","internalType":"bool"}],"stateMutability":"view"},{"type":"event","name":"CanceledPrivatePoolRegistration","inputs":[{"name":"investor","type":"address","indexed":true,"internalType":"address"}],"anonymous":false},{"type":"event","name":"IDOPoolClaimed","inputs":[{"name":"investor","type":"address","indexed":true,"internalType":"address"},{"name":"amount","type":"uint256","indexed":false,"internalType":"uint256"}],"anonymous":false},{"type":"event","name":"IDOPoolCreated","inputs":[{"name":"poolOwner","type":"address","indexed":true,"internalType":"address"},{"name":"tokenAddress","type":"address","indexed":true,"internalType":"address"},{"name":"poolId","type":"uint256","indexed":false,"internalType":"uint256"},{"name":"pricePerToken","type":"uint256","indexed":false,"internalType":"uint256"},{"name":"startTime","type":"uint256","indexed":false,"internalType":"uint256"},{"name":"endTime","type":"uint256","indexed":false,"internalType":"uint256"}],"anonymous":false},{"type":"event","name":"IDOPoolInvested","inputs":[{"name":"investor","type":"address","indexed":true,"internalType":"address"},{"name":"amount","type":"uint256","indexed":false,"internalType":"uint256"}],"anonymous":false},{"type":"event","name":"IDOPoolInvestmentCanceled","inputs":[{"name":"investor","type":"address","indexed":true,"internalType":"address"},{"name":"amount","type":"uint256","indexed":false,"internalType":"uint256"}],"anonymous":false},{"type":"event","name":"IDOPoolListed","inputs":[{"name":"tokenAddress","type":"address","indexed":true,"internalType":"address"},{"name":"liquidityPool","type":"address","indexed":false,"internalType":"address"},{"name":"liquidityWETHAmount","type":"uint256","indexed":false,"internalType":"uint256"},{"name":"liquidityTokenAmount","type":"uint256","indexed":false,"internalType":"uint256"},{"name":"lpTokenAmount","type":"uint256","indexed":false,"internalType":"uint256"}],"anonymous":false},{"type":"event","name":"IDOPoolRefunded","inputs":[{"name":"investor","type":"address","indexed":true,"internalType":"address"},{"name":"amount","type":"uint256","indexed":false,"internalType":"uint256"}],"anonymous":false},{"type":"event","name":"IDOPoolWithdrawn","inputs":[{"name":"tokenAmount","type":"uint256","indexed":false,"internalType":"uint256"},{"name":"ethAmount","type":"uint256","indexed":false,"internalType":"uint256"}],"anonymous":false},{"type":"event","name":"IdoPoolInitialized","inputs":[],"anonymous":false},{"type":"event","name":"RegisteredPrivatePool","inputs":[{"name":"investor","type":"address","indexed":true,"internalType":"address"}],"anonymous":false},{"type":"error","name":"AlreadyListedDex","inputs":[]},{"type":"error","name":"AlreadyWhitelisted","inputs":[]},{"type":"error","name":"HardCapExceeded","inputs":[]},{"type":"error","name":"IDOIsAlreadyPublicSale","inputs":[]},{"type":"error","name":"IDOIsAlreadyStarted","inputs":[]},{"type":"error","name":"IDOIsEnded","inputs":[]},{"type":"error","name":"IDOIsNotEnded","inputs":[]},{"type":"error","name":"IDOIsNotStarted","inputs":[]},{"type":"error","name":"IDOPoolHasWithdrawn","inputs":[]},{"type":"error","name":"IDOPoolInitialized","inputs":[]},{"type":"error","name":"IDOPoolIsPrivate","inputs":[]},{"type":"error","name":"IDOPoolIsPrivateForWhitelisted","inputs":[]},{"type":"error","name":"IDOPoolIsPublic","inputs":[]},{"type":"error","name":"IDOPoolNotInitialized","inputs":[]},{"type":"error","name":"IDOPoolStillActive","inputs":[]},{"type":"error","name":"InvalidLiquidityAmount","inputs":[]},{"type":"error","name":"InvalidPoolDelayTime","inputs":[]},{"type":"error","name":"InvalidPoolHardCap","inputs":[]},{"type":"error","name":"InvalidPoolId","inputs":[]},{"type":"error","name":"InvalidPoolMaxInvestment","inputs":[]},{"type":"error","name":"InvalidPoolMinInvestment","inputs":[]},{"type":"error","name":"InvalidPoolSoftCap","inputs":[]},{"type":"error","name":"InvalidPoolStartPublicSale","inputs":[]},{"type":"error","name":"InvalidPoolTimeFrame","inputs":[]},{"type":"error","name":"InvalidPrivateSaleAmount","inputs":[]},{"type":"error","name":"InvalidTokenForSale","inputs":[]},{"type":"error","name":"InvalidTokenPrice","inputs":[]},{"type":"error","name":"InvestorAlreadyRegistered","inputs":[]},{"type":"error","name":"InvestorClaimed","inputs":[]},{"type":"error","name":"InvestorNotRegisteredYet","inputs":[]},{"type":"error","name":"MaxInvestmentExceeded","inputs":[]},{"type":"error","name":"MinInvestmentNotReached","inputs":[]},{"type":"error","name":"NotEnoughBalance","inputs":[]},{"type":"error","name":"NotListedDex","inputs":[]},{"type":"error","name":"NotPoolOwner","inputs":[]},{"type":"error","name":"NotPoolOwnerOrFactory","inputs":[]},{"type":"error","name":"NotWhilelisted","inputs":[]},{"type":"error","name":"PrivateSaleExceeded","inputs":[]},{"type":"error","name":"SoftCapNotReached","inputs":[]},{"type":"error","name":"SoftCapReached","inputs":[]},{"type":"error","name":"ZeroAddress","inputs":[]}],"bytecode":{"object":"0x60e03461009457601f61037c38819003918201601f19168301916001600160401b038311848410176100995780849260609460405283398101031261009457610047816100af565b906100606040610059602084016100af565b92016100af565b9160c05260805260a0526040516102b890816100c48239608051816101f6015260a05181610239015260c051816101330152f35b600080fd5b634e487b7160e01b600052604160045260246000fd5b51906001600160a01b03821682036100945756fe60806040818152600436101561001457600080fd5b600091823560e01c9081630b71f11614610268575080631595cd6f146102255780634ecabfb2146101e25780635a604c52146101c75780636aabc3501461018357806397ea1c1914610162578063ad5c46481461011f578063ad69184b146100fe578063e04d77ae146100e2578063eb4f76b7146100c65763eb71e8c41461009b57600080fd5b346100c257816003193601126100c25760015490516001600160a01b039091168152602090f35b5080fd5b50346100c257816003193601126100c257602090516102588152f35b50346100c257816003193601126100c2576020905161012c8152f35b50346100c257816003193601126100c2576020905166038d7ea4c680008152f35b50346100c257816003193601126100c257517f00000000000000000000000000000000000000000000000000000000000000006001600160a01b03168152602090f35b50346100c257816003193601126100c25760209051662386f26fc100008152f35b50346100c25760203660031901126100c2576004356001600160a01b038116908190036101c357818360ff92602095526002855220541690519015158152f35b8280fd5b50346100c257816003193601126100c2576020905160048152f35b50346100c257816003193601126100c257517f00000000000000000000000000000000000000000000000000000000000000006001600160a01b03168152602090f35b50346100c257816003193601126100c257517f00000000000000000000000000000000000000000000000000000000000000006001600160a01b03168152602090f35b8390346100c257816003193601126100c257602091548152f3fea2646970667358221220e7c1a7cbc81148a2aac4d60ade2a6c9b5883978b96396fc3998b56e3958bddb264736f6c63430008140033","linkReferences":{}},"methodIdentifiers":{"AOI_DEX_FACTORY()":"4ecabfb2","AOI_DEX_ROUTER()":"1595cd6f","MIN_DELAY_STARTING()":"eb4f76b7","MIN_PRICE_TOKEN()":"ad69184b","MIN_PRIVATE_SALES_ENDING()":"e04d77ae","MIN_WETH()":"97ea1c19","POOL_OWNER()":"eb71e8c4","RATE_DECIMALS()":"5a604c52","WETH()":"ad5c4648","WHITELISTED()":"0b71f116","registers(address)":"6aabc350"},"id":52}