{"abi":[{"type":"constructor","inputs":[],"stateMutability":"nonpayable"},{"type":"function","name":"DECIMALS","inputs":[],"outputs":[{"name":"","type":"uint8","internalType":"uint8"}],"stateMutability":"view"},{"type":"function","name":"DOMAIN_SEPARATOR","inputs":[],"outputs":[{"name":"","type":"bytes32","internalType":"bytes32"}],"stateMutability":"view"},{"type":"function","name":"NAME","inputs":[],"outputs":[{"name":"","type":"string","internalType":"string"}],"stateMutability":"view"},{"type":"function","name":"PERMIT_TYPEHASH","inputs":[],"outputs":[{"name":"","type":"bytes32","internalType":"bytes32"}],"stateMutability":"view"},{"type":"function","name":"SYMBOL","inputs":[],"outputs":[{"name":"","type":"string","internalType":"string"}],"stateMutability":"view"},{"type":"function","name":"allowance","inputs":[{"name":"owner","type":"address","internalType":"address"},{"name":"spender","type":"address","internalType":"address"}],"outputs":[{"name":"","type":"uint256","internalType":"uint256"}],"stateMutability":"view"},{"type":"function","name":"approve","inputs":[{"name":"spender","type":"address","internalType":"address"},{"name":"value","type":"uint256","internalType":"uint256"}],"outputs":[{"name":"","type":"bool","internalType":"bool"}],"stateMutability":"nonpayable"},{"type":"function","name":"balanceOf","inputs":[{"name":"owner","type":"address","internalType":"address"}],"outputs":[{"name":"","type":"uint256","internalType":"uint256"}],"stateMutability":"view"},{"type":"function","name":"decimals","inputs":[],"outputs":[{"name":"","type":"uint8","internalType":"uint8"}],"stateMutability":"pure"},{"type":"function","name":"name","inputs":[],"outputs":[{"name":"","type":"string","internalType":"string"}],"stateMutability":"pure"},{"type":"function","name":"nonces","inputs":[{"name":"owner","type":"address","internalType":"address"}],"outputs":[{"name":"","type":"uint256","internalType":"uint256"}],"stateMutability":"view"},{"type":"function","name":"permit","inputs":[{"name":"owner","type":"address","internalType":"address"},{"name":"spender","type":"address","internalType":"address"},{"name":"value","type":"uint256","internalType":"uint256"},{"name":"deadline","type":"uint256","internalType":"uint256"},{"name":"v","type":"uint8","internalType":"uint8"},{"name":"r","type":"bytes32","internalType":"bytes32"},{"name":"s","type":"bytes32","internalType":"bytes32"}],"outputs":[],"stateMutability":"nonpayable"},{"type":"function","name":"symbol","inputs":[],"outputs":[{"name":"","type":"string","internalType":"string"}],"stateMutability":"pure"},{"type":"function","name":"totalSupply","inputs":[],"outputs":[{"name":"","type":"uint256","internalType":"uint256"}],"stateMutability":"view"},{"type":"function","name":"transfer","inputs":[{"name":"to","type":"address","internalType":"address"},{"name":"value","type":"uint256","internalType":"uint256"}],"outputs":[{"name":"","type":"bool","internalType":"bool"}],"stateMutability":"nonpayable"},{"type":"function","name":"transferFrom","inputs":[{"name":"from","type":"address","internalType":"address"},{"name":"to","type":"address","internalType":"address"},{"name":"value","type":"uint256","internalType":"uint256"}],"outputs":[{"name":"","type":"bool","internalType":"bool"}],"stateMutability":"nonpayable"},{"type":"event","name":"Approval","inputs":[{"name":"owner","type":"address","indexed":true,"internalType":"address"},{"name":"spender","type":"address","indexed":true,"internalType":"address"},{"name":"value","type":"uint256","indexed":false,"internalType":"uint256"}],"anonymous":false},{"type":"event","name":"Transfer","inputs":[{"name":"from","type":"address","indexed":true,"internalType":"address"},{"name":"to","type":"address","indexed":true,"internalType":"address"},{"name":"value","type":"uint256","indexed":false,"internalType":"uint256"}],"anonymous":false},{"type":"error","name":"InsufficientAllowance","inputs":[{"name":"spender","type":"address","internalType":"address"},{"name":"currentAllowance","type":"uint256","internalType":"uint256"},{"name":"value","type":"uint256","internalType":"uint256"}]},{"type":"error","name":"InsufficientBalance","inputs":[{"name":"from","type":"address","internalType":"address"},{"name":"fromBalance","type":"uint256","internalType":"uint256"},{"name":"value","type":"uint256","internalType":"uint256"}]},{"type":"error","name":"InvalidApprover","inputs":[{"name":"approver","type":"address","internalType":"address"}]},{"type":"error","name":"InvalidReceiver","inputs":[{"name":"receiver","type":"address","internalType":"address"}]},{"type":"error","name":"InvalidSender","inputs":[{"name":"sender","type":"address","internalType":"address"}]},{"type":"error","name":"InvalidSpender","inputs":[{"name":"spender","type":"address","internalType":"address"}]}],"bytecode":{"object":"0x60a060405234801561001057600080fd5b506040805180820182526009815268416f6943727970746f60b81b6020918201528151808301835260018152603160f81b9082015281517f8b73c3c69bb8fe3d512ecc4cf759cc79239f7b179b0ffacaa9a75d522b39400f818301527f74635fb4b6cbadd76aca6b05ed830afbaf6140ab4db99d239b83a2e75cb28116818401527fc89efdaa54c0f20c7adf612882df0950f5a951637e0307cdcb4c672f298b8bc66060820152466080808301919091523060a0808401919091528451808403909101815260c0909201909352805191012090819052610a89610105600039600081816101d101526103bd0152610a896000f3fe608060405234801561001057600080fd5b50600436106101005760003560e01c806370a0823111610097578063a9059cbb11610066578063a9059cbb1461028b578063d505accf1461029e578063dd62ed3e146102b3578063f76f8d78146102ec57600080fd5b806370a08231146101f35780637ecebe001461021c57806395d89b4114610245578063a3f4df7e1461026357600080fd5b80632e0f2625116100d35780632e0f26251461018457806330adf81f1461019e578063313ce567146101c55780633644e515146101cc57600080fd5b806306fdde0314610105578063095ea7b31461013c57806318160ddd1461015f57806323b872dd14610171575b600080fd5b604080518082019091526009815268416f6943727970746f60b81b60208201525b6040516101339190610878565b60405180910390f35b61014f61014a3660046108e2565b61030d565b6040519015158152602001610133565b6000545b604051908152602001610133565b61014f61017f36600461090c565b610326565b61018c601281565b60405160ff9091168152602001610133565b6101637f6e71edae12b1b97f4d1f60370fef10105fa2faae0126114a169c64845d6126c981565b601261018c565b6101637f000000000000000000000000000000000000000000000000000000000000000081565b610163610201366004610949565b6001600160a01b031660009081526001602052604090205490565b61016361022a366004610949565b6001600160a01b031660009081526003602052604090205490565b604080518082019091526002815261414360f01b6020820152610126565b61012660405180604001604052806009815260200168416f6943727970746f60b81b81525081565b61014f6102993660046108e2565b61034a565b6102b16102ac36600461096b565b610357565b005b6101636102c13660046109de565b6001600160a01b03918216600090815260026020908152604080832093909416825291909152205490565b61012660405180604001604052806002815260200161414360f01b81525081565b600061031c338484600161058d565b5060015b92915050565b600033610334858285610673565b61033f8585856106eb565b506001949350505050565b600061031c3384846106eb565b428410156103a15760405162461bcd60e51b8152602060048201526012602482015271155b9a5cddd85c158c8e881156141254915160721b60448201526064015b60405180910390fd5b6001600160a01b038716600090815260036020526040812080547f0000000000000000000000000000000000000000000000000000000000000000917f6e71edae12b1b97f4d1f60370fef10105fa2faae0126114a169c64845d6126c9918b918b918b918761040f83610a27565b909155506040805160208101969096526001600160a01b0394851690860152929091166060840152608083015260a082015260c0810187905260e0016040516020818303038152906040528051906020012060405160200161048892919061190160f01b81526002810192909252602282015260420190565b60408051601f198184030181528282528051602091820120600080855291840180845281905260ff88169284019290925260608301869052608083018590529092509060019060a0016020604051602081039080840390855afa1580156104f3573d6000803e3d6000fd5b5050604051601f1901519150506001600160a01b038116158015906105295750886001600160a01b0316816001600160a01b0316145b6105755760405162461bcd60e51b815260206004820152601c60248201527f556e697377617056323a20494e56414c49445f5349474e4154555245000000006044820152606401610398565b610582898989600161058d565b505050505050505050565b6001600160a01b0384166105bf576040516322f051b160e21b81526001600160a01b0385166004820152602401610398565b6001600160a01b0383166105f15760405163270af7ed60e11b81526001600160a01b0384166004820152602401610398565b6001600160a01b038085166000908152600260209081526040808320938716835292905220829055801561066d57826001600160a01b0316846001600160a01b03167f8c5be1e5ebec7d5bd14f71427d1e84f3dd0314c0f7b2291e5b200ac8c7c3b9258460405161066491815260200190565b60405180910390a35b50505050565b6001600160a01b03808416600090815260026020908152604080832093861683529290522054600019811461066d57818110156106dc57604051630c95cf2760e11b81526001600160a01b03841660048201526024810182905260448101839052606401610398565b61066d8484848403600061058d565b6001600160a01b038316610715576040516313053d9360e21b815260006004820152602401610398565b6001600160a01b03821661073f57604051639cfea58360e01b815260006004820152602401610398565b61074a83838361074f565b505050565b6001600160a01b038316610779578060008082825461076e9190610a40565b909155506107eb9050565b6001600160a01b038316600090815260016020526040902054818110156107cc5760405163db42144d60e01b81526001600160a01b03851660048201526024810182905260448101839052606401610398565b6001600160a01b03841660009081526001602052604090209082900390555b6001600160a01b03821661080757600080548290039055610826565b6001600160a01b03821660009081526001602052604090208054820190555b816001600160a01b0316836001600160a01b03167fddf252ad1be2c89b69c2b068fc378daa952ba7f163c4a11628f55a4df523b3ef8360405161086b91815260200190565b60405180910390a3505050565b602081526000825180602084015260005b818110156108a65760208186018101516040868401015201610889565b506000604082850101526040601f19601f83011684010191505092915050565b80356001600160a01b03811681146108dd57600080fd5b919050565b600080604083850312156108f557600080fd5b6108fe836108c6565b946020939093013593505050565b60008060006060848603121561092157600080fd5b61092a846108c6565b9250610938602085016108c6565b929592945050506040919091013590565b60006020828403121561095b57600080fd5b610964826108c6565b9392505050565b600080600080600080600060e0888a03121561098657600080fd5b61098f886108c6565b965061099d602089016108c6565b95506040880135945060608801359350608088013560ff811681146109c157600080fd5b9699959850939692959460a0840135945060c09093013592915050565b600080604083850312156109f157600080fd5b6109fa836108c6565b9150610a08602084016108c6565b90509250929050565b634e487b7160e01b600052601160045260246000fd5b600060018201610a3957610a39610a11565b5060010190565b8082018082111561032057610320610a1156fea2646970667358221220b88c8bd540dbe75863453be5934dafa4004ce9e17869693dca43d648c738221664736f6c634300081a0033","linkReferences":{}},"methodIdentifiers":{"DECIMALS()":"2e0f2625","DOMAIN_SEPARATOR()":"3644e515","NAME()":"a3f4df7e","PERMIT_TYPEHASH()":"30adf81f","SYMBOL()":"f76f8d78","allowance(address,address)":"dd62ed3e","approve(address,uint256)":"095ea7b3","balanceOf(address)":"70a08231","decimals()":"313ce567","name()":"06fdde03","nonces(address)":"7ecebe00","permit(address,address,uint256,uint256,uint8,bytes32,bytes32)":"d505accf","symbol()":"95d89b41","totalSupply()":"18160ddd","transfer(address,uint256)":"a9059cbb","transferFrom(address,address,uint256)":"23b872dd"},"id":15}