{"abi":[{"type":"constructor","inputs":[],"stateMutability":"nonpayable"},{"type":"function","name":"DECIMALS","inputs":[],"outputs":[{"name":"","type":"uint8","internalType":"uint8"}],"stateMutability":"view"},{"type":"function","name":"DOMAIN_SEPARATOR","inputs":[],"outputs":[{"name":"","type":"bytes32","internalType":"bytes32"}],"stateMutability":"view"},{"type":"function","name":"MINIMUM_LIQUIDITY","inputs":[],"outputs":[{"name":"","type":"uint256","internalType":"uint256"}],"stateMutability":"view"},{"type":"function","name":"NAME","inputs":[],"outputs":[{"name":"","type":"string","internalType":"string"}],"stateMutability":"view"},{"type":"function","name":"PERMIT_TYPEHASH","inputs":[],"outputs":[{"name":"","type":"bytes32","internalType":"bytes32"}],"stateMutability":"view"},{"type":"function","name":"SYMBOL","inputs":[],"outputs":[{"name":"","type":"string","internalType":"string"}],"stateMutability":"view"},{"type":"function","name":"allowance","inputs":[{"name":"owner","type":"address","internalType":"address"},{"name":"spender","type":"address","internalType":"address"}],"outputs":[{"name":"","type":"uint256","internalType":"uint256"}],"stateMutability":"view"},{"type":"function","name":"approve","inputs":[{"name":"spender","type":"address","internalType":"address"},{"name":"value","type":"uint256","internalType":"uint256"}],"outputs":[{"name":"","type":"bool","internalType":"bool"}],"stateMutability":"nonpayable"},{"type":"function","name":"balanceOf","inputs":[{"name":"owner","type":"address","internalType":"address"}],"outputs":[{"name":"","type":"uint256","internalType":"uint256"}],"stateMutability":"view"},{"type":"function","name":"burn","inputs":[{"name":"to","type":"address","internalType":"address"}],"outputs":[{"name":"amount0","type":"uint256","internalType":"uint256"},{"name":"amount1","type":"uint256","internalType":"uint256"}],"stateMutability":"nonpayable"},{"type":"function","name":"decimals","inputs":[],"outputs":[{"name":"","type":"uint8","internalType":"uint8"}],"stateMutability":"pure"},{"type":"function","name":"factory","inputs":[],"outputs":[{"name":"","type":"address","internalType":"address"}],"stateMutability":"view"},{"type":"function","name":"getReserves","inputs":[],"outputs":[{"name":"_reserve0","type":"uint112","internalType":"uint112"},{"name":"_reserve1","type":"uint112","internalType":"uint112"},{"name":"_blockTimestampLast","type":"uint32","internalType":"uint32"}],"stateMutability":"view"},{"type":"function","name":"initialize","inputs":[{"name":"_token0","type":"address","internalType":"address"},{"name":"_token1","type":"address","internalType":"address"}],"outputs":[],"stateMutability":"nonpayable"},{"type":"function","name":"kLast","inputs":[],"outputs":[{"name":"","type":"uint256","internalType":"uint256"}],"stateMutability":"view"},{"type":"function","name":"mint","inputs":[{"name":"to","type":"address","internalType":"address"}],"outputs":[{"name":"liquidity","type":"uint256","internalType":"uint256"}],"stateMutability":"nonpayable"},{"type":"function","name":"name","inputs":[],"outputs":[{"name":"","type":"string","internalType":"string"}],"stateMutability":"pure"},{"type":"function","name":"nonces","inputs":[{"name":"owner","type":"address","internalType":"address"}],"outputs":[{"name":"","type":"uint256","internalType":"uint256"}],"stateMutability":"view"},{"type":"function","name":"permit","inputs":[{"name":"owner","type":"address","internalType":"address"},{"name":"spender","type":"address","internalType":"address"},{"name":"value","type":"uint256","internalType":"uint256"},{"name":"deadline","type":"uint256","internalType":"uint256"},{"name":"v","type":"uint8","internalType":"uint8"},{"name":"r","type":"bytes32","internalType":"bytes32"},{"name":"s","type":"bytes32","internalType":"bytes32"}],"outputs":[],"stateMutability":"nonpayable"},{"type":"function","name":"price0CumulativeLast","inputs":[],"outputs":[{"name":"","type":"uint256","internalType":"uint256"}],"stateMutability":"view"},{"type":"function","name":"price1CumulativeLast","inputs":[],"outputs":[{"name":"","type":"uint256","internalType":"uint256"}],"stateMutability":"view"},{"type":"function","name":"skim","inputs":[{"name":"to","type":"address","internalType":"address"}],"outputs":[],"stateMutability":"nonpayable"},{"type":"function","name":"swap","inputs":[{"name":"amount0Out","type":"uint256","internalType":"uint256"},{"name":"amount1Out","type":"uint256","internalType":"uint256"},{"name":"to","type":"address","internalType":"address"},{"name":"data","type":"bytes","internalType":"bytes"}],"outputs":[],"stateMutability":"nonpayable"},{"type":"function","name":"symbol","inputs":[],"outputs":[{"name":"","type":"string","internalType":"string"}],"stateMutability":"pure"},{"type":"function","name":"sync","inputs":[],"outputs":[],"stateMutability":"nonpayable"},{"type":"function","name":"token0","inputs":[],"outputs":[{"name":"","type":"address","internalType":"address"}],"stateMutability":"view"},{"type":"function","name":"token1","inputs":[],"outputs":[{"name":"","type":"address","internalType":"address"}],"stateMutability":"view"},{"type":"function","name":"totalSupply","inputs":[],"outputs":[{"name":"","type":"uint256","internalType":"uint256"}],"stateMutability":"view"},{"type":"function","name":"transfer","inputs":[{"name":"to","type":"address","internalType":"address"},{"name":"value","type":"uint256","internalType":"uint256"}],"outputs":[{"name":"","type":"bool","internalType":"bool"}],"stateMutability":"nonpayable"},{"type":"function","name":"transferFrom","inputs":[{"name":"from","type":"address","internalType":"address"},{"name":"to","type":"address","internalType":"address"},{"name":"value","type":"uint256","internalType":"uint256"}],"outputs":[{"name":"","type":"bool","internalType":"bool"}],"stateMutability":"nonpayable"},{"type":"event","name":"Approval","inputs":[{"name":"owner","type":"address","indexed":true,"internalType":"address"},{"name":"spender","type":"address","indexed":true,"internalType":"address"},{"name":"value","type":"uint256","indexed":false,"internalType":"uint256"}],"anonymous":false},{"type":"event","name":"Burn","inputs":[{"name":"sender","type":"address","indexed":true,"internalType":"address"},{"name":"amount0","type":"uint256","indexed":false,"internalType":"uint256"},{"name":"amount1","type":"uint256","indexed":false,"internalType":"uint256"},{"name":"to","type":"address","indexed":true,"internalType":"address"}],"anonymous":false},{"type":"event","name":"Mint","inputs":[{"name":"sender","type":"address","indexed":true,"internalType":"address"},{"name":"amount0","type":"uint256","indexed":false,"internalType":"uint256"},{"name":"amount1","type":"uint256","indexed":false,"internalType":"uint256"}],"anonymous":false},{"type":"event","name":"Swap","inputs":[{"name":"sender","type":"address","indexed":true,"internalType":"address"},{"name":"amount0In","type":"uint256","indexed":false,"internalType":"uint256"},{"name":"amount1In","type":"uint256","indexed":false,"internalType":"uint256"},{"name":"amount0Out","type":"uint256","indexed":false,"internalType":"uint256"},{"name":"amount1Out","type":"uint256","indexed":false,"internalType":"uint256"},{"name":"to","type":"address","indexed":true,"internalType":"address"}],"anonymous":false},{"type":"event","name":"Sync","inputs":[{"name":"reserve0","type":"uint112","indexed":false,"internalType":"uint112"},{"name":"reserve1","type":"uint112","indexed":false,"internalType":"uint112"}],"anonymous":false},{"type":"event","name":"Transfer","inputs":[{"name":"from","type":"address","indexed":true,"internalType":"address"},{"name":"to","type":"address","indexed":true,"internalType":"address"},{"name":"value","type":"uint256","indexed":false,"internalType":"uint256"}],"anonymous":false},{"type":"error","name":"InsufficientAllowance","inputs":[{"name":"spender","type":"address","internalType":"address"},{"name":"currentAllowance","type":"uint256","internalType":"uint256"},{"name":"value","type":"uint256","internalType":"uint256"}]},{"type":"error","name":"InsufficientBalance","inputs":[{"name":"from","type":"address","internalType":"address"},{"name":"fromBalance","type":"uint256","internalType":"uint256"},{"name":"value","type":"uint256","internalType":"uint256"}]},{"type":"error","name":"InvalidApprover","inputs":[{"name":"approver","type":"address","internalType":"address"}]},{"type":"error","name":"InvalidReceiver","inputs":[{"name":"receiver","type":"address","internalType":"address"}]},{"type":"error","name":"InvalidSender","inputs":[{"name":"sender","type":"address","internalType":"address"}]},{"type":"error","name":"InvalidSpender","inputs":[{"name":"spender","type":"address","internalType":"address"}]}],"bytecode":{"object":"0x60a0806040523462000108576020816200001b6009936200010d565b8281520168416f6943727970746f60b81b8152206001602060405162000041816200010d565b82815201603160f81b815220906040519160208301917f8b73c3c69bb8fe3d512ecc4cf759cc79239f7b179b0ffacaa9a75d522b39400f8352604084015260608301524660808301523060a083015260a0825260c082019180831060018060401b03841117620000f2576040839052519020608052600b805460ff19166001179055600480546001600160a01b0319163317905561209290816200012a823960805181818161041a0152610fd20152f35b634e487b7160e01b600052604160045260246000fd5b600080fd5b604081019081106001600160401b03821117620000f25760405256fe6080604052600436101561001257600080fd5b6000803560e01c8063022c0d9f146111c457806306fdde031461074d5780630902f1ac1461116b578063095ea7b3146111445780630dfe16811461111b57806318160ddd146110fe57806323b872dd1461104c5780632e0f262514610ff557806330adf81f14611011578063313ce56714610ff55780633644e51514610fba578063485cc95514610f1e5780635909c0d514610f005780635a3d549314610ee25780636a62784214610bff57806370a0823114610bc65780637464fc3d14610ba85780637ecebe0014610b6f57806389afcb441461076957806395d89b41146102a8578063a3f4df7e1461074d578063a9059cbb1461071b578063ba9a7a56146106fe578063bc25cf77146105a2578063c45a015514610579578063d21220a714610550578063d505accf14610323578063dd62ed3e146102d4578063f76f8d78146102a85763fff6cae91461016757600080fd5b346102a557806003193601126102a557600b54610189600160ff83161461192a565b60ff19908116600b556005546040516370a0823160e01b808252306004830152909291602091906001600160a01b039083908690602490829085165afa94851561029a57869561026b575b508290600654169160246040518094819382523060048301525afa91821561026057859261022b575b505061022090600193600754916001600160701b03808460701c16931691611b04565b600b541617600b5580f35b90809250813d8311610259575b61024281836118c5565b810103126102545751826102206101fd565b600080fd5b503d610238565b6040513d87823e3d90fd5b9094508281813d8311610293575b61028381836118c5565b81010312610254575193826101d4565b503d610279565b6040513d88823e3d90fd5b80fd5b50346102a557806003193601126102a5576102d06102c461190c565b60405191829182611844565b0390f35b50346102a55760403660031901126102a5576102ee611818565b60406102f861182e565b9260018060a01b03809316815260026020522091166000526020526020604060002054604051908152f35b50346102a55760e03660031901126102a55761033d611818565b61034561182e565b604435906064356084359060ff821680920361054c57428110610512576001600160a01b0385811680885260036020526040882080549194929392919060001982146104fe576001820190556040519260208401917f6e71edae12b1b97f4d1f60370fef10105fa2faae0126114a169c64845d6126c98352866040860152858816606086015288608086015260a085015260c084015260c0835260e083019183831067ffffffffffffffff8411176104e857602093836080938c956040528251902061012261010084019361190160f01b85527f000000000000000000000000000000000000000000000000000000000000000061010282015201526042815261044e8161188d565b519020906040519182528482015260a435604082015260c435606082015282805260015afa15610260578551169081151591826104de575b5050156104995761049692611c1d565b80f35b60405162461bcd60e51b815260206004820152601c60248201527f556e697377617056323a20494e56414c49445f5349474e4154555245000000006044820152606490fd5b1490503880610486565b634e487b7160e01b600052604160045260246000fd5b634e487b7160e01b8a52601160045260248afd5b60405162461bcd60e51b8152602060048201526012602482015271155b9a5cddd85c158c8e881156141254915160721b6044820152606490fd5b8580fd5b50346102a557806003193601126102a5576006546040516001600160a01b039091168152602090f35b50346102a557806003193601126102a5576004546040516001600160a01b039091168152602090f35b50346102a5576020806003193601126106fa576105bd611818565b90600b54906105d1600160ff84161461192a565b60ff19918216600b556005546006546040516370a0823160e01b8082523060048301526001600160a01b03928316949391929091168383602481845afa9283156106ef5788936106be575b5061063f90876106396001600160701b039586600754169061196a565b916119aa565b6040519081523060048201528281602481875afa9283156106b357879361067c575b505093610639610220939260019660075460701c169061196a565b90809692949350813d83116106ac575b61069681836118c5565b8101031261025457935190916106396001610661565b503d61068c565b6040513d89823e3d90fd5b9092508381813d83116106e8575b6106d681836118c5565b8101031261025457519161063f61061c565b503d6106cc565b6040513d8a823e3d90fd5b5080fd5b50346102a557806003193601126102a55760206040516103e88152f35b50346102a55760403660031901126102a557610742610738611818565b6024359033611c74565b602060405160018152f35b50346102a557806003193601126102a5576102d06102c46118e7565b50346102a55760203660031901126102a557610783611818565b600b54610795600160ff83161461192a565b60ff1916600b556107bb6007546001600160701b0391828216928260701c169160e01c90565b506005546006546040516370a0823160e01b81523060048201526001600160a01b039182169694959190921693909290602083602481885afa928315610b62578193610b2e575b506040516370a0823160e01b815230600482015296602088602481845afa958615610b23578798839897610aec575b50308352600160205261086d6108616108616108666108558860408920549c611d42565b9887549384918d611977565b61198a565b9a8a611977565b9688151580610ae3575b15610a8d5730610a3257602492916000826108956020948354611af7565b82555b80825403825560405190815260008051602061203d833981519152843092a36108c28a89836119aa565b6108cd8989856119aa565b6040516370a0823160e01b815230600482015293849182905afa918215610a275783926109f2575b506020602491604051928380926370a0823160e01b82523060048301525afa9283156109e657926109ab575b50966109309291604098611b04565b610988575b83519083825282602083015260018060a01b0316907fdccd412f0b1252819cb1fd330b93224ca42612892bb3f4f789976e6d81936496853392a3600160ff19600b541617600b5582519182526020820152f35b6109a36007546001600160701b03808260701c169116611977565b600a55610935565b929150966020833d6020116109de575b816109c8602093836118c5565b8101031261025457915191969091906040610921565b3d91506109bb565b604051903d90823e3d90fd5b9091506020813d602011610a1f575b81610a0e602093836118c5565b8101031261025457519060206108f5565b3d9150610a01565b6040513d85823e3d90fd5b306000526001602052604060002054818110610a6557916000826020936024969530845260018652036040832055610898565b60405163db42144d60e01b815230600482015260248101919091526044810191909152606490fd5b60405162461bcd60e51b815260206004820152602860248201527f416f6943727970746f3a20494e53554646494349454e545f4c495155494449546044820152671657d0955493915160c21b6064820152608490fd5b50871515610877565b965096506020863d602011610b1b575b81610b09602093836118c5565b81010312610254578795519638610831565b3d9150610afc565b6040513d84823e3d90fd5b9092506020813d602011610b5a575b81610b4a602093836118c5565b8101031261025457519138610802565b3d9150610b3d565b50604051903d90823e3d90fd5b50346102a55760203660031901126102a5576020906040906001600160a01b03610b97611818565b168152600383522054604051908152f35b50346102a557806003193601126102a5576020600a54604051908152f35b50346102a55760203660031901126102a5576020906040906001600160a01b03610bee611818565b168152600183522054604051908152f35b50346102a5576020806003193601126106fa57610c1a611818565b600b54610c2c600160ff83161461192a565b60ff19809116600b55610c546007546001600160701b0391828216928260701c169160e01c90565b506005546040516370a0823160e01b80825230600483015292979093916001600160a01b039088908690602490829085165afa948515610b23579088918396610eb1575b50600654169360246040518096819382523060048301525afa928315610b62578193610e82575b506001600160701b039182811693610cd7858761196a565b95848b1693610ce6858461196a565b96610cf18d86611d42565b958254918a8315600014610e5557610d169350610d1192508a9150611977565b611e79565b6103e719810191908211610e415750986000546103e89081810110610e2b57600060008051602061203d8339815191528d8293604051908152a35b8915610dd55791610d719391610d6c8b60019c9d9e95611fe6565b611b04565b610db7575b50604051918252858201527f4c209b5fc8ad50758f13e2e1088ba56a560dff690a1c6fef26394f4c03821c4f60403392a2600b541617600b55604051908152f35b610dcc9060075490808260701c169116611977565b600a5538610d76565b60405162461bcd60e51b8152600481018c9052602860248201527f416f6943727970746f3a20494e53554646494349454e545f4c495155494449546044820152671657d3525395115160c21b6064820152608490fd5b634e487b7160e01b600052601160045260246000fd5b634e487b7160e01b81526011600452602490fd5b83945061086191610861610e7395610e6c93611977565b938a611977565b90818082109118021898610d51565b9092508681813d8311610eaa575b610e9a81836118c5565b8101031261025457519138610cbf565b503d610e90565b8281939297503d8311610edb575b610ec981836118c5565b81010312610254578790519438610c98565b503d610ebf565b50346102a557806003193601126102a5576020600954604051908152f35b50346102a557806003193601126102a5576020600854604051908152f35b50346102a55760403660031901126102a557610f38611818565b610f4061182e565b6004546001600160a01b03919082163303610f7e57816bffffffffffffffffffffffff60a01b93168360055416176005551690600654161760065580f35b60405162461bcd60e51b815260206004820152601460248201527320b7b4a1b93cb83a379d102327a92124a22222a760611b6044820152606490fd5b50346102a557806003193601126102a55760206040517f00000000000000000000000000000000000000000000000000000000000000008152f35b50346102a557806003193601126102a557602060405160128152f35b50346102a557806003193601126102a55760206040517f6e71edae12b1b97f4d1f60370fef10105fa2faae0126114a169c64845d6126c98152f35b50346102a55760603660031901126102a557611066611818565b61106e61182e565b60443591604060018060a01b03821694858152600260205220336000526020526040600020549360001985036110aa575b506107429350611c74565b8385106110d8576107429484916000526002602052604060002033600052602052036040600020553861109f565b604051630c95cf2760e11b81523360048201526024810186905260448101859052606490fd5b50346102a557806003193601126102a55760209054604051908152f35b50346102a557806003193601126102a5576005546040516001600160a01b039091168152602090f35b50346102a55760403660031901126102a557610742611161611818565b6024359033611c1d565b50346102a557806003193601126102a557606063ffffffff6111a26007546001600160701b0391828216928260701c169160e01c90565b909291604051936001600160701b038092168552166020840152166040820152f35b50346102a55760803660031901126102a5576044356001600160a01b03811690036102a55767ffffffffffffffff606435116102a5573660236064350112156102a55767ffffffffffffffff60643560040135116102a557366024606435600401356064350101116102a557600b54611242600160ff83161461192a565b60ff1916600b5560043515801590819061180d575b156117ba5761127b6007546001600160701b0391828216928260701c169160e01c90565b506001600160701b038293921660043510806117a6575b15611757576005546006546001600160a01b039081169391811691906044351682141580611742575b15611705576116f1575b6024356116dd575b60643560040135611609575b906020602492604051938480926370a0823160e01b82523060048301525afa9182156102605785926115d2575b506020602493604051948580926370a0823160e01b82523060048301525afa92831561026057859361159e575b506113496004356001600160701b03861661196a565b8211156115975761136e6113686004356001600160701b03871661196a565b8361196a565b935b6113856024356001600160701b03841661196a565b841115611590576113aa6113a46024356001600160701b03851661196a565b8561196a565b935b8515158615611587575b1561153657836103e88102046103e8148415171561152257600386028681046003148715171561150e576113ee906103e8860261196a565b6103e882028281046103e814831517156114fa576003870290878204600314881517156104fe5761142992916114239161196a565b90611977565b6114456001600160701b0385166001600160701b038516611977565b90620f4240918281029281840414901517156114fa57106114c65761146993611b04565b60405191825260208201526004356040820152602435606082015260018060a01b0360443516907fd78ad95fa46c994b6551d0da85fc275fe613ce37657fb8d5e3d130840159d82260803392a3600160ff19600b541617600b5580f35b60405162461bcd60e51b815260206004820152600c60248201526b416f6943727970746f3a204b60a01b6044820152606490fd5b634e487b7160e01b89526011600452602489fd5b634e487b7160e01b88526011600452602488fd5b634e487b7160e01b87526011600452602487fd5b60405162461bcd60e51b8152602060048201526024808201527f416f6943727970746f3a20494e53554646494349454e545f494e5055545f414d60448201526313d5539560e21b6064820152608490fd5b508415156113b6565b85936113ac565b8493611370565b9092506020813d6020116115ca575b816115ba602093836118c5565b8101031261025457519138611333565b3d91506115ad565b9291506020833d602011611601575b816115ee602093836118c5565b8101031261025457915190916020611306565b3d91506115e1565b6044356001600160a01b03163b156116d95760405163be0f610160e01b815233600482015260043560248201526024356044820152608060648201526064356004013560848201526064356004013560246064350160a483013760a460643560040135828101820188905287918391601f19601f9091011682018290030181836001600160a01b03604435165af1801561029a576116a8575b506112d9565b67ffffffffffffffff81969296116116c5576040529360206116a2565b634e487b7160e01b82526041600452602482fd5b8480fd5b6116ec602435604435856119aa565b6112cd565b611700600435604435836119aa565b6112c5565b60405162461bcd60e51b8152602060048201526015602482015274416f6943727970746f3a20494e56414c49445f544f60581b6044820152606490fd5b506044356001600160a01b03168414156112bb565b60405162461bcd60e51b815260206004820152602160248201527f416f6943727970746f3a20494e53554646494349454e545f4c495155494449546044820152605960f81b6064820152608490fd5b506001600160701b03811660243510611292565b60405162461bcd60e51b815260206004820152602560248201527f416f6943727970746f3a20494e53554646494349454e545f4f55545055545f416044820152641353d5539560da1b6064820152608490fd5b506024351515611257565b600435906001600160a01b038216820361025457565b602435906001600160a01b038216820361025457565b6020808252825181830181905290939260005b82811061187957505060409293506000838284010152601f8019910116010190565b818101860151848201604001528501611857565b6080810190811067ffffffffffffffff8211176104e857604052565b6040810190811067ffffffffffffffff8211176104e857604052565b90601f8019910116810190811067ffffffffffffffff8211176104e857604052565b604051906118f4826118a9565b6009825268416f6943727970746f60b81b6020830152565b60405190611919826118a9565b6002825261414360f01b6020830152565b1561193157565b60405162461bcd60e51b8152602060048201526011602482015270105bda50dc9e5c1d1bce881313d0d2d151607a1b6044820152606490fd5b91908203918211610e2b57565b81810292918115918404141715610e2b57565b8115611994570490565b634e487b7160e01b600052601260045260246000fd5b90604051926119b8846118a9565b601984527f7472616e7366657228616464726573732c75696e74323536290000000000000060209485015260405163a9059cbb60e01b8186019081526001600160a01b039093166024820152604480820192909252908152611a198161188d565b600092839283809351925af1903d15611af0573d67ffffffffffffffff81116116c55760405190611a53601f8201601f19168601836118c5565b81523d828583013e5b82611ab0575b505015611a6c5750565b6064906040519062461bcd60e51b82526004820152601a60248201527f416f6943727970746f3a205452414e534645525f4641494c45440000000000006044820152fd5b8051925082159190848315611acc575b50505090503880611a62565b9193818094500103126106fa578201519081151582036102a5575080388084611ac0565b6060611a5c565b91908201809211610e2b57565b92919263ffffffff9360075460e01c8542160393858511610e2b577f1c411e9a96e071241c2f21f7726b17ae89e3cab4c78be50e062b03a9fffbbad1956040951680151580611c0b575b80611bf9575b611ba0575b505050607091821b600160701b600160e01b03166001600160701b039182169081174260e01b6001600160e01b031916176007819055845191825290921c166020820152a1565b611bee92611be6926001600160e01b0391611bd09190611bcb90611bde611bd6878787858789611f99565b611fc8565b16611977565b600854611af7565b600855611f99565b600954611af7565b600955388080611b59565b506001600160701b0382161515611b54565b506001600160701b0383161515611b4e565b909160207f8c5be1e5ebec7d5bd14f71427d1e84f3dd0314c0f7b2291e5b200ac8c7c3b9259160018060a01b03809416938460005260028352604060002095169485600052825280604060002055604051908152a3565b916001600160a01b03808416928315611d295716928315611d10576000908382526001602052604082205490838210611cde5750916040828260008051602061203d83398151915295876020965260018652038282205586815220818154019055604051908152a3565b60405163db42144d60e01b81526001600160a01b03919091166004820152602481019190915260448101839052606490fd5b604051639cfea58360e01b815260006004820152602490fd5b6040516313053d9360e21b815260006004820152602490fd5b60048054604051622fcfcb60e31b815293949392916001600160a01b03916020918591829085165afa928315611e6d57600093611e2e575b508216151593600a549185600014611e1d5782611d98575b50505050565b610d11611db591611dbb936001600160701b038091169116611977565b91611e79565b90818111611dca575b80611d92565b611dda600054611423848461196a565b90600581029080820460051490151715610e2b57611e0192611dfb91611af7565b9061198a565b80611e0d575b80611dc4565b611e1691611fe6565b3880611e07565b50509050611e2757565b6000600a55565b6020939193813d602011611e65575b81611e4a602093836118c5565b810103126106fa57519083821682036102a557509138611d7a565b3d9150611e3d565b6040513d6000823e3d90fd5b600180821115611f9557611f36908083600160801b811015611f83575b80600160401b6004921015611f76575b640100000000811015611f69575b62010000811015611f5c575b610100811015611f50575b6010811015611f44575b1015611f3d575b600302811c611eeb818561198a565b01811c611ef8818561198a565b01811c611f05818561198a565b01811c611f12818561198a565b01811c611f1f818561198a565b01811c611f2c818561198a565b01901c809261198a565b8111900390565b811b611edc565b811c9160021b91611ed5565b60081c91811b91611ecb565b60101c9160081b91611ec0565b60201c9160101b91611eb4565b60401c9160201b91611ea6565b50600160401b9050608084901c611e96565b5090565b600160701b600160e01b03607082901b16906001600160701b0316808204600160701b1490151715610e2b5790565b906001600160701b0316908115611994576001600160e01b03160490565b60008051602061203d8339815191526020600092612005858554611af7565b84556001600160a01b03169384612026578084540384555b604051908152a3565b848452600182526040842081815401905561201d56feddf252ad1be2c89b69c2b068fc378daa952ba7f163c4a11628f55a4df523b3efa2646970667358221220769c7335584a141757f3015e66a1a56486c58ad358e0ff654d94892560ec34ef64736f6c63430008180033","linkReferences":{}},"methodIdentifiers":{"DECIMALS()":"2e0f2625","DOMAIN_SEPARATOR()":"3644e515","MINIMUM_LIQUIDITY()":"ba9a7a56","NAME()":"a3f4df7e","PERMIT_TYPEHASH()":"30adf81f","SYMBOL()":"f76f8d78","allowance(address,address)":"dd62ed3e","approve(address,uint256)":"095ea7b3","balanceOf(address)":"70a08231","burn(address)":"89afcb44","decimals()":"313ce567","factory()":"c45a0155","getReserves()":"0902f1ac","initialize(address,address)":"485cc955","kLast()":"7464fc3d","mint(address)":"6a627842","name()":"06fdde03","nonces(address)":"7ecebe00","permit(address,address,uint256,uint256,uint8,bytes32,bytes32)":"d505accf","price0CumulativeLast()":"5909c0d5","price1CumulativeLast()":"5a3d5493","skim(address)":"bc25cf77","swap(uint256,uint256,address,bytes)":"022c0d9f","symbol()":"95d89b41","sync()":"fff6cae9","token0()":"0dfe1681","token1()":"d21220a7","totalSupply()":"18160ddd","transfer(address,uint256)":"a9059cbb","transferFrom(address,address,uint256)":"23b872dd"},"id":46}