{"abi":[{"type":"constructor","inputs":[{"name":"_factory","type":"address","internalType":"address"},{"name":"_WETH","type":"address","internalType":"address"}],"stateMutability":"nonpayable"},{"type":"receive","stateMutability":"payable"},{"type":"function","name":"WETH","inputs":[],"outputs":[{"name":"","type":"address","internalType":"address"}],"stateMutability":"view"},{"type":"function","name":"addLiquidity","inputs":[{"name":"tokenA","type":"address","internalType":"address"},{"name":"tokenB","type":"address","internalType":"address"},{"name":"amountADesired","type":"uint256","internalType":"uint256"},{"name":"amountBDesired","type":"uint256","internalType":"uint256"},{"name":"amountAMin","type":"uint256","internalType":"uint256"},{"name":"amountBMin","type":"uint256","internalType":"uint256"},{"name":"to","type":"address","internalType":"address"},{"name":"deadline","type":"uint256","internalType":"uint256"}],"outputs":[{"name":"amountA","type":"uint256","internalType":"uint256"},{"name":"amountB","type":"uint256","internalType":"uint256"},{"name":"liquidity","type":"uint256","internalType":"uint256"}],"stateMutability":"nonpayable"},{"type":"function","name":"addLiquidityETH","inputs":[{"name":"token","type":"address","internalType":"address"},{"name":"amountTokenDesired","type":"uint256","internalType":"uint256"},{"name":"amountTokenMin","type":"uint256","internalType":"uint256"},{"name":"amountETHMin","type":"uint256","internalType":"uint256"},{"name":"to","type":"address","internalType":"address"},{"name":"deadline","type":"uint256","internalType":"uint256"}],"outputs":[{"name":"amountToken","type":"uint256","internalType":"uint256"},{"name":"amountETH","type":"uint256","internalType":"uint256"},{"name":"liquidity","type":"uint256","internalType":"uint256"}],"stateMutability":"payable"},{"type":"function","name":"factory","inputs":[],"outputs":[{"name":"","type":"address","internalType":"address"}],"stateMutability":"view"},{"type":"function","name":"getAmountIn","inputs":[{"name":"amountOut","type":"uint256","internalType":"uint256"},{"name":"reserveIn","type":"uint256","internalType":"uint256"},{"name":"reserveOut","type":"uint256","internalType":"uint256"}],"outputs":[{"name":"amountIn","type":"uint256","internalType":"uint256"}],"stateMutability":"pure"},{"type":"function","name":"getAmountOut","inputs":[{"name":"amountIn","type":"uint256","internalType":"uint256"},{"name":"reserveIn","type":"uint256","internalType":"uint256"},{"name":"reserveOut","type":"uint256","internalType":"uint256"}],"outputs":[{"name":"amountOut","type":"uint256","internalType":"uint256"}],"stateMutability":"pure"},{"type":"function","name":"getAmountsIn","inputs":[{"name":"amountOut","type":"uint256","internalType":"uint256"},{"name":"path","type":"address[]","internalType":"address[]"}],"outputs":[{"name":"amounts","type":"uint256[]","internalType":"uint256[]"}],"stateMutability":"view"},{"type":"function","name":"getAmountsOut","inputs":[{"name":"amountIn","type":"uint256","internalType":"uint256"},{"name":"path","type":"address[]","internalType":"address[]"}],"outputs":[{"name":"amounts","type":"uint256[]","internalType":"uint256[]"}],"stateMutability":"view"},{"type":"function","name":"quote","inputs":[{"name":"amountA","type":"uint256","internalType":"uint256"},{"name":"reserveA","type":"uint256","internalType":"uint256"},{"name":"reserveB","type":"uint256","internalType":"uint256"}],"outputs":[{"name":"amountB","type":"uint256","internalType":"uint256"}],"stateMutability":"pure"},{"type":"function","name":"removeLiquidity","inputs":[{"name":"tokenA","type":"address","internalType":"address"},{"name":"tokenB","type":"address","internalType":"address"},{"name":"liquidity","type":"uint256","internalType":"uint256"},{"name":"amountAMin","type":"uint256","internalType":"uint256"},{"name":"amountBMin","type":"uint256","internalType":"uint256"},{"name":"to","type":"address","internalType":"address"},{"name":"deadline","type":"uint256","internalType":"uint256"}],"outputs":[{"name":"amountA","type":"uint256","internalType":"uint256"},{"name":"amountB","type":"uint256","internalType":"uint256"}],"stateMutability":"nonpayable"},{"type":"function","name":"removeLiquidityETH","inputs":[{"name":"token","type":"address","internalType":"address"},{"name":"liquidity","type":"uint256","internalType":"uint256"},{"name":"amountTokenMin","type":"uint256","internalType":"uint256"},{"name":"amountETHMin","type":"uint256","internalType":"uint256"},{"name":"to","type":"address","internalType":"address"},{"name":"deadline","type":"uint256","internalType":"uint256"}],"outputs":[{"name":"amountToken","type":"uint256","internalType":"uint256"},{"name":"amountETH","type":"uint256","internalType":"uint256"}],"stateMutability":"nonpayable"},{"type":"function","name":"removeLiquidityETHSupportingFeeOnTransferTokens","inputs":[{"name":"token","type":"address","internalType":"address"},{"name":"liquidity","type":"uint256","internalType":"uint256"},{"name":"amountTokenMin","type":"uint256","internalType":"uint256"},{"name":"amountETHMin","type":"uint256","internalType":"uint256"},{"name":"to","type":"address","internalType":"address"},{"name":"deadline","type":"uint256","internalType":"uint256"}],"outputs":[{"name":"amountETH","type":"uint256","internalType":"uint256"}],"stateMutability":"nonpayable"},{"type":"function","name":"removeLiquidityETHWithPermit","inputs":[{"name":"token","type":"address","internalType":"address"},{"name":"liquidity","type":"uint256","internalType":"uint256"},{"name":"amountTokenMin","type":"uint256","internalType":"uint256"},{"name":"amountETHMin","type":"uint256","internalType":"uint256"},{"name":"to","type":"address","internalType":"address"},{"name":"deadline","type":"uint256","internalType":"uint256"},{"name":"approveMax","type":"bool","internalType":"bool"},{"name":"v","type":"uint8","internalType":"uint8"},{"name":"r","type":"bytes32","internalType":"bytes32"},{"name":"s","type":"bytes32","internalType":"bytes32"}],"outputs":[{"name":"amountToken","type":"uint256","internalType":"uint256"},{"name":"amountETH","type":"uint256","internalType":"uint256"}],"stateMutability":"nonpayable"},{"type":"function","name":"removeLiquidityETHWithPermitSupportingFeeOnTransferTokens","inputs":[{"name":"token","type":"address","internalType":"address"},{"name":"liquidity","type":"uint256","internalType":"uint256"},{"name":"amountTokenMin","type":"uint256","internalType":"uint256"},{"name":"amountETHMin","type":"uint256","internalType":"uint256"},{"name":"to","type":"address","internalType":"address"},{"name":"deadline","type":"uint256","internalType":"uint256"},{"name":"approveMax","type":"bool","internalType":"bool"},{"name":"v","type":"uint8","internalType":"uint8"},{"name":"r","type":"bytes32","internalType":"bytes32"},{"name":"s","type":"bytes32","internalType":"bytes32"}],"outputs":[{"name":"amountETH","type":"uint256","internalType":"uint256"}],"stateMutability":"nonpayable"},{"type":"function","name":"removeLiquidityWithPermit","inputs":[{"name":"tokenA","type":"address","internalType":"address"},{"name":"tokenB","type":"address","internalType":"address"},{"name":"liquidity","type":"uint256","internalType":"uint256"},{"name":"amountAMin","type":"uint256","internalType":"uint256"},{"name":"amountBMin","type":"uint256","internalType":"uint256"},{"name":"to","type":"address","internalType":"address"},{"name":"deadline","type":"uint256","internalType":"uint256"},{"name":"approveMax","type":"bool","internalType":"bool"},{"name":"v","type":"uint8","internalType":"uint8"},{"name":"r","type":"bytes32","internalType":"bytes32"},{"name":"s","type":"bytes32","internalType":"bytes32"}],"outputs":[{"name":"amountA","type":"uint256","internalType":"uint256"},{"name":"amountB","type":"uint256","internalType":"uint256"}],"stateMutability":"nonpayable"},{"type":"function","name":"swapETHForExactTokens","inputs":[{"name":"amountOut","type":"uint256","internalType":"uint256"},{"name":"path","type":"address[]","internalType":"address[]"},{"name":"to","type":"address","internalType":"address"},{"name":"deadline","type":"uint256","internalType":"uint256"}],"outputs":[{"name":"amounts","type":"uint256[]","internalType":"uint256[]"}],"stateMutability":"payable"},{"type":"function","name":"swapExactETHForTokens","inputs":[{"name":"amountOutMin","type":"uint256","internalType":"uint256"},{"name":"path","type":"address[]","internalType":"address[]"},{"name":"to","type":"address","internalType":"address"},{"name":"deadline","type":"uint256","internalType":"uint256"}],"outputs":[{"name":"amounts","type":"uint256[]","internalType":"uint256[]"}],"stateMutability":"payable"},{"type":"function","name":"swapExactETHForTokensSupportingFeeOnTransferTokens","inputs":[{"name":"amountOutMin","type":"uint256","internalType":"uint256"},{"name":"path","type":"address[]","internalType":"address[]"},{"name":"to","type":"address","internalType":"address"},{"name":"deadline","type":"uint256","internalType":"uint256"}],"outputs":[],"stateMutability":"payable"},{"type":"function","name":"swapExactTokensForETH","inputs":[{"name":"amountIn","type":"uint256","internalType":"uint256"},{"name":"amountOutMin","type":"uint256","internalType":"uint256"},{"name":"path","type":"address[]","internalType":"address[]"},{"name":"to","type":"address","internalType":"address"},{"name":"deadline","type":"uint256","internalType":"uint256"}],"outputs":[{"name":"amounts","type":"uint256[]","internalType":"uint256[]"}],"stateMutability":"nonpayable"},{"type":"function","name":"swapExactTokensForETHSupportingFeeOnTransferTokens","inputs":[{"name":"amountIn","type":"uint256","internalType":"uint256"},{"name":"amountOutMin","type":"uint256","internalType":"uint256"},{"name":"path","type":"address[]","internalType":"address[]"},{"name":"to","type":"address","internalType":"address"},{"name":"deadline","type":"uint256","internalType":"uint256"}],"outputs":[],"stateMutability":"nonpayable"},{"type":"function","name":"swapExactTokensForTokens","inputs":[{"name":"amountIn","type":"uint256","internalType":"uint256"},{"name":"amountOutMin","type":"uint256","internalType":"uint256"},{"name":"path","type":"address[]","internalType":"address[]"},{"name":"to","type":"address","internalType":"address"},{"name":"deadline","type":"uint256","internalType":"uint256"}],"outputs":[{"name":"amounts","type":"uint256[]","internalType":"uint256[]"}],"stateMutability":"nonpayable"},{"type":"function","name":"swapExactTokensForTokensSupportingFeeOnTransferTokens","inputs":[{"name":"amountIn","type":"uint256","internalType":"uint256"},{"name":"amountOutMin","type":"uint256","internalType":"uint256"},{"name":"path","type":"address[]","internalType":"address[]"},{"name":"to","type":"address","internalType":"address"},{"name":"deadline","type":"uint256","internalType":"uint256"}],"outputs":[],"stateMutability":"nonpayable"},{"type":"function","name":"swapTokensForExactETH","inputs":[{"name":"amountOut","type":"uint256","internalType":"uint256"},{"name":"amountInMax","type":"uint256","internalType":"uint256"},{"name":"path","type":"address[]","internalType":"address[]"},{"name":"to","type":"address","internalType":"address"},{"name":"deadline","type":"uint256","internalType":"uint256"}],"outputs":[{"name":"amounts","type":"uint256[]","internalType":"uint256[]"}],"stateMutability":"nonpayable"},{"type":"function","name":"swapTokensForExactTokens","inputs":[{"name":"amountOut","type":"uint256","internalType":"uint256"},{"name":"amountInMax","type":"uint256","internalType":"uint256"},{"name":"path","type":"address[]","internalType":"address[]"},{"name":"to","type":"address","internalType":"address"},{"name":"deadline","type":"uint256","internalType":"uint256"}],"outputs":[{"name":"amounts","type":"uint256[]","internalType":"uint256[]"}],"stateMutability":"nonpayable"},{"type":"error","name":"SafeERC20FailedOperation","inputs":[{"name":"token","type":"address","internalType":"address"}]}],"bytecode":{"object":"0x60c0604052348015600f57600080fd5b50604051616635380380616635833981016040819052602c91605d565b6001600160a01b039182166080521660a052608b565b80516001600160a01b0381168114605857600080fd5b919050565b60008060408385031215606f57600080fd5b6076836042565b91506082602084016042565b90509250929050565b60805160a05161640b61022a6000396000818161015f0152818161036d015281816105220152818161057a015281816106360152818161086501528181610bc301528181610cfe015281816110350152818161113d015281816111e80152818161127b01528181611399015281816114270152818161166f01528181611731015281816117c20152818161183f015281816118b301528181611d5701528181611f3201528181611f8801528181611fc50152818161205a01528181612193015281816122a5015261233301526000818161042c015281816106b20152818161075c0152818161094b0152818161098401528181610a7b01528181610b2501528181610c3f01528181610cdc01528181610deb015281816110b5015281816112f601528181611459015281816115a4015281816118e501528181611b0101528181611d0501528181611d3501528181611e5e01528181611f660152818161220e01528181612365015281816129ff01528181612a4f01528181612d0d01528181612eb601528181613215015281816132b7015261332e015261640b6000f3fe60806040526004361061014f5760003560e01c80638803dbee116100b6578063c45a01551161006f578063c45a01551461041a578063d06ca61f1461044e578063ded9382a1461046e578063e8e337001461048e578063f305d719146104c9578063fb3bdb41146104dc57600080fd5b80638803dbee1461033b578063ad5c46481461035b578063ad615dec146103a7578063af2979eb146103c7578063b6f9de95146103e7578063baa2abde146103fa57600080fd5b80634a25d94a116101085780634a25d94a146102885780635b0d5984146102a85780635c11d795146102c8578063791ac947146102e85780637ff36ab51461030857806385f8c2591461031b57600080fd5b806302751cec14610193578063054d50d4146101cd57806318cbafe5146101fb5780631f00ca74146102285780632195995c1461024857806338ed17391461026857600080fd5b3661018e57336001600160a01b037f0000000000000000000000000000000000000000000000000000000000000000161461018c5761018c6135b3565b005b600080fd5b34801561019f57600080fd5b506101b36101ae3660046135f1565b6104ef565b604080519283526020830191909152015b60405180910390f35b3480156101d957600080fd5b506101ed6101e836600461364f565b6105f4565b6040519081526020016101c4565b34801561020757600080fd5b5061021b6102163660046136c0565b610609565b6040516101c49190613733565b34801561023457600080fd5b5061021b61024336600461378c565b610944565b34801561025457600080fd5b506101b3610263366004613887565b61097a565b34801561027457600080fd5b5061021b6102833660046136c0565b610a53565b34801561029457600080fd5b5061021b6102a33660046136c0565b610b96565b3480156102b457600080fd5b506101ed6102c3366004613936565b610cd4565b3480156102d457600080fd5b5061018c6102e33660046136c0565b610dc1565b3480156102f457600080fd5b5061018c6103033660046136c0565b61100a565b61021b6103163660046139cf565b611256565b34801561032757600080fd5b506101ed61033636600461364f565b61156f565b34801561034757600080fd5b5061021b6103563660046136c0565b61157c565b34801561036757600080fd5b5061038f7f000000000000000000000000000000000000000000000000000000000000000081565b6040516001600160a01b0390911681526020016101c4565b3480156103b357600080fd5b506101ed6103c236600461364f565b611639565b3480156103d357600080fd5b506101ed6103e23660046135f1565b611646565b61018c6103f53660046139cf565b61179f565b34801561040657600080fd5b506101b3610415366004613a36565b611ad6565b34801561042657600080fd5b5061038f7f000000000000000000000000000000000000000000000000000000000000000081565b34801561045a57600080fd5b5061021b61046936600461378c565b611cfe565b34801561047a57600080fd5b506101b3610489366004613936565b611d2b565b34801561049a57600080fd5b506104ae6104a9366004613aa9565b611e1e565b604080519384526020840192909252908201526060016101c4565b6104ae6104d73660046135f1565b611f06565b61021b6104ea3660046139cf565b61216e565b600080824281101561051c5760405162461bcd60e51b815260040161051390613b25565b60405180910390fd5b61054b897f00000000000000000000000000000000000000000000000000000000000000008a8a8a308a611ad6565b90935091506105646001600160a01b038a1686856124bd565b604051632e1a7d4d60e01b8152600481018390527f00000000000000000000000000000000000000000000000000000000000000006001600160a01b031690632e1a7d4d90602401600060405180830381600087803b1580156105c657600080fd5b505af11580156105da573d6000803e3d6000fd5b505050506105e88583612521565b50965096945050505050565b60006106018484846125d4565b949350505050565b6060814281101561062c5760405162461bcd60e51b815260040161051390613b25565b6001600160a01b037f0000000000000000000000000000000000000000000000000000000000000000168686610663600182613b67565b81811061067257610672613b7a565b90506020020160208101906106879190613b90565b6001600160a01b0316146106ad5760405162461bcd60e51b815260040161051390613bb4565b61070b7f0000000000000000000000000000000000000000000000000000000000000000898888808060200260200160405190810160405280939291908181526020018383602002808284376000920191909152506126b392505050565b915086826001845161071d9190613b67565b8151811061072d5761072d613b7a565b602002602001015110156107535760405162461bcd60e51b815260040161051390613beb565b610824336107d07f00000000000000000000000000000000000000000000000000000000000000008989600081811061078e5761078e613b7a565b90506020020160208101906107a39190613b90565b8a8a60018181106107b6576107b6613b7a565b90506020020160208101906107cb9190613b90565b612832565b846000815181106107e3576107e3613b7a565b6020026020010151898960008181106107fe576107fe613b7a565b90506020020160208101906108139190613b90565b6001600160a01b03169291906128dd565b6108638287878080602002602001604051908101604052809392919081815260200183836020028082843760009201919091525030925061291c915050565b7f00000000000000000000000000000000000000000000000000000000000000006001600160a01b0316632e1a7d4d83600185516108a19190613b67565b815181106108b1576108b1613b7a565b60200260200101516040518263ffffffff1660e01b81526004016108d791815260200190565b600060405180830381600087803b1580156108f157600080fd5b505af1158015610905573d6000803e3d6000fd5b5050505061093984836001855161091c9190613b67565b8151811061092c5761092c613b7a565b6020026020010151612521565b509695505050505050565b60606109717f00000000000000000000000000000000000000000000000000000000000000008484612b17565b90505b92915050565b60008060006109aa7f00000000000000000000000000000000000000000000000000000000000000008f8f612832565b90506000876109b9578c6109bd565b6000195b60405163d505accf60e01b81529091506001600160a01b0383169063d505accf906109f8903390309086908f908e908e908e90600401613c30565b600060405180830381600087803b158015610a1257600080fd5b505af1158015610a26573d6000803e3d6000fd5b50505050610a398f8f8f8f8f8f8f611ad6565b809450819550505050509b509b9950505050505050505050565b60608142811015610a765760405162461bcd60e51b815260040161051390613b25565b610ad47f0000000000000000000000000000000000000000000000000000000000000000898888808060200260200160405190810160405280939291908181526020018383602002808284376000920191909152506126b392505050565b9150868260018451610ae69190613b67565b81518110610af657610af6613b7a565b60200260200101511015610b1c5760405162461bcd60e51b815260040161051390613beb565b610b57336107d07f00000000000000000000000000000000000000000000000000000000000000008989600081811061078e5761078e613b7a565b6109398287878080602002602001604051908101604052809392919081815260200183836020028082843760009201919091525089925061291c915050565b60608142811015610bb95760405162461bcd60e51b815260040161051390613b25565b6001600160a01b037f0000000000000000000000000000000000000000000000000000000000000000168686610bf0600182613b67565b818110610bff57610bff613b7a565b9050602002016020810190610c149190613b90565b6001600160a01b031614610c3a5760405162461bcd60e51b815260040161051390613bb4565b610c987f000000000000000000000000000000000000000000000000000000000000000089888880806020026020016040519081016040528093929190818152602001838360200280828437600092019190915250612b1792505050565b91508682600081518110610cae57610cae613b7a565b602002602001015111156107535760405162461bcd60e51b815260040161051390613c71565b600080610d227f00000000000000000000000000000000000000000000000000000000000000008d7f0000000000000000000000000000000000000000000000000000000000000000612832565b9050600086610d31578b610d35565b6000195b60405163d505accf60e01b81529091506001600160a01b0383169063d505accf90610d70903390309086908e908d908d908d90600401613c30565b600060405180830381600087803b158015610d8a57600080fd5b505af1158015610d9e573d6000803e3d6000fd5b50505050610db08d8d8d8d8d8d611646565b9d9c50505050505050505050505050565b8042811015610de25760405162461bcd60e51b815260040161051390613b25565b610e5933610e457f000000000000000000000000000000000000000000000000000000000000000088886000818110610e1d57610e1d613b7a565b9050602002016020810190610e329190613b90565b898960018181106107b6576107b6613b7a565b89888860008181106107fe576107fe613b7a565b60008585610e68600182613b67565b818110610e7757610e77613b7a565b9050602002016020810190610e8c9190613b90565b6040516370a0823160e01b81526001600160a01b03868116600483015291909116906370a0823190602401602060405180830381865afa158015610ed4573d6000803e3d6000fd5b505050506040513d601f19601f82011682018060405250810190610ef89190613cb2565b9050610f38868680806020026020016040519081016040528093929190818152602001838360200280828437600092019190915250889250612c98915050565b86818787610f47600182613b67565b818110610f5657610f56613b7a565b9050602002016020810190610f6b9190613b90565b6040516370a0823160e01b81526001600160a01b03888116600483015291909116906370a08231906024015b602060405180830381865afa158015610fb4573d6000803e3d6000fd5b505050506040513d601f19601f82011682018060405250810190610fd89190613cb2565b610fe29190613b67565b10156110005760405162461bcd60e51b815260040161051390613beb565b5050505050505050565b804281101561102b5760405162461bcd60e51b815260040161051390613b25565b6001600160a01b037f0000000000000000000000000000000000000000000000000000000000000000168585611062600182613b67565b81811061107157611071613b7a565b90506020020160208101906110869190613b90565b6001600160a01b0316146110ac5760405162461bcd60e51b815260040161051390613bb4565b6110e733610e457f000000000000000000000000000000000000000000000000000000000000000088886000818110610e1d57610e1d613b7a565b611125858580806020026020016040519081016040528093929190818152602001838360200280828437600092019190915250309250612c98915050565b6040516370a0823160e01b81523060048201526000907f00000000000000000000000000000000000000000000000000000000000000006001600160a01b0316906370a0823190602401602060405180830381865afa15801561118c573d6000803e3d6000fd5b505050506040513d601f19601f820116820180604052508101906111b09190613cb2565b9050868110156111d25760405162461bcd60e51b815260040161051390613beb565b604051632e1a7d4d60e01b8152600481018290527f00000000000000000000000000000000000000000000000000000000000000006001600160a01b031690632e1a7d4d90602401600060405180830381600087803b15801561123457600080fd5b505af1158015611248573d6000803e3d6000fd5b505050506110008482612521565b606081428110156112795760405162461bcd60e51b815260040161051390613b25565b7f00000000000000000000000000000000000000000000000000000000000000006001600160a01b0316868660008181106112b6576112b6613b7a565b90506020020160208101906112cb9190613b90565b6001600160a01b0316146112f15760405162461bcd60e51b815260040161051390613bb4565b61134f7f0000000000000000000000000000000000000000000000000000000000000000348888808060200260200160405190810160405280939291908181526020018383602002808284376000920191909152506126b392505050565b91508682600184516113619190613b67565b8151811061137157611371613b7a565b602002602001015110156113975760405162461bcd60e51b815260040161051390613beb565b7f00000000000000000000000000000000000000000000000000000000000000006001600160a01b031663d0e30db0836000815181106113d9576113d9613b7a565b60200260200101516040518263ffffffff1660e01b81526004016000604051808303818588803b15801561140c57600080fd5b505af1158015611420573d6000803e3d6000fd5b50505050507f00000000000000000000000000000000000000000000000000000000000000006001600160a01b031663a9059cbb61148b7f00000000000000000000000000000000000000000000000000000000000000008989600081811061078e5761078e613b7a565b8460008151811061149e5761149e613b7a565b60200260200101516040518363ffffffff1660e01b81526004016114d79291906001600160a01b03929092168252602082015260400190565b6020604051808303816000875af11580156114f6573d6000803e3d6000fd5b505050506040513d601f19601f8201168201806040525081019061151a9190613ccb565b611526576115266135b3565b6115658287878080602002602001604051908101604052809392919081815260200183836020028082843760009201919091525089925061291c915050565b5095945050505050565b6000610601848484612f6b565b6060814281101561159f5760405162461bcd60e51b815260040161051390613b25565b6115fd7f000000000000000000000000000000000000000000000000000000000000000089888880806020026020016040519081016040528093929190818152602001838360200280828437600092019190915250612b1792505050565b9150868260008151811061161357611613613b7a565b60200260200101511115610b1c5760405162461bcd60e51b815260040161051390613c71565b6000610601848484613050565b600081428110156116695760405162461bcd60e51b815260040161051390613b25565b611698887f00000000000000000000000000000000000000000000000000000000000000008989893089611ad6565b6040516370a0823160e01b815230600482015290935061171b915085906001600160a01b038b16906370a0823190602401602060405180830381865afa1580156116e6573d6000803e3d6000fd5b505050506040513d601f19601f8201168201806040525081019061170a9190613cb2565b6001600160a01b038b1691906124bd565b604051632e1a7d4d60e01b8152600481018390527f00000000000000000000000000000000000000000000000000000000000000006001600160a01b031690632e1a7d4d90602401600060405180830381600087803b15801561177d57600080fd5b505af1158015611791573d6000803e3d6000fd5b505050506109398483612521565b80428110156117c05760405162461bcd60e51b815260040161051390613b25565b7f00000000000000000000000000000000000000000000000000000000000000006001600160a01b0316858560008181106117fd576117fd613b7a565b90506020020160208101906118129190613b90565b6001600160a01b0316146118385760405162461bcd60e51b815260040161051390613bb4565b60003490507f00000000000000000000000000000000000000000000000000000000000000006001600160a01b031663d0e30db0826040518263ffffffff1660e01b81526004016000604051808303818588803b15801561189857600080fd5b505af11580156118ac573d6000803e3d6000fd5b50505050507f00000000000000000000000000000000000000000000000000000000000000006001600160a01b031663a9059cbb6119177f00000000000000000000000000000000000000000000000000000000000000008989600081811061078e5761078e613b7a565b6040516001600160e01b031960e084901b1681526001600160a01b039091166004820152602481018490526044016020604051808303816000875af1158015611964573d6000803e3d6000fd5b505050506040513d601f19601f820116820180604052508101906119889190613ccb565b611994576119946135b3565b600086866119a3600182613b67565b8181106119b2576119b2613b7a565b90506020020160208101906119c79190613b90565b6040516370a0823160e01b81526001600160a01b03878116600483015291909116906370a0823190602401602060405180830381865afa158015611a0f573d6000803e3d6000fd5b505050506040513d601f19601f82011682018060405250810190611a339190613cb2565b9050611a73878780806020026020016040519081016040528093929190818152602001838360200280828437600092019190915250899250612c98915050565b87818888611a82600182613b67565b818110611a9157611a91613b7a565b9050602002016020810190611aa69190613b90565b6040516370a0823160e01b81526001600160a01b03898116600483015291909116906370a0823190602401610f97565b6000808242811015611afa5760405162461bcd60e51b815260040161051390613b25565b6000611b277f00000000000000000000000000000000000000000000000000000000000000008c8c612832565b6040516323b872dd60e01b81523360048201526001600160a01b03821660248201819052604482018c90529192506323b872dd906064016020604051808303816000875af1158015611b7d573d6000803e3d6000fd5b505050506040513d601f19601f82011682018060405250810190611ba19190613ccb565b5060405163226bf2d160e21b81526001600160a01b03878116600483015260009182918416906389afcb449060240160408051808303816000875af1158015611bee573d6000803e3d6000fd5b505050506040513d601f19601f82011682018060405250810190611c129190613ce8565b915091506000611c228e8e6130f0565b509050806001600160a01b03168e6001600160a01b031614611c45578183611c48565b82825b90975095508a871015611c9d5760405162461bcd60e51b815260206004820181905260248201527f416f69526f757465723a20494e53554646494349454e545f415f414d4f554e546044820152606401610513565b89861015611ced5760405162461bcd60e51b815260206004820181905260248201527f416f69526f757465723a20494e53554646494349454e545f425f414d4f554e546044820152606401610513565b505050505097509795505050505050565b60606109717f000000000000000000000000000000000000000000000000000000000000000084846126b3565b6000806000611d7b7f00000000000000000000000000000000000000000000000000000000000000008e7f0000000000000000000000000000000000000000000000000000000000000000612832565b9050600087611d8a578c611d8e565b6000195b60405163d505accf60e01b81529091506001600160a01b0383169063d505accf90611dc9903390309086908f908e908e908e90600401613c30565b600060405180830381600087803b158015611de357600080fd5b505af1158015611df7573d6000803e3d6000fd5b50505050611e098e8e8e8e8e8e6104ef565b909f909e509c50505050505050505050505050565b60008060008342811015611e445760405162461bcd60e51b815260040161051390613b25565b611e528c8c8c8c8c8c6131e7565b90945092506000611e847f00000000000000000000000000000000000000000000000000000000000000008e8e612832565b6040516335313c2160e11b81526001600160a01b03898116600483015291925090821690636a627842906024016020604051808303816000875af1158015611ed0573d6000803e3d6000fd5b505050506040513d601f19601f82011682018060405250810190611ef49190613cb2565b92505050985098509895505050505050565b60008060008342811015611f2c5760405162461bcd60e51b815260040161051390613b25565b611f5a8a7f00000000000000000000000000000000000000000000000000000000000000008b348c8c6131e7565b90945092506000611fac7f00000000000000000000000000000000000000000000000000000000000000008c7f0000000000000000000000000000000000000000000000000000000000000000612832565b9050611fc36001600160a01b038c163383886128dd565b7f00000000000000000000000000000000000000000000000000000000000000006001600160a01b031663d0e30db0856040518263ffffffff1660e01b81526004016000604051808303818588803b15801561201e57600080fd5b505af1158015612032573d6000803e3d6000fd5b505060405163a9059cbb60e01b81526001600160a01b038581166004830152602482018990527f000000000000000000000000000000000000000000000000000000000000000016935063a9059cbb925060440190506020604051808303816000875af11580156120a7573d6000803e3d6000fd5b505050506040513d601f19601f820116820180604052508101906120cb9190613ccb565b6120d7576120d76135b3565b6040516335313c2160e11b81526001600160a01b038881166004830152821690636a627842906024016020604051808303816000875af115801561211f573d6000803e3d6000fd5b505050506040513d601f19601f820116820180604052508101906121439190613cb2565b925083341115612160576121603361215b8634613b67565b612521565b505096509650969350505050565b606081428110156121915760405162461bcd60e51b815260040161051390613b25565b7f00000000000000000000000000000000000000000000000000000000000000006001600160a01b0316868660008181106121ce576121ce613b7a565b90506020020160208101906121e39190613b90565b6001600160a01b0316146122095760405162461bcd60e51b815260040161051390613bb4565b6122677f000000000000000000000000000000000000000000000000000000000000000088888880806020026020016040519081016040528093929190818152602001838360200280828437600092019190915250612b1792505050565b9150348260008151811061227d5761227d613b7a565b602002602001015111156122a35760405162461bcd60e51b815260040161051390613c71565b7f00000000000000000000000000000000000000000000000000000000000000006001600160a01b031663d0e30db0836000815181106122e5576122e5613b7a565b60200260200101516040518263ffffffff1660e01b81526004016000604051808303818588803b15801561231857600080fd5b505af115801561232c573d6000803e3d6000fd5b50505050507f00000000000000000000000000000000000000000000000000000000000000006001600160a01b031663a9059cbb6123977f00000000000000000000000000000000000000000000000000000000000000008989600081811061078e5761078e613b7a565b846000815181106123aa576123aa613b7a565b60200260200101516040518363ffffffff1660e01b81526004016123e39291906001600160a01b03929092168252602082015260400190565b6020604051808303816000875af1158015612402573d6000803e3d6000fd5b505050506040513d601f19601f820116820180604052508101906124269190613ccb565b612432576124326135b3565b6124718287878080602002602001604051908101604052809392919081815260200183836020028082843760009201919091525089925061291c915050565b8160008151811061248457612484613b7a565b60200260200101513411156115655761156533836000815181106124aa576124aa613b7a565b60200260200101513461215b9190613b67565b6040516001600160a01b0383811660248301526044820183905261251c91859182169063a9059cbb906064015b604051602081830303815290604052915060e01b6020820180516001600160e01b03838183161783525050505061346b565b505050565b604080516000808252602082019092526001600160a01b03841690839060405161254b9190613d30565b60006040518083038185875af1925050503d8060008114612588576040519150601f19603f3d011682016040523d82523d6000602084013e61258d565b606091505b505090508061251c5760405162461bcd60e51b8152602060048201526013602482015272115512081d1c985b9cd9995c8819985a5b1959606a1b6044820152606401610513565b60008084116126395760405162461bcd60e51b815260206004820152602b60248201527f416f6943727970746f4c6962726172793a20494e53554646494349454e545f4960448201526a1394155517d05353d5539560aa1b6064820152608401610513565b6000831180156126495750600082115b6126655760405162461bcd60e51b815260040161051390613d4c565b6000612673856103e5613d94565b905060006126818483613d94565b9050600082612692876103e8613d94565b61269c9190613dab565b90506126a88183613dbe565b979650505050505050565b60606002825110156127075760405162461bcd60e51b815260206004820152601e60248201527f416f6943727970746f4c6962726172793a20494e56414c49445f5041544800006044820152606401610513565b815167ffffffffffffffff81111561272157612721613776565b60405190808252806020026020018201604052801561274a578160200160208202803683370190505b509050828160008151811061276157612761613b7a565b60200260200101818152505060005b6001835161277e9190613b67565b81101561282a576000806127d18786858151811061279e5761279e613b7a565b6020026020010151878660016127b49190613dab565b815181106127c4576127c4613b7a565b60200260200101516134dc565b915091506127f98484815181106127ea576127ea613b7a565b602002602001015183836125d4565b84612805856001613dab565b8151811061281557612815613b7a565b60209081029190910101525050600101612770565b509392505050565b600080600061284185856130f0565b6040516bffffffffffffffffffffffff19606084811b8216602084015283901b166034820152919350915086906048016040516020818303038152906040528051906020012060405180602001612897906135a6565b601f1982820381018352601f9091011660408190526128bb93929190602001613de0565b60408051601f1981840301815291905280516020909101209695505050505050565b6040516001600160a01b0384811660248301528381166044830152606482018390526129169186918216906323b872dd906084016124ea565b50505050565b60005b6001835161292d9190613b67565b8110156129165760008084838151811061294957612949613b7a565b60200260200101518584600161295f9190613dab565b8151811061296f5761296f613b7a565b602002602001015191509150600061298783836130f0565b509050600087612998866001613dab565b815181106129a8576129a8613b7a565b60200260200101519050600080836001600160a01b0316866001600160a01b0316146129d6578260006129da565b6000835b91509150600060028a516129ee9190613b67565b88106129fa5788612a48565b612a487f0000000000000000000000000000000000000000000000000000000000000000878c612a2b8c6002613dab565b81518110612a3b57612a3b613b7a565b6020026020010151612832565b9050612a757f00000000000000000000000000000000000000000000000000000000000000008888612832565b6001600160a01b031663022c0d9f84848460006040519080825280601f01601f191660200182016040528015612ab2576020820181803683370190505b506040518563ffffffff1660e01b8152600401612ad29493929190613e29565b600060405180830381600087803b158015612aec57600080fd5b505af1158015612b00573d6000803e3d6000fd5b50506001909901985061291f975050505050505050565b6060600282511015612b6b5760405162461bcd60e51b815260206004820152601e60248201527f416f6943727970746f4c6962726172793a20494e56414c49445f5041544800006044820152606401610513565b815167ffffffffffffffff811115612b8557612b85613776565b604051908082528060200260200182016040528015612bae578160200160208202803683370190505b509050828160018351612bc19190613b67565b81518110612bd157612bd1613b7a565b602002602001018181525050600060018351612bed9190613b67565b90505b801561282a57600080612c338786612c09600187613b67565b81518110612c1957612c19613b7a565b60200260200101518786815181106127c4576127c4613b7a565b91509150612c5b848481518110612c4c57612c4c613b7a565b60200260200101518383612f6b565b84612c67600186613b67565b81518110612c7757612c77613b7a565b60200260200101818152505050508080612c9090613e79565b915050612bf0565b60005b60018351612ca99190613b67565b81101561251c57600080848381518110612cc557612cc5613b7a565b602002602001015185846001612cdb9190613dab565b81518110612ceb57612ceb613b7a565b6020026020010151915091506000612d0383836130f0565b5090506000612d337f00000000000000000000000000000000000000000000000000000000000000008585612832565b9050600080600080846001600160a01b0316630902f1ac6040518163ffffffff1660e01b8152600401606060405180830381865afa158015612d79573d6000803e3d6000fd5b505050506040513d601f19601f82011682018060405250810190612d9d9190613ea7565b506001600160701b031691506001600160701b03169150600080876001600160a01b03168a6001600160a01b031614612dd7578284612dda565b83835b6040516370a0823160e01b81526001600160a01b038a8116600483015292945090925083918c16906370a0823190602401602060405180830381865afa158015612e28573d6000803e3d6000fd5b505050506040513d601f19601f82011682018060405250810190612e4c9190613cb2565b612e569190613b67565b9550612e638683836125d4565b945050505050600080856001600160a01b0316886001600160a01b031614612e8d57826000612e91565b6000835b91509150600060028c51612ea59190613b67565b8a10612eb1578a612ee2565b612ee27f0000000000000000000000000000000000000000000000000000000000000000898e612a2b8e6002613dab565b6040805160008152602081019182905263022c0d9f60e01b9091529091506001600160a01b0387169063022c0d9f90612f249086908690869060248101613e29565b600060405180830381600087803b158015612f3e57600080fd5b505af1158015612f52573d6000803e3d6000fd5b50506001909b019a50612c9b9950505050505050505050565b6000808411612fd15760405162461bcd60e51b815260206004820152602c60248201527f416f6943727970746f4c6962726172793a20494e53554646494349454e545f4f60448201526b155514155517d05353d5539560a21b6064820152608401610513565b600083118015612fe15750600082115b612ffd5760405162461bcd60e51b815260040161051390613d4c565b60006130098585613d94565b613015906103e8613d94565b905060006130238685613b67565b61302f906103e5613d94565b905061303b8183613dbe565b613046906001613dab565b9695505050505050565b60008084116130af5760405162461bcd60e51b815260206004820152602560248201527f416f6943727970746f4c6962726172793a20494e53554646494349454e545f416044820152641353d5539560da1b6064820152608401610513565b6000831180156130bf5750600082115b6130db5760405162461bcd60e51b815260040161051390613d4c565b826130e68386613d94565b6106019190613dbe565b600080826001600160a01b0316846001600160a01b0316036131625760405162461bcd60e51b815260206004820152602560248201527f416f6943727970746f4c6962726172793a204944454e544943414c5f41444452604482015264455353455360d81b6064820152608401610513565b826001600160a01b0316846001600160a01b031610613182578284613185565b83835b90925090506001600160a01b0382166131e05760405162461bcd60e51b815260206004820152601e60248201527f416f6943727970746f4c6962726172793a205a45524f5f4144445245535300006044820152606401610513565b9250929050565b60405163e6a4390560e01b81526001600160a01b0387811660048301528681166024830152600091829182917f00000000000000000000000000000000000000000000000000000000000000009091169063e6a4390590604401602060405180830381865afa15801561325e573d6000803e3d6000fd5b505050506040513d601f19601f820116820180604052508101906132829190613ef7565b6001600160a01b031603613326576040516364e329cb60e11b81526001600160a01b03898116600483015288811660248301527f0000000000000000000000000000000000000000000000000000000000000000169063c9c65396906044016020604051808303816000875af1158015613300573d6000803e3d6000fd5b505050506040513d601f19601f820116820180604052508101906133249190613ef7565b505b6000806133547f00000000000000000000000000000000000000000000000000000000000000008b8b6134dc565b91509150816000148015613366575080155b156133765787935086925061345e565b6000613383898484613050565b90508781116133e757858110156133dc5760405162461bcd60e51b815260206004820181905260248201527f416f69526f757465723a20494e53554646494349454e545f425f414d4f554e546044820152606401610513565b88945092508261345c565b60006133f4898486613050565b905089811115613406576134066135b3565b878110156134565760405162461bcd60e51b815260206004820181905260248201527f416f69526f757465723a20494e53554646494349454e545f415f414d4f554e546044820152606401610513565b94508793505b505b5050965096945050505050565b600080602060008451602086016000885af18061348e576040513d6000823e3d81fd5b50506000513d915081156134a65780600114156134b3565b6001600160a01b0384163b155b1561291657604051635274afe760e01b81526001600160a01b0385166004820152602401610513565b60008060006134eb85856130f0565b5090506000806134fc888888612832565b6001600160a01b0316630902f1ac6040518163ffffffff1660e01b8152600401606060405180830381865afa158015613539573d6000803e3d6000fd5b505050506040513d601f19601f8201168201806040525081019061355d9190613ea7565b506001600160701b031691506001600160701b03169150826001600160a01b0316876001600160a01b031614613594578082613597565b81815b90999098509650505050505050565b6124c180613f1583390190565b634e487b7160e01b600052600160045260246000fd5b6001600160a01b03811681146135de57600080fd5b50565b80356135ec816135c9565b919050565b60008060008060008060c0878903121561360a57600080fd5b8635613615816135c9565b9550602087013594506040870135935060608701359250608087013561363a816135c9565b9598949750929591949360a090920135925050565b60008060006060848603121561366457600080fd5b505081359360208301359350604090920135919050565b60008083601f84011261368d57600080fd5b50813567ffffffffffffffff8111156136a557600080fd5b6020830191508360208260051b85010111156131e057600080fd5b60008060008060008060a087890312156136d957600080fd5b8635955060208701359450604087013567ffffffffffffffff8111156136fe57600080fd5b61370a89828a0161367b565b909550935050606087013561371e816135c9565b95989497509295919493608090920135925050565b602080825282518282018190526000918401906040840190835b8181101561376b57835183526020938401939092019160010161374d565b509095945050505050565b634e487b7160e01b600052604160045260246000fd5b6000806040838503121561379f57600080fd5b82359150602083013567ffffffffffffffff8111156137bd57600080fd5b8301601f810185136137ce57600080fd5b803567ffffffffffffffff8111156137e8576137e8613776565b8060051b604051601f19603f830116810181811067ffffffffffffffff8211171561381557613815613776565b60405291825260208184018101929081018884111561383357600080fd5b6020850194505b838510156138595761384b856135e1565b81526020948501940161383a565b50809450505050509250929050565b80151581146135de57600080fd5b803560ff811681146135ec57600080fd5b60008060008060008060008060008060006101608c8e0312156138a957600080fd5b8b356138b4816135c9565b9a5060208c01356138c4816135c9565b995060408c0135985060608c0135975060808c0135965060a08c01356138e9816135c9565b955060c08c0135945060e08c013561390081613868565b935061390f6101008d01613876565b9a9d999c50979a969995989497509295919493610120830135935061014090920135919050565b6000806000806000806000806000806101408b8d03121561395657600080fd5b8a35613961816135c9565b995060208b0135985060408b0135975060608b0135965060808b0135613986816135c9565b955060a08b0135945060c08b013561399d81613868565b93506139ab60e08c01613876565b999c989b509699959894979396509194610100810135936101209091013592509050565b6000806000806000608086880312156139e757600080fd5b85359450602086013567ffffffffffffffff811115613a0557600080fd5b613a118882890161367b565b9095509350506040860135613a25816135c9565b949793965091946060013592915050565b600080600080600080600060e0888a031215613a5157600080fd5b8735613a5c816135c9565b96506020880135613a6c816135c9565b955060408801359450606088013593506080880135925060a0880135613a91816135c9565b96999598509396929591949193505060c09091013590565b600080600080600080600080610100898b031215613ac657600080fd5b8835613ad1816135c9565b97506020890135613ae1816135c9565b965060408901359550606089013594506080890135935060a0890135925060c0890135613b0d816135c9565b979a969950949793969295919450919260e001359150565b602080825260129082015271105bda50dc9e5c1d1bce881156141492515160721b604082015260600190565b634e487b7160e01b600052601160045260246000fd5b8181038181111561097457610974613b51565b634e487b7160e01b600052603260045260246000fd5b600060208284031215613ba257600080fd5b8135613bad816135c9565b9392505050565b60208082526017908201527f416f69526f757465723a20494e56414c49445f50415448000000000000000000604082015260600190565b60208082526025908201527f416f69526f757465723a20494e53554646494349454e545f4f55545055545f416040820152641353d5539560da1b606082015260800190565b6001600160a01b0397881681529590961660208601526040850193909352606084019190915260ff16608083015260a082015260c081019190915260e00190565b60208082526021908201527f416f69526f757465723a204558434553534956455f494e5055545f414d4f554e6040820152601560fa1b606082015260800190565b600060208284031215613cc457600080fd5b5051919050565b600060208284031215613cdd57600080fd5b8151613bad81613868565b60008060408385031215613cfb57600080fd5b505080516020909101519092909150565b60005b83811015613d27578181015183820152602001613d0f565b50506000910152565b60008251613d42818460208701613d0c565b9190910192915050565b60208082526028908201527f416f6943727970746f4c6962726172793a20494e53554646494349454e545f4c604082015267495155494449545960c01b606082015260800190565b808202811582820484141761097457610974613b51565b8082018082111561097457610974613b51565b600082613ddb57634e487b7160e01b600052601260045260246000fd5b500490565b60ff60f81b81526bffffffffffffffffffffffff198460601b16600182015282601582015260008251613e1a816035850160208701613d0c565b91909101603501949350505050565b84815283602082015260018060a01b03831660408201526080606082015260008251806080840152613e628160a0850160208701613d0c565b601f01601f19169190910160a00195945050505050565b600081613e8857613e88613b51565b506000190190565b80516001600160701b03811681146135ec57600080fd5b600080600060608486031215613ebc57600080fd5b613ec584613e90565b9250613ed360208501613e90565b9150604084015163ffffffff81168114613eec57600080fd5b809150509250925092565b600060208284031215613f0957600080fd5b8151613bad816135c956fe60a0604052600b805460ff1916600117905534801561001d57600080fd5b506040805180820182526009815268416f6943727970746f60b81b6020918201528151808301835260018152603160f81b9082015281517f8b73c3c69bb8fe3d512ecc4cf759cc79239f7b179b0ffacaa9a75d522b39400f918101919091527f74635fb4b6cbadd76aca6b05ed830afbaf6140ab4db99d239b83a2e75cb28116918101919091527fc89efdaa54c0f20c7adf612882df0950f5a951637e0307cdcb4c672f298b8bc6606082015246608082018190523060a08301529060c00160408051601f19818403018152919052805160209091012060805250600480546001600160a01b0319163317905560805161239561012c6000396000818161031f015261130401526123956000f3fe608060405234801561001057600080fd5b50600436106101da5760003560e01c806370a0823111610104578063ba9a7a56116100a2578063d505accf11610071578063d505accf14610497578063dd62ed3e146104aa578063f76f8d78146104e3578063fff6cae91461050457600080fd5b8063ba9a7a5614610455578063bc25cf771461045e578063c45a015514610471578063d21220a71461048457600080fd5b806389afcb44116100de57806389afcb44146103d457806395d89b41146103fc578063a3f4df7e1461041a578063a9059cbb1461044257600080fd5b806370a08231146103795780637464fc3d146103a25780637ecebe00146103ab57600080fd5b80632e0f26251161017c578063485cc9551161014b578063485cc955146103415780635909c0d5146103545780635a3d54931461035d5780636a6278421461036657600080fd5b80632e0f2625146102d257806330adf81f146102ec578063313ce567146103135780633644e5151461031a57600080fd5b8063095ea7b3116101b8578063095ea7b31461025f5780630dfe16811461028257806318160ddd146102ad57806323b872dd146102bf57600080fd5b8063022c0d9f146101df57806306fdde03146101f45780630902f1ac1461022b575b600080fd5b6101f26101ed366004611f2d565b61050c565b005b604080518082019091526009815268416f6943727970746f60b81b60208201525b6040516102229190611fe9565b60405180910390f35b610233610a36565b604080516001600160701b03948516815293909216602084015263ffffffff1690820152606001610222565b61027261026d36600461201c565b610a60565b6040519015158152602001610222565b600554610295906001600160a01b031681565b6040516001600160a01b039091168152602001610222565b6000545b604051908152602001610222565b6102726102cd366004612048565b610a79565b6102da601281565b60405160ff9091168152602001610222565b6102b17f6e71edae12b1b97f4d1f60370fef10105fa2faae0126114a169c64845d6126c981565b60126102da565b6102b17f000000000000000000000000000000000000000000000000000000000000000081565b6101f261034f366004612089565b610a9d565b6102b160085481565b6102b160095481565b6102b16103743660046120c2565b610b1c565b6102b16103873660046120c2565b6001600160a01b031660009081526001602052604090205490565b6102b1600a5481565b6102b16103b93660046120c2565b6001600160a01b031660009081526003602052604090205490565b6103e76103e23660046120c2565b610dfb565b60408051928352602083019190915201610222565b604080518082019091526002815261414360f01b6020820152610215565b61021560405180604001604052806009815260200168416f6943727970746f60b81b81525081565b61027261045036600461201c565b611173565b6102b16103e881565b6101f261046c3660046120c2565b611180565b600454610295906001600160a01b031681565b600654610295906001600160a01b031681565b6101f26104a53660046120df565b6112a3565b6102b16104b8366004612089565b6001600160a01b03918216600090815260026020908152604080832093909416825291909152205490565b61021560405180604001604052806002815260200161414360f01b81525081565b6101f26114d4565b600b5460ff1660011461053a5760405162461bcd60e51b815260040161053190612156565b60405180910390fd5b600b805460ff19169055841515806105525750600084115b6105ac5760405162461bcd60e51b815260206004820152602560248201527f416f6943727970746f3a20494e53554646494349454e545f4f55545055545f416044820152641353d5539560da1b6064820152608401610531565b6000806105b7610a36565b5091509150816001600160701b0316871080156105dc5750806001600160701b031686105b6106325760405162461bcd60e51b815260206004820152602160248201527f416f6943727970746f3a20494e53554646494349454e545f4c495155494449546044820152605960f81b6064820152608401610531565b60055460065460009182916001600160a01b039182169190811690891682148015906106705750806001600160a01b0316896001600160a01b031614155b6106b45760405162461bcd60e51b8152602060048201526015602482015274416f6943727970746f3a20494e56414c49445f544f60581b6044820152606401610531565b8a156106c5576106c5828a8d611608565b89156106d6576106d6818a8c611608565b86156107435760405163be0f610160e01b81526001600160a01b038a169063be0f6101906107109033908f908f908e908e90600401612181565b600060405180830381600087803b15801561072a57600080fd5b505af115801561073e573d6000803e3d6000fd5b505050505b6040516370a0823160e01b81523060048201526001600160a01b038316906370a0823190602401602060405180830381865afa158015610787573d6000803e3d6000fd5b505050506040513d601f19601f820116820180604052508101906107ab91906121cd565b6040516370a0823160e01b81523060048201529094506001600160a01b038216906370a0823190602401602060405180830381865afa1580156107f2573d6000803e3d6000fd5b505050506040513d601f19601f8201168201806040525081019061081691906121cd565b92505050600089856001600160701b031661083191906121fc565b831161083e57600061085b565b6108518a6001600160701b0387166121fc565b61085b90846121fc565b905060006108728a6001600160701b0387166121fc565b831161087f57600061089c565b6108928a6001600160701b0387166121fc565b61089c90846121fc565b905060008211806108ad5750600081115b6109055760405162461bcd60e51b8152602060048201526024808201527f416f6943727970746f3a20494e53554646494349454e545f494e5055545f414d60448201526313d5539560e21b6064820152608401610531565b600061091283600361220f565b61091e866103e861220f565b61092891906121fc565b9050600061093783600361220f565b610943866103e861220f565b61094d91906121fc565b90506109656001600160701b03808916908a1661220f565b61097290620f424061220f565b61097c828461220f565b10156109b95760405162461bcd60e51b815260206004820152600c60248201526b416f6943727970746f3a204b60a01b6044820152606401610531565b50506109c784848888611753565b60408051838152602081018390529081018c9052606081018b90526001600160a01b038a169033907fd78ad95fa46c994b6551d0da85fc275fe613ce37657fb8d5e3d130840159d8229060800160405180910390a35050600b805460ff19166001179055505050505050505050565b6007546001600160701b0380821692600160701b830490911691600160e01b900463ffffffff1690565b6000610a6f33848460016118df565b5060015b92915050565b600033610a878582856119c5565b610a92858585611a3d565b506001949350505050565b6004546001600160a01b03163314610aee5760405162461bcd60e51b815260206004820152601460248201527320b7b4a1b93cb83a379d102327a92124a22222a760611b6044820152606401610531565b600580546001600160a01b039384166001600160a01b03199182161790915560068054929093169116179055565b600b5460009060ff16600114610b445760405162461bcd60e51b815260040161053190612156565b600b805460ff19169055600080610b59610a36565b506005546040516370a0823160e01b81523060048201529294509092506000916001600160a01b03909116906370a0823190602401602060405180830381865afa158015610bab573d6000803e3d6000fd5b505050506040513d601f19601f82011682018060405250810190610bcf91906121cd565b6006546040516370a0823160e01b81523060048201529192506000916001600160a01b03909116906370a0823190602401602060405180830381865afa158015610c1d573d6000803e3d6000fd5b505050506040513d601f19601f82011682018060405250810190610c4191906121cd565b90506000610c586001600160701b038616846121fc565b90506000610c6f6001600160701b038616846121fc565b90506000610c7d8787611aa1565b60008054919250819003610cbe576103e8610ca0610c9b858761220f565b611bd2565b610caa91906121fc565b9850610cb960006103e8611d2b565b610d05565b610d026001600160701b038916610cd5838761220f565b610cdf919061223c565b6001600160701b038916610cf3848761220f565b610cfd919061223c565b611d6d565b98505b60008911610d665760405162461bcd60e51b815260206004820152602860248201527f416f6943727970746f3a20494e53554646494349454e545f4c495155494449546044820152671657d3525395115160c21b6064820152608401610531565b610d708a8a611d2b565b610d7c86868a8a611753565b8115610da557600754610da1906001600160701b03600160701b82048116911661220f565b600a555b604080518581526020810185905233917f4c209b5fc8ad50758f13e2e1088ba56a560dff690a1c6fef26394f4c03821c4f910160405180910390a25050600b805460ff1916600117905550949695505050505050565b600b54600090819060ff16600114610e255760405162461bcd60e51b815260040161053190612156565b600b805460ff19169055600080610e3a610a36565b506005546006546040516370a0823160e01b81523060048201529395509193506001600160a01b039081169291169060009083906370a0823190602401602060405180830381865afa158015610e94573d6000803e3d6000fd5b505050506040513d601f19601f82011682018060405250810190610eb891906121cd565b6040516370a0823160e01b81523060048201529091506000906001600160a01b038416906370a0823190602401602060405180830381865afa158015610f02573d6000803e3d6000fd5b505050506040513d601f19601f82011682018060405250810190610f2691906121cd565b30600090815260016020526040812054919250610f438888611aa1565b60005490915080610f54868561220f565b610f5e919061223c565b9a5080610f6b858561220f565b610f75919061223c565b995060008b118015610f87575060008a115b610fe45760405162461bcd60e51b815260206004820152602860248201527f416f6943727970746f3a20494e53554646494349454e545f4c495155494449546044820152671657d0955493915160c21b6064820152608401610531565b610fee3084611d80565b610ff9878d8d611608565b611004868d8c611608565b6040516370a0823160e01b81523060048201526001600160a01b038816906370a0823190602401602060405180830381865afa158015611048573d6000803e3d6000fd5b505050506040513d601f19601f8201168201806040525081019061106c91906121cd565b6040516370a0823160e01b81523060048201529095506001600160a01b038716906370a0823190602401602060405180830381865afa1580156110b3573d6000803e3d6000fd5b505050506040513d601f19601f820116820180604052508101906110d791906121cd565b93506110e585858b8b611753565b811561110e5760075461110a906001600160701b03600160701b82048116911661220f565b600a555b604080518c8152602081018c90526001600160a01b038e169133917fdccd412f0b1252819cb1fd330b93224ca42612892bb3f4f789976e6d81936496910160405180910390a35050600b805460ff191660011790555096989597509495505050505050565b6000610a6f338484611a3d565b600b5460ff166001146111a55760405162461bcd60e51b815260040161053190612156565b600b805460ff191690556005546006546007546040516370a0823160e01b81523060048201526001600160a01b03938416939092169161124991849186916001600160701b03169083906370a08231906024015b602060405180830381865afa158015611216573d6000803e3d6000fd5b505050506040513d601f19601f8201168201806040525081019061123a91906121cd565b61124491906121fc565b611608565b6007546040516370a0823160e01b81523060048201526112919183918691600160701b90046001600160701b0316906001600160a01b038416906370a08231906024016111f9565b5050600b805460ff1916600117905550565b428410156112e85760405162461bcd60e51b8152602060048201526012602482015271155b9a5cddd85c158c8e881156141254915160721b6044820152606401610531565b6001600160a01b038716600090815260036020526040812080547f0000000000000000000000000000000000000000000000000000000000000000917f6e71edae12b1b97f4d1f60370fef10105fa2faae0126114a169c64845d6126c9918b918b918b918761135683612250565b909155506040805160208101969096526001600160a01b0394851690860152929091166060840152608083015260a082015260c0810187905260e001604051602081830303815290604052805190602001206040516020016113cf92919061190160f01b81526002810192909252602282015260420190565b60408051601f198184030181528282528051602091820120600080855291840180845281905260ff88169284019290925260608301869052608083018590529092509060019060a0016020604051602081039080840390855afa15801561143a573d6000803e3d6000fd5b5050604051601f1901519150506001600160a01b038116158015906114705750886001600160a01b0316816001600160a01b0316145b6114bc5760405162461bcd60e51b815260206004820152601c60248201527f556e697377617056323a20494e56414c49445f5349474e4154555245000000006044820152606401610531565b6114c989898960016118df565b505050505050505050565b600b5460ff166001146114f95760405162461bcd60e51b815260040161053190612156565b600b805460ff191690556005546040516370a0823160e01b81523060048201526115f9916001600160a01b0316906370a0823190602401602060405180830381865afa15801561154d573d6000803e3d6000fd5b505050506040513d601f19601f8201168201806040525081019061157191906121cd565b6006546040516370a0823160e01b81523060048201526001600160a01b03909116906370a0823190602401602060405180830381865afa1580156115b9573d6000803e3d6000fd5b505050506040513d601f19601f820116820180604052508101906115dd91906121cd565b6007546001600160701b0380821691600160701b900416611753565b600b805460ff19166001179055565b604080518082018252601981527f7472616e7366657228616464726573732c75696e74323536290000000000000060209182015281516001600160a01b0385811660248301526044808301869052845180840390910181526064909201845291810180516001600160e01b031663a9059cbb60e01b179052915160009283928716916116949190612269565b6000604051808303816000865af19150503d80600081146116d1576040519150601f19603f3d011682016040523d82523d6000602084013e6116d6565b606091505b50915091508180156117005750805115806117005750808060200190518101906117009190612285565b61174c5760405162461bcd60e51b815260206004820152601a60248201527f416f6943727970746f3a205452414e534645525f4641494c45440000000000006044820152606401610531565b5050505050565b6000611764640100000000426122a7565b60075490915060009061178490600160e01b900463ffffffff16836122bb565b905060008163ffffffff161180156117a457506001600160701b03841615155b80156117b857506001600160701b03831615155b15611847578063ffffffff166117e0856117d186611dbe565b6001600160e01b031690611dd7565b6001600160e01b03166117f3919061220f565b6008600082825461180491906122d7565b909155505063ffffffff811661181d846117d187611dbe565b6001600160e01b0316611830919061220f565b6009600082825461184191906122d7565b90915550505b6007805463ffffffff8416600160e01b026001600160e01b036001600160701b03898116600160701b9081026001600160e01b03199095168c83161794909417918216831794859055604080519382169282169290921783529290930490911660208201527f1c411e9a96e071241c2f21f7726b17ae89e3cab4c78be50e062b03a9fffbbad1910160405180910390a1505050505050565b6001600160a01b038416611911576040516322f051b160e21b81526001600160a01b0385166004820152602401610531565b6001600160a01b0383166119435760405163270af7ed60e11b81526001600160a01b0384166004820152602401610531565b6001600160a01b03808516600090815260026020908152604080832093871683529290522082905580156119bf57826001600160a01b0316846001600160a01b03167f8c5be1e5ebec7d5bd14f71427d1e84f3dd0314c0f7b2291e5b200ac8c7c3b925846040516119b691815260200190565b60405180910390a35b50505050565b6001600160a01b0380841660009081526002602090815260408083209386168352929052205460001981146119bf5781811015611a2e57604051630c95cf2760e11b81526001600160a01b03841660048201526024810182905260448101839052606401610531565b6119bf848484840360006118df565b6001600160a01b038316611a67576040516313053d9360e21b815260006004820152602401610531565b6001600160a01b038216611a9157604051639cfea58360e01b815260006004820152602401610531565b611a9c838383611dec565b505050565b6004805460408051622fcfcb60e31b8152905160009384936001600160a01b03169263017e7e5892818301926020928290030181865afa158015611ae9573d6000803e3d6000fd5b505050506040513d601f19601f82011682018060405250810190611b0d91906122ea565b600a546001600160a01b038216158015945091925090611bbe578015611bb9576000611b48610c9b6001600160701b0380881690891661220f565b90506000611b5583611bd2565b905080821115611bb6576000611b6b82846121fc565b600054611b78919061220f565b9050600082611b8885600561220f565b611b9291906122d7565b90506000611ba0828461223c565b90508015611bb257611bb28782611d2b565b5050505b50505b611bca565b8015611bca576000600a555b505092915050565b600060018211611be0575090565b816001600160801b8210611bf95760809190911c9060401b5b680100000000000000008210611c145760409190911c9060201b5b6401000000008210611c2b5760209190911c9060101b5b620100008210611c405760109190911c9060081b5b6101008210611c545760089190911c9060041b5b60108210611c675760049190911c9060021b5b60048210611c735760011b5b600302600190811c90818581611c8b57611c8b612226565b048201901c90506001818581611ca357611ca3612226565b048201901c90506001818581611cbb57611cbb612226565b048201901c90506001818581611cd357611cd3612226565b048201901c90506001818581611ceb57611ceb612226565b048201901c90506001818581611d0357611d03612226565b048201901c9050611d22818581611d1c57611d1c612226565b04821190565b90039392505050565b6001600160a01b038216611d5d57604051639cfea58360e01b81526001600160a01b0383166004820152602401610531565b611d6960008383611dec565b5050565b60008282188284100282185b9392505050565b6001600160a01b038216611db2576040516313053d9360e21b81526001600160a01b0383166004820152602401610531565b611d6982600083611dec565b6000610a73600160701b6001600160701b038416612307565b6000611d796001600160701b03831684612330565b6001600160a01b038316611e165780600080828254611e0b91906122d7565b90915550611e889050565b6001600160a01b03831660009081526001602052604090205481811015611e695760405163db42144d60e01b81526001600160a01b03851660048201526024810182905260448101839052606401610531565b6001600160a01b03841660009081526001602052604090209082900390555b6001600160a01b038216611ea457600080548290039055611ec3565b6001600160a01b03821660009081526001602052604090208054820190555b816001600160a01b0316836001600160a01b03167fddf252ad1be2c89b69c2b068fc378daa952ba7f163c4a11628f55a4df523b3ef83604051611f0891815260200190565b60405180910390a3505050565b6001600160a01b0381168114611f2a57600080fd5b50565b600080600080600060808688031215611f4557600080fd5b85359450602086013593506040860135611f5e81611f15565b9250606086013567ffffffffffffffff811115611f7a57600080fd5b8601601f81018813611f8b57600080fd5b803567ffffffffffffffff811115611fa257600080fd5b886020828401011115611fb457600080fd5b959894975092955050506020019190565b60005b83811015611fe0578181015183820152602001611fc8565b50506000910152565b6020815260008251806020840152612008816040850160208701611fc5565b601f01601f19169190910160400192915050565b6000806040838503121561202f57600080fd5b823561203a81611f15565b946020939093013593505050565b60008060006060848603121561205d57600080fd5b833561206881611f15565b9250602084013561207881611f15565b929592945050506040919091013590565b6000806040838503121561209c57600080fd5b82356120a781611f15565b915060208301356120b781611f15565b809150509250929050565b6000602082840312156120d457600080fd5b8135611d7981611f15565b600080600080600080600060e0888a0312156120fa57600080fd5b873561210581611f15565b9650602088013561211581611f15565b95506040880135945060608801359350608088013560ff8116811461213957600080fd5b9699959850939692959460a0840135945060c09093013592915050565b602080825260119082015270105bda50dc9e5c1d1bce881313d0d2d151607a1b604082015260600190565b60018060a01b038616815284602082015283604082015260806060820152816080820152818360a0830137600081830160a090810191909152601f909201601f19160101949350505050565b6000602082840312156121df57600080fd5b5051919050565b634e487b7160e01b600052601160045260246000fd5b81810381811115610a7357610a736121e6565b8082028115828204841417610a7357610a736121e6565b634e487b7160e01b600052601260045260246000fd5b60008261224b5761224b612226565b500490565b600060018201612262576122626121e6565b5060010190565b6000825161227b818460208701611fc5565b9190910192915050565b60006020828403121561229757600080fd5b81518015158114611d7957600080fd5b6000826122b6576122b6612226565b500690565b63ffffffff8281168282160390811115610a7357610a736121e6565b80820180821115610a7357610a736121e6565b6000602082840312156122fc57600080fd5b8151611d7981611f15565b6001600160e01b03818116838216818102909216918183048114821517611bca57611bca6121e6565b60006001600160e01b0383168061234957612349612226565b6001600160e01b0392909216919091049291505056fea26469706673582212200c4efac2f17951c59813ae86cf11a12a3ed677d17b79d3d70c3795c85845f1e064736f6c634300081a0033a26469706673582212208fc27879436fd6352ab822a9296c53c54b5b6b708f7196e5fb418c4569c20adc64736f6c634300081a0033","linkReferences":{}},"methodIdentifiers":{"WETH()":"ad5c4648","addLiquidity(address,address,uint256,uint256,uint256,uint256,address,uint256)":"e8e33700","addLiquidityETH(address,uint256,uint256,uint256,address,uint256)":"f305d719","factory()":"c45a0155","getAmountIn(uint256,uint256,uint256)":"85f8c259","getAmountOut(uint256,uint256,uint256)":"054d50d4","getAmountsIn(uint256,address[])":"1f00ca74","getAmountsOut(uint256,address[])":"d06ca61f","quote(uint256,uint256,uint256)":"ad615dec","removeLiquidity(address,address,uint256,uint256,uint256,address,uint256)":"baa2abde","removeLiquidityETH(address,uint256,uint256,uint256,address,uint256)":"02751cec","removeLiquidityETHSupportingFeeOnTransferTokens(address,uint256,uint256,uint256,address,uint256)":"af2979eb","removeLiquidityETHWithPermit(address,uint256,uint256,uint256,address,uint256,bool,uint8,bytes32,bytes32)":"ded9382a","removeLiquidityETHWithPermitSupportingFeeOnTransferTokens(address,uint256,uint256,uint256,address,uint256,bool,uint8,bytes32,bytes32)":"5b0d5984","removeLiquidityWithPermit(address,address,uint256,uint256,uint256,address,uint256,bool,uint8,bytes32,bytes32)":"2195995c","swapETHForExactTokens(uint256,address[],address,uint256)":"fb3bdb41","swapExactETHForTokens(uint256,address[],address,uint256)":"7ff36ab5","swapExactETHForTokensSupportingFeeOnTransferTokens(uint256,address[],address,uint256)":"b6f9de95","swapExactTokensForETH(uint256,uint256,address[],address,uint256)":"18cbafe5","swapExactTokensForETHSupportingFeeOnTransferTokens(uint256,uint256,address[],address,uint256)":"791ac947","swapExactTokensForTokens(uint256,uint256,address[],address,uint256)":"38ed1739","swapExactTokensForTokensSupportingFeeOnTransferTokens(uint256,uint256,address[],address,uint256)":"5c11d795","swapTokensForExactETH(uint256,uint256,address[],address,uint256)":"4a25d94a","swapTokensForExactTokens(uint256,uint256,address[],address,uint256)":"8803dbee"},"id":47}