{"abi":[{"type":"constructor","inputs":[{"name":"_WETH","type":"address","internalType":"address"},{"name":"_AOI_DEX_FACTORY","type":"address","internalType":"address"},{"name":"_AOI_DEX_ROUTER","type":"address","internalType":"address"}],"stateMutability":"nonpayable"},{"type":"receive","stateMutability":"payable"},{"type":"function","name":"AOI_DEX_FACTORY","inputs":[],"outputs":[{"name":"","type":"address","internalType":"address"}],"stateMutability":"view"},{"type":"function","name":"AOI_DEX_ROUTER","inputs":[],"outputs":[{"name":"","type":"address","internalType":"address"}],"stateMutability":"view"},{"type":"function","name":"MIN_DELAY_STARTING","inputs":[],"outputs":[{"name":"","type":"uint112","internalType":"uint112"}],"stateMutability":"view"},{"type":"function","name":"MIN_PRICE_TOKEN","inputs":[],"outputs":[{"name":"","type":"uint256","internalType":"uint256"}],"stateMutability":"view"},{"type":"function","name":"MIN_PRIVATE_SALES_ENDING","inputs":[],"outputs":[{"name":"","type":"uint112","internalType":"uint112"}],"stateMutability":"view"},{"type":"function","name":"MIN_WETH","inputs":[],"outputs":[{"name":"","type":"uint256","internalType":"uint256"}],"stateMutability":"view"},{"type":"function","name":"POOL_OWNER","inputs":[],"outputs":[{"name":"","type":"address","internalType":"address"}],"stateMutability":"view"},{"type":"function","name":"RATE_DECIMALS","inputs":[],"outputs":[{"name":"","type":"uint8","internalType":"uint8"}],"stateMutability":"view"},{"type":"function","name":"WETH","inputs":[],"outputs":[{"name":"","type":"address","internalType":"address"}],"stateMutability":"view"},{"type":"function","name":"WHITELISTED","inputs":[],"outputs":[{"name":"","type":"bytes32","internalType":"bytes32"}],"stateMutability":"view"},{"type":"function","name":"cancelInvestment","inputs":[],"outputs":[],"stateMutability":"nonpayable"},{"type":"function","name":"cancelRegisterPrivatePool","inputs":[],"outputs":[],"stateMutability":"nonpayable"},{"type":"function","name":"claimToken","inputs":[],"outputs":[],"stateMutability":"nonpayable"},{"type":"function","name":"getHasListedDex","inputs":[],"outputs":[{"name":"","type":"bool","internalType":"bool"}],"stateMutability":"view"},{"type":"function","name":"getLiquidityTokenAmount","inputs":[],"outputs":[{"name":"","type":"uint256","internalType":"uint256"}],"stateMutability":"view"},{"type":"function","name":"getLiquidityWETH9Amount","inputs":[],"outputs":[{"name":"","type":"uint256","internalType":"uint256"}],"stateMutability":"view"},{"type":"function","name":"getPoolDetails","inputs":[],"outputs":[{"name":"","type":"tuple","internalType":"struct IIDOPool.IDOPoolDetails","components":[{"name":"tokenAddress","type":"address","internalType":"address"},{"name":"pricePerToken","type":"uint256","internalType":"uint256"},{"name":"raisedAmount","type":"uint256","internalType":"uint256"},{"name":"raisedTokenAmount","type":"uint256","internalType":"uint256"},{"name":"softCap","type":"uint256","internalType":"uint256"},{"name":"hardCap","type":"uint256","internalType":"uint256"},{"name":"minInvest","type":"uint256","internalType":"uint256"},{"name":"maxInvest","type":"uint256","internalType":"uint256"},{"name":"liquidityWETH9","type":"uint256","internalType":"uint256"},{"name":"liquidityToken","type":"uint256","internalType":"uint256"},{"name":"privateSaleAmount","type":"uint256","internalType":"uint256"}]}],"stateMutability":"view"},{"type":"function","name":"getPoolEndTime","inputs":[],"outputs":[{"name":"","type":"uint256","internalType":"uint256"}],"stateMutability":"view"},{"type":"function","name":"getPoolHardCap","inputs":[],"outputs":[{"name":"","type":"uint256","internalType":"uint256"}],"stateMutability":"view"},{"type":"function","name":"getPoolMaxInvest","inputs":[],"outputs":[{"name":"","type":"uint256","internalType":"uint256"}],"stateMutability":"view"},{"type":"function","name":"getPoolMinInvest","inputs":[],"outputs":[{"name":"","type":"uint256","internalType":"uint256"}],"stateMutability":"view"},{"type":"function","name":"getPoolOwner","inputs":[],"outputs":[{"name":"","type":"address","internalType":"address"}],"stateMutability":"view"},{"type":"function","name":"getPoolRaisedAmount","inputs":[],"outputs":[{"name":"","type":"uint256","internalType":"uint256"}],"stateMutability":"view"},{"type":"function","name":"getPoolSoftCap","inputs":[],"outputs":[{"name":"","type":"uint256","internalType":"uint256"}],"stateMutability":"view"},{"type":"function","name":"getPoolSoftCapReached","inputs":[],"outputs":[{"name":"","type":"bool","internalType":"bool"}],"stateMutability":"view"},{"type":"function","name":"getPoolStartTime","inputs":[],"outputs":[{"name":"","type":"uint256","internalType":"uint256"}],"stateMutability":"view"},{"type":"function","name":"getPoolTime","inputs":[],"outputs":[{"name":"","type":"tuple","internalType":"struct IIDOPool.IDOTime","components":[{"name":"startTime","type":"uint256","internalType":"uint256"},{"name":"endTime","type":"uint256","internalType":"uint256"},{"name":"startPublicSale","type":"uint256","internalType":"uint256"}]}],"stateMutability":"view"},{"type":"function","name":"getPoolTokenAddress","inputs":[],"outputs":[{"name":"","type":"address","internalType":"address"}],"stateMutability":"view"},{"type":"function","name":"getPoolTokenAmount","inputs":[],"outputs":[{"name":"","type":"uint256","internalType":"uint256"}],"stateMutability":"view"},{"type":"function","name":"getPoolType","inputs":[],"outputs":[{"name":"","type":"uint8","internalType":"enum IIDOPool.IDOType"}],"stateMutability":"view"},{"type":"function","name":"getPricePerToken","inputs":[],"outputs":[{"name":"","type":"uint256","internalType":"uint256"}],"stateMutability":"view"},{"type":"function","name":"getTimeLeftEnding","inputs":[],"outputs":[{"name":"","type":"uint256","internalType":"uint256"}],"stateMutability":"view"},{"type":"function","name":"getUserDepositAmount","inputs":[{"name":"_address","type":"address","internalType":"address"}],"outputs":[{"name":"","type":"uint256","internalType":"uint256"}],"stateMutability":"view"},{"type":"function","name":"initialize","inputs":[{"name":"_poolDetail","type":"tuple","internalType":"struct IIDOPool.IDOPoolDetails","components":[{"name":"tokenAddress","type":"address","internalType":"address"},{"name":"pricePerToken","type":"uint256","internalType":"uint256"},{"name":"raisedAmount","type":"uint256","internalType":"uint256"},{"name":"raisedTokenAmount","type":"uint256","internalType":"uint256"},{"name":"softCap","type":"uint256","internalType":"uint256"},{"name":"hardCap","type":"uint256","internalType":"uint256"},{"name":"minInvest","type":"uint256","internalType":"uint256"},{"name":"maxInvest","type":"uint256","internalType":"uint256"},{"name":"liquidityWETH9","type":"uint256","internalType":"uint256"},{"name":"liquidityToken","type":"uint256","internalType":"uint256"},{"name":"privateSaleAmount","type":"uint256","internalType":"uint256"}]},{"name":"_poolTime","type":"tuple","internalType":"struct IIDOPool.IDOTime","components":[{"name":"startTime","type":"uint256","internalType":"uint256"},{"name":"endTime","type":"uint256","internalType":"uint256"},{"name":"startPublicSale","type":"uint256","internalType":"uint256"}]},{"name":"_POOL_OWNER","type":"address","internalType":"address"},{"name":"_WHITELISTED","type":"bytes32","internalType":"bytes32"},{"name":"_PRIVATE_SALE","type":"bool","internalType":"bool"}],"outputs":[],"stateMutability":"nonpayable"},{"type":"function","name":"investPool","inputs":[{"name":"proof","type":"bytes32[]","internalType":"bytes32[]"}],"outputs":[],"stateMutability":"payable"},{"type":"function","name":"isPoolActive","inputs":[],"outputs":[{"name":"","type":"bool","internalType":"bool"}],"stateMutability":"view"},{"type":"function","name":"isRegistered","inputs":[{"name":"_address","type":"address","internalType":"address"}],"outputs":[{"name":"","type":"bool","internalType":"bool"}],"stateMutability":"view"},{"type":"function","name":"listInDex","inputs":[{"name":"to","type":"address","internalType":"address"}],"outputs":[{"name":"liquidityPoolAddress","type":"address","internalType":"address"},{"name":"lpAmount","type":"uint256","internalType":"uint256"}],"stateMutability":"nonpayable"},{"type":"function","name":"owner","inputs":[],"outputs":[{"name":"","type":"address","internalType":"address"}],"stateMutability":"view"},{"type":"function","name":"refundToken","inputs":[],"outputs":[],"stateMutability":"nonpayable"},{"type":"function","name":"registerPrivatePool","inputs":[],"outputs":[],"stateMutability":"nonpayable"},{"type":"function","name":"registers","inputs":[{"name":"","type":"address","internalType":"address"}],"outputs":[{"name":"","type":"bool","internalType":"bool"}],"stateMutability":"view"},{"type":"function","name":"renounceOwnership","inputs":[],"outputs":[],"stateMutability":"nonpayable"},{"type":"function","name":"transferOwnership","inputs":[{"name":"newOwner","type":"address","internalType":"address"}],"outputs":[],"stateMutability":"nonpayable"},{"type":"function","name":"withdrawRemainingToken","inputs":[],"outputs":[],"stateMutability":"payable"},{"type":"event","name":"CanceledPrivatePoolRegistration","inputs":[{"name":"investor","type":"address","indexed":true,"internalType":"address"}],"anonymous":false},{"type":"event","name":"IDOPoolClaimed","inputs":[{"name":"investor","type":"address","indexed":true,"internalType":"address"},{"name":"amount","type":"uint256","indexed":false,"internalType":"uint256"}],"anonymous":false},{"type":"event","name":"IDOPoolCreated","inputs":[{"name":"poolOwner","type":"address","indexed":true,"internalType":"address"},{"name":"tokenAddress","type":"address","indexed":true,"internalType":"address"},{"name":"poolId","type":"uint256","indexed":false,"internalType":"uint256"},{"name":"pricePerToken","type":"uint256","indexed":false,"internalType":"uint256"},{"name":"startTime","type":"uint256","indexed":false,"internalType":"uint256"},{"name":"endTime","type":"uint256","indexed":false,"internalType":"uint256"}],"anonymous":false},{"type":"event","name":"IDOPoolInvested","inputs":[{"name":"investor","type":"address","indexed":true,"internalType":"address"},{"name":"amount","type":"uint256","indexed":false,"internalType":"uint256"}],"anonymous":false},{"type":"event","name":"IDOPoolInvestmentCanceled","inputs":[{"name":"investor","type":"address","indexed":true,"internalType":"address"},{"name":"amount","type":"uint256","indexed":false,"internalType":"uint256"}],"anonymous":false},{"type":"event","name":"IDOPoolListed","inputs":[{"name":"tokenAddress","type":"address","indexed":true,"internalType":"address"},{"name":"liquidityPool","type":"address","indexed":false,"internalType":"address"},{"name":"liquidityWETHAmount","type":"uint256","indexed":false,"internalType":"uint256"},{"name":"liquidityTokenAmount","type":"uint256","indexed":false,"internalType":"uint256"},{"name":"lpTokenAmount","type":"uint256","indexed":false,"internalType":"uint256"}],"anonymous":false},{"type":"event","name":"IDOPoolRefunded","inputs":[{"name":"investor","type":"address","indexed":true,"internalType":"address"},{"name":"amount","type":"uint256","indexed":false,"internalType":"uint256"}],"anonymous":false},{"type":"event","name":"IDOPoolWithdrawn","inputs":[{"name":"tokenAmount","type":"uint256","indexed":false,"internalType":"uint256"},{"name":"ethAmount","type":"uint256","indexed":false,"internalType":"uint256"}],"anonymous":false},{"type":"event","name":"IdoPoolInitialized","inputs":[],"anonymous":false},{"type":"event","name":"OwnershipTransferred","inputs":[{"name":"previousOwner","type":"address","indexed":true,"internalType":"address"},{"name":"newOwner","type":"address","indexed":true,"internalType":"address"}],"anonymous":false},{"type":"event","name":"RegisteredPrivatePool","inputs":[{"name":"investor","type":"address","indexed":true,"internalType":"address"}],"anonymous":false},{"type":"error","name":"AlreadyListedDex","inputs":[]},{"type":"error","name":"AlreadyWhitelisted","inputs":[]},{"type":"error","name":"HardCapExceeded","inputs":[]},{"type":"error","name":"IDOIsAlreadyPublicSale","inputs":[]},{"type":"error","name":"IDOIsAlreadyStarted","inputs":[]},{"type":"error","name":"IDOIsEnded","inputs":[]},{"type":"error","name":"IDOIsNotEnded","inputs":[]},{"type":"error","name":"IDOIsNotStarted","inputs":[]},{"type":"error","name":"IDOPoolHasWithdrawn","inputs":[]},{"type":"error","name":"IDOPoolInitialized","inputs":[]},{"type":"error","name":"IDOPoolIsPrivate","inputs":[]},{"type":"error","name":"IDOPoolIsPrivateForWhitelisted","inputs":[]},{"type":"error","name":"IDOPoolIsPublic","inputs":[]},{"type":"error","name":"IDOPoolNotInitialized","inputs":[]},{"type":"error","name":"IDOPoolStillActive","inputs":[]},{"type":"error","name":"InvalidLiquidityAmount","inputs":[]},{"type":"error","name":"InvalidPoolDelayTime","inputs":[]},{"type":"error","name":"InvalidPoolHardCap","inputs":[]},{"type":"error","name":"InvalidPoolId","inputs":[]},{"type":"error","name":"InvalidPoolMaxInvestment","inputs":[]},{"type":"error","name":"InvalidPoolMinInvestment","inputs":[]},{"type":"error","name":"InvalidPoolSoftCap","inputs":[]},{"type":"error","name":"InvalidPoolStartPublicSale","inputs":[]},{"type":"error","name":"InvalidPoolTimeFrame","inputs":[]},{"type":"error","name":"InvalidPrivateSaleAmount","inputs":[]},{"type":"error","name":"InvalidTokenForSale","inputs":[]},{"type":"error","name":"InvalidTokenPrice","inputs":[]},{"type":"error","name":"InvestorAlreadyRegistered","inputs":[]},{"type":"error","name":"InvestorClaimed","inputs":[]},{"type":"error","name":"InvestorNotRegisteredYet","inputs":[]},{"type":"error","name":"MaxInvestmentExceeded","inputs":[]},{"type":"error","name":"MinInvestmentNotReached","inputs":[]},{"type":"error","name":"NotEnoughBalance","inputs":[]},{"type":"error","name":"NotListedDex","inputs":[]},{"type":"error","name":"NotPoolOwner","inputs":[]},{"type":"error","name":"NotPoolOwnerOrFactory","inputs":[]},{"type":"error","name":"NotWhilelisted","inputs":[]},{"type":"error","name":"OwnableInvalidOwner","inputs":[{"name":"owner","type":"address","internalType":"address"}]},{"type":"error","name":"OwnableUnauthorizedAccount","inputs":[{"name":"account","type":"address","internalType":"address"}]},{"type":"error","name":"PrivateSaleExceeded","inputs":[]},{"type":"error","name":"ReentrancyGuardReentrantCall","inputs":[]},{"type":"error","name":"SafeERC20FailedOperation","inputs":[{"name":"token","type":"address","internalType":"address"}]},{"type":"error","name":"SoftCapNotReached","inputs":[]},{"type":"error","name":"SoftCapReached","inputs":[]},{"type":"error","name":"ZeroAddress","inputs":[]}],"bytecode":{"object":"0x60e0346200011e57601f62001e8f38819003918201601f19168301916001600160401b0383118484101762000123578084926060946040528339810103126200011e576200004d8162000139565b906200006a6040620000626020840162000139565b920162000139565b9160c05260805260a0523315620001055760038054336001600160a01b03198216811790925560405191906001600160a01b03167f8be0079c531659141344cd1fd0a4f28419497f9722a3daafe3b4186f6b6457e0600080a36001600455611d4090816200014f82396080518181816114c801526117e9015260a0518181816113d10152611996015260c051818181610ed1015261149a0152f35b604051631e4fbdf760e01b815260006004820152602490fd5b600080fd5b634e487b7160e01b600052604160045260246000fd5b51906001600160a01b03821682036200011e5756fe608080604052600436101561001d575b50361561001b57600080fd5b005b60009060e08235811c91826309c88ac714611a615750816309d4674614611a435781630b71f11614611a265781630cec2a76146119c55781631595cd6f14611980578163194d28a6146119575781631d6f6ed514611939578163367dfede1461191b5781633b1e79fb146118fd5781634451d89f146118185781634ecabfb2146117d357816351d1892d146117b55781635a604c52146117995781635cb732be1461169a5781636aabc35014610e065781636b14c5e21461167c5781636c6c8bc014611343578163715018a6146112e657816378c535331461067e5781637c480cb4146111af57816384eeae43146111915781638da5cb5b1461116857816394186d961461111957816394f8e9541461101d57816397ea1c1914610ffa578163a9b79d0d14610fdc578163aca34c1114610f00578163ad5c464814610ebb578163ad69184b14610e99578163b92289f914610e63578163c0477b9214610e45578163c3c5a54714610e06578163ca1e973814610de8578163cd25325714610d58578163cdfeb95b14610c76578163cf9afab514610c36578163df868ed314610c00578163e04d77ae14610be3578163e0f92dc0146106ff578163e9fb0505146106c4578163eb4f76b7146106a7578163eb71e8c41461067e578163eeb6ea7e146102c657508063f039a084146102a85763f2fde38b0361000f57346102a55760203660031901126102a557610230611a85565b610238611b2d565b6001600160a01b0390811690811561028c57600354826bffffffffffffffffffffffff60a01b821617600355167f8be0079c531659141344cd1fd0a4f28419497f9722a3daafe3b4186f6b6457e08380a380f35b604051631e4fbdf760e01b815260048101849052602490fd5b80fd5b50346102a557806003193601126102a5576020600a54604051908152f35b602091503660031901821361067a576004359067ffffffffffffffff80831161067657366023840112156106765782600401359081116106625760059080821b936040519161031787870184611b0b565b8252858201602480968301019136831161065e5786889101915b83831061064e57505050506011918254421061063c57601254421161062a5760019460ff865460a81c161561061857610368611bec565b93610371611b7c565b94338a526014895260408a209660ff60026040519961038f8b611aa0565b80548b528b8101548d8c01520154161515604089015260a08701519760408801986103bb348b51611b59565b11610606576103cb815134611b59565b60c0890151116105f4576103e0905134611b59565b90870151106105e25760ff84541660028110156105cf579088809493921490816105c1575b506104b0575b5050505050505061041a611b7c565b5061042734600754611cda565b9081156104ac5761047c9061043e34600854611b59565b60085561044d83600954611b59565b6009553385526014845260408520610466348254611b59565b9055338552601484526040852001918254611b59565b90557fbc2c8c4e77d1056c1a17c98a5ccb744c860e9a624c0547cd3b8790ec86c5fe44604051913483523392a280f35b8380fd5b8954946040518a8101903382528b81526104c981611aef565b5190206040518b81019182528b81526104e181611aef565b519020948b945b61055c575b5050505050141580610546575b6105345761014061051091015191349051611b59565b1015610522573880808084818061040b565b604051633a51960b60e11b8152600490fd5b6040516338c20bc560e21b8152600490fd5b503385526002845260ff604086205416156104fa565b909192939482518610156105bb5785821b83018b015190818110156105ad578c528a5260408b205b94600019811461059a57890193929190896104e8565b634e487b7160e01b8c526004849052848cfd5b908c528a5260408b20610584565b946104ed565b604091500151421038610405565b634e487b7160e01b8b526021600452838bfd5b604051631ba05a5760e31b8152600490fd5b60405163753f384d60e11b8152600490fd5b604051631c4af3c960e11b8152600490fd5b604051632fd798ed60e11b8152600490fd5b6040516372c3664160e11b8152600490fd5b60405163f7f1fb2760e01b8152600490fd5b8235815291810191889101610331565b8880fd5b634e487b7160e01b85526041600452602485fd5b8480fd5b8280fd5b82346102a557806003193601126102a5576001546040516001600160a01b039091168152602090f35b82346102a557806003193601126102a55760206040516102588152f35b82346102a557806003193601126102a5576020906012544281116000146106f9576106f191504290611c10565b604051908152f35b506106f1565b905034610bdf573660031901610220811261067a5761016013610bdf576040519061072982611ad2565b610731611a85565b8252602435602083015260443560408301526064356060830152608435608083015260a43560a083015260c43560c083015260e4358183015261010435610100830152610124356101208301526101443561014083015260606101631936011261067a57604051916107a283611aa0565b6101643583526101843560208401526101a43560408401526101c4356001600160a01b03811690036104ac5761020435151561020435036104ac576001549260ff8460a81c16610bcd5781516001600160a01b031615610bbb57602082015115610ba9578051428110908115610b9b575b50610b8957805161025890428201809211610a585710610b77576102043580610b52575b610b405760055492600260ff85161015610b2c57600160ff85161480610ac1575b610aaf57808301518015908115610aa0575b8115610a92575b50610a805760c08301518015908115610a2a575b50610a185760a08301518015908115610a09575b506109f7576080830151156109e557670de0b6b3a7640000610100840151106109d3576040926101409160018060a01b038251166bffffffffffffffffffffffff60a01b600654161760065560208201516007558482015160085560608201516009556080820151600a5560a0820151600b5560c0820151600c55810151600d55610100810151600e55610120810151600f550151601055805160115560208101516012550151601355610204356000146109cd5760015b60028110156109b95760ff1990911660ff91909116176005556101e4358255600161ff0160a01b0319166101c4356001600160a01b031617600160a81b176001557f1646a0d7e8b0d2e652ab8f7c10066bd4531b0e3931c70c4076d1f4c3bcae488e8180a180f35b634e487b7160e01b84526021600452602484fd5b82610951565b604051631f2c4df760e11b8152600490fd5b6040516330fae41b60e21b8152600490fd5b60405163a17bc06b60e01b8152600490fd5b90506080840151101538610899565b604051630e07239b60e01b8152600490fd5b9060a085015190610a6c570460c084015190818102918183041490151715610a585760808401511138610885565b634e487b7160e01b87526011600452602487fd5b634e487b7160e01b88526012600452602488fd5b604051635f7cc84560e01b8152600490fd5b905060c08401511138610871565b60a0850151811015915061086a565b604051633aa1c78760e21b8152600490fd5b5061014083015160a08401511480610b1f575b80610858575060408201516020830151811090811591610af5575b50610858565b835161012c810192508210610b0b571038610aef565b634e487b7160e01b88526011600452602488fd5b5060408201511515610ad4565b634e487b7160e01b86526021600452602486fd5b6040516378d7ec3d60e11b8152600490fd5b506101408201518015908115610b69575b50610837565b905060a08301511038610b63565b604051636a05191960e01b8152600490fd5b6040516331d75b1160e11b8152600490fd5b905060208201511038610813565b604051637841c2c960e11b8152600490fd5b60405163d92e233d60e01b8152600490fd5b604051633914894960e11b8152600490fd5b5080fd5b82346102a557806003193601126102a557602060405161012c8152f35b82346102a557806003193601126102a55760115442101580610c2a575b6020906040519015158152f35b50601254421115610c1d565b82346102a557806003193601126102a55760ff60055416604051906002811015610c6257602092508152f35b634e487b7160e01b83526021600452602483fd5b82346102a557806003193601126102a55760ff60015460a81c16156106185760115442101561063c5760ff600554166002811015610d445715610d325760135415610d2057338152600260205260ff604082205416610d0e5733808252600260205260408220805460ff191660011790557f3e2e83ce5ae1775e4885fb5893c4da3d96807b244cbc81d8ca376160ac8b83dc8280a280f35b60405163a62730eb60e01b8152600490fd5b604051633e28c36d60e11b8152600490fd5b604051630ff6444f60e21b8152600490fd5b634e487b7160e01b82526021600452602482fd5b82346102a557806003193601126102a55760ff600554166002811015610d445715610d325760135415610d2057338152600260205260ff60408220541615610dd65733808252600260205260408220805460ff191690557fe849a6016287673559cafb1b858b9cc68989587b3f4ac1ff4bdfa54ee8689f398280a280f35b6040516312154ec760e31b8152600490fd5b82346102a557806003193601126102a5576020600754604051908152f35b82346102a55760203660031901126102a55760209060ff906040906001600160a01b03610e31611a85565b168152600284522054166040519015158152f35b82346102a557806003193601126102a5576020601254604051908152f35b82346102a557806003193601126102a557600854600a546020929181610e905750505b6040519015158152f35b10159050610e86565b82346102a557806003193601126102a557602060405166038d7ea4c680008152f35b82346102a557806003193601126102a5576040517f00000000000000000000000000000000000000000000000000000000000000006001600160a01b03168152602090f35b905034610bdf5781600319360112610bdf5761016091604051610f2281611ad2565b8181528160208201528160408201528160608201528160808201528160a08201528160c0820152818382015261010082818301526101208381840152610140938480940152610f6f611b7c565b916040519560018060a01b0384511687526020840151602088015260408401516040880152606084015160608801526080840151608088015260a084015160a088015260c084015160c0880152808401519087015280830151908601528082015190850152015190820152f35b82346102a557806003193601126102a5576020600c54604051908152f35b82346102a557806003193601126102a5576020604051670de0b6b3a76400008152f35b82346102a557806003193601126102a557601154421061063c57601254421161062a5760ff60015460a81c1615610618573381526014602052604081206040519061106782611aa0565b805491828152604060ff6002600185015494856020860152015416151591015281158015611111575b6110ff576110c39033845260146020528360016040822082815501556110b883600854611c10565b600855600954611c10565b6009556110d08133611c1d565b6040519081527fa4f094027e7ab8dea7e40b214fbacc0deed8a1fad0b42b29d76cf60e0793683260203392a280f35b60405163569d45cf60e11b8152600490fd5b508015611090565b82346102a557806003193601126102a5576040805161113781611aa0565b8281528260208201520152606061114c611bec565b6040805191805183526020810151602084015201516040820152f35b82346102a557806003193601126102a5576003546040516001600160a01b039091168152602090f35b82346102a557806003193601126102a5576020600854604051908152f35b82806003193601126102a55760015460ff8160a81c16156106185760ff8160a01c16156112d45760ff8160b01c166112c25760407f8f974d7b17ae2ba05e0a9548bdf900e6e3e642c7d7bff6d9b2edb6b936137fe19161120d611b7c565b808301514781106112bc575047905b61122f60a0820151602083015190611cda565b60608201518181106112ad57505085925b60ff60b01b198116600160b01b176001558280611294575b50508280611271575b505082519182526020820152a180f35b905160015461128d92916001600160a01b039182169116611c3b565b8582611261565b6112a6916001600160a01b0316611c1d565b8682611258565b6112b691611c10565b92611240565b9061121c565b6040516318b366af60e21b8152600490fd5b6040516316b8570d60e01b8152600490fd5b82346102a557806003193601126102a5576112ff611b2d565b600380546001600160a01b0319811690915581906001600160a01b03167f8be0079c531659141344cd1fd0a4f28419497f9722a3daafe3b4186f6b6457e08280a380f35b82346102a557602090816003193601126102a55761135f611a85565b91611368611b2d565b60026004541461166a57600260045560015460ff8160a81c16156106185760a01c60ff1661165857611398611b7c565b91816113a2611bec565b015142106116465760408301516080840151116116345782516101208401805160405163095ea7b360e01b81527f00000000000000000000000000000000000000000000000000000000000000006001600160a01b03818116600484015260248301939093529593849082906044908290899087165af180156115b557611601575b50606061010087019560c48751848a51169085875194816040519e8f97889663f305d71960e01b8852600488015280602488015260448701528460648701521660848501524260a4850152165af19687156115f65784976115c0575b50855160405163e6a4390560e01b815290821660048201527f0000000000000000000000000000000000000000000000000000000000000000821660248201529583876044817f000000000000000000000000000000000000000000000000000000000000000086165afa9687156115b557859761157d575b508187169485156102a5575091608093917f1079442b04b4beff799900bb01cd00e1a880ec71fbf2182fa1b9dd3cfcfcfdbd9593600160a01b60ff60a01b196001541617600155511695519051916040519384528301526040820152856060820152a26001600455604080516001600160a01b039290921682526020820192909252f35b9096508381813d83116115ae575b6115958183611b0b565b81010312610676575181811681036106765795886114f9565b503d61158b565b6040513d87823e3d90fd5b9096506060813d82116115ee575b816115db60609383611b0b565b810103126104ac57604001519587611480565b3d91506115ce565b6040513d86823e3d90fd5b8381813d831161162d575b6116168183611b0b565b810103126106765751801515036104ac5787611424565b503d61160c565b604051632bdc91ad60e01b8152600490fd5b60405163e71cb6ed60e01b8152600490fd5b6040516339ebcc1960e01b8152600490fd5b604051633ee5aeb560e01b8152600490fd5b82346102a557806003193601126102a5576020600e54604051908152f35b82346102a557806003193601126102a55760125442111561178757600a5460085410156117755760ff60015460a81c16156106185733815260146020526040812060ff6002604051926116ec84611aa0565b80548452600181015460208501520154161515806040830152611763575180156110ff57338252601460205260026040832001600160ff198254161790556117348133611c1d565b6040519081527fd1a4dc08c0259db1bb035dab2943722545923d8da2990f31bd8182b1037c56e260203392a280f35b604051633753fb7960e01b8152600490fd5b60405163629c1b6760e01b8152600490fd5b604051634c6ae11f60e01b8152600490fd5b82346102a557806003193601126102a557602060405160048152f35b82346102a557806003193601126102a5576020600d54604051908152f35b82346102a557806003193601126102a5576040517f00000000000000000000000000000000000000000000000000000000000000006001600160a01b03168152602090f35b82346102a557806003193601126102a55760125442111561178757600a54600854106116345760ff60015460a81c1615610618573381526014602052604080822060ff600283519261186984611aa0565b805484526001810154602085015201541615159182910152611763573381526014602052600160408220015480156110ff576006546118b490829033906001600160a01b0316611c3b565b338252601460205260026040832001600160ff198254161790556040519081527fbc8e5aa70c5eb96080a341466c708cb7bb7bdd986731a1411986a803637ff88e60203392a280f35b82346102a557806003193601126102a5576020600f54604051908152f35b82346102a557806003193601126102a5576020601154604051908152f35b82346102a557806003193601126102a5576020600b54604051908152f35b82346102a557806003193601126102a5576006546040516001600160a01b039091168152602090f35b82346102a557806003193601126102a5576040517f00000000000000000000000000000000000000000000000000000000000000006001600160a01b03168152602090f35b82346102a55760203660031901126102a5576020906040906001600160a01b036119ed611a85565b1681526014835220604051611a0181611aa0565b604060ff60028454948585526001810154878601520154161515910152604051908152f35b82346102a557806003193601126102a55760209054604051908152f35b82346102a557806003193601126102a5576020600954604051908152f35b839034610bdf5781600319360112610bdf5760209060ff60015460a01c1615158152f35b600435906001600160a01b0382168203611a9b57565b600080fd5b6060810190811067ffffffffffffffff821117611abc57604052565b634e487b7160e01b600052604160045260246000fd5b610160810190811067ffffffffffffffff821117611abc57604052565b6040810190811067ffffffffffffffff821117611abc57604052565b90601f8019910116810190811067ffffffffffffffff821117611abc57604052565b6003546001600160a01b03163303611b4157565b60405163118cdaa760e01b8152336004820152602490fd5b91908201809211611b6657565b634e487b7160e01b600052601160045260246000fd5b60405190611b8982611ad2565b6006546001600160a01b03168252600754602083015260085460408301526009546060830152600a546080830152600b5460a0830152600c5460c0830152600d5460e0830152600e54610100830152600f54610120830152601054610140830152565b60405190611bf982611aa0565b601154825260125460208301526013546040830152565b91908203918211611b6657565b600080809338935af115611c2d57565b63b12d13eb6000526004601cfd5b60405163a9059cbb60e01b60208083019182526001600160a01b039490941660248301526044808301959095529381529092600091611c7b606482611b0b565b519082855af115611cce576000513d611cc557506001600160a01b0381163b155b611ca35750565b604051635274afe760e01b81526001600160a01b039091166004820152602490fd5b60011415611c9c565b6040513d6000823e3d90fd5b9080600019048211611cf6575b670de0b6b3a764000091020490565b8015611ce75763bac65e5b6000526004601cfdfea264697066735822122096e4390714ae3ffe57659ae3e98e59dc69a04fff6201c37d173ea307bbb87ad364736f6c63430008140033","linkReferences":{}},"methodIdentifiers":{"AOI_DEX_FACTORY()":"4ecabfb2","AOI_DEX_ROUTER()":"1595cd6f","MIN_DELAY_STARTING()":"eb4f76b7","MIN_PRICE_TOKEN()":"ad69184b","MIN_PRIVATE_SALES_ENDING()":"e04d77ae","MIN_WETH()":"97ea1c19","POOL_OWNER()":"eb71e8c4","RATE_DECIMALS()":"5a604c52","WETH()":"ad5c4648","WHITELISTED()":"0b71f116","cancelInvestment()":"94f8e954","cancelRegisterPrivatePool()":"cd253257","claimToken()":"4451d89f","getHasListedDex()":"09c88ac7","getLiquidityTokenAmount()":"3b1e79fb","getLiquidityWETH9Amount()":"6b14c5e2","getPoolDetails()":"aca34c11","getPoolEndTime()":"c0477b92","getPoolHardCap()":"1d6f6ed5","getPoolMaxInvest()":"51d1892d","getPoolMinInvest()":"a9b79d0d","getPoolOwner()":"78c53533","getPoolRaisedAmount()":"84eeae43","getPoolSoftCap()":"f039a084","getPoolSoftCapReached()":"b92289f9","getPoolStartTime()":"367dfede","getPoolTime()":"94186d96","getPoolTokenAddress()":"194d28a6","getPoolTokenAmount()":"09d46746","getPoolType()":"cf9afab5","getPricePerToken()":"ca1e9738","getTimeLeftEnding()":"e9fb0505","getUserDepositAmount(address)":"0cec2a76","initialize((address,uint256,uint256,uint256,uint256,uint256,uint256,uint256,uint256,uint256,uint256),(uint256,uint256,uint256),address,bytes32,bool)":"e0f92dc0","investPool(bytes32[])":"eeb6ea7e","isPoolActive()":"df868ed3","isRegistered(address)":"c3c5a547","listInDex(address)":"6c6c8bc0","owner()":"8da5cb5b","refundToken()":"5cb732be","registerPrivatePool()":"cdfeb95b","registers(address)":"6aabc350","renounceOwnership()":"715018a6","transferOwnership(address)":"f2fde38b","withdrawRemainingToken()":"7c480cb4"},"id":53}