{"abi":[{"type":"constructor","inputs":[{"name":"_aoiFactory","type":"address","internalType":"address"},{"name":"_aoiRouter","type":"address","internalType":"address"},{"name":"_WETH","type":"address","internalType":"address"}],"stateMutability":"nonpayable"},{"type":"function","name":"AOI_DEX_FACTORY","inputs":[],"outputs":[{"name":"","type":"address","internalType":"address"}],"stateMutability":"view"},{"type":"function","name":"AOI_DEX_ROUTER","inputs":[],"outputs":[{"name":"","type":"address","internalType":"address"}],"stateMutability":"view"},{"type":"function","name":"EMPTY_MERKLE_ROOT","inputs":[],"outputs":[{"name":"","type":"bytes32","internalType":"bytes32"}],"stateMutability":"view"},{"type":"function","name":"IDO_FEE_RATE","inputs":[],"outputs":[{"name":"","type":"uint16","internalType":"uint16"}],"stateMutability":"view"},{"type":"function","name":"WETH","inputs":[],"outputs":[{"name":"","type":"address","internalType":"address"}],"stateMutability":"view"}],"bytecode":{"object":"0x60e0604052600160005534801561001557600080fd5b506040516102323803806102328339810160408190526100349161006d565b6001600160a01b0392831660805290821660a0521660c0526100b0565b80516001600160a01b038116811461006857600080fd5b919050565b60008060006060848603121561008257600080fd5b61008b84610051565b925061009960208501610051565b91506100a760408501610051565b90509250925092565b60805160a05160c0516101566100dc600039600060e20152600060610152600060a501526101566000f3fe608060405234801561001057600080fd5b50600436106100575760003560e01c80631595cd6f1461005c5780634ecabfb2146100a0578063a75d4d6e146100c7578063ad5c4648146100dd578063b5697a1c14610104575b600080fd5b6100837f000000000000000000000000000000000000000000000000000000000000000081565b6040516001600160a01b0390911681526020015b60405180910390f35b6100837f000000000000000000000000000000000000000000000000000000000000000081565b6100cf600081565b604051908152602001610097565b6100837f000000000000000000000000000000000000000000000000000000000000000081565b61010d6101f481565b60405161ffff909116815260200161009756fea2646970667358221220b626370f984235374621346e7ca4029874f542d4c88b6e075d81330561effbcf64736f6c634300081a0033","linkReferences":{}},"methodIdentifiers":{"AOI_DEX_FACTORY()":"4ecabfb2","AOI_DEX_ROUTER()":"1595cd6f","EMPTY_MERKLE_ROOT()":"a75d4d6e","IDO_FEE_RATE()":"b5697a1c","WETH()":"ad5c4648"},"id":17}