{"abi":[{"type":"constructor","inputs":[{"name":"_aoiFactory","type":"address","internalType":"address"},{"name":"_aoiRouter","type":"address","internalType":"address"},{"name":"_WETH","type":"address","internalType":"address"}],"stateMutability":"nonpayable"},{"type":"function","name":"AOI_DEX_FACTORY","inputs":[],"outputs":[{"name":"","type":"address","internalType":"address"}],"stateMutability":"view"},{"type":"function","name":"AOI_DEX_ROUTER","inputs":[],"outputs":[{"name":"","type":"address","internalType":"address"}],"stateMutability":"view"},{"type":"function","name":"EMPTY_MERKLE_ROOT","inputs":[],"outputs":[{"name":"","type":"bytes32","internalType":"bytes32"}],"stateMutability":"view"},{"type":"function","name":"IDO_FEE_RATE","inputs":[],"outputs":[{"name":"","type":"uint16","internalType":"uint16"}],"stateMutability":"view"},{"type":"function","name":"MIN_LOCKED_DURATION","inputs":[],"outputs":[{"name":"","type":"uint256","internalType":"uint256"}],"stateMutability":"view"},{"type":"function","name":"WETH","inputs":[],"outputs":[{"name":"","type":"address","internalType":"address"}],"stateMutability":"view"},{"type":"event","name":"PoolCreated","inputs":[{"name":"owner","type":"address","indexed":true,"internalType":"address"},{"name":"tokenAddress","type":"address","indexed":true,"internalType":"address"},{"name":"poolId","type":"uint256","indexed":false,"internalType":"uint256"}],"anonymous":false},{"type":"error","name":"ActionIsNotNothing","inputs":[]},{"type":"error","name":"CannotUnlockLiquidityLocked","inputs":[]},{"type":"error","name":"IdoPoolAlreadyDeposited","inputs":[]},{"type":"error","name":"InvalidAction","inputs":[]},{"type":"error","name":"InvalidLockExpired","inputs":[]},{"type":"error","name":"InvalidPoolId","inputs":[]},{"type":"error","name":"InvalidPricePerToken","inputs":[]},{"type":"error","name":"InvalidTokenAddress","inputs":[]},{"type":"error","name":"LiquidityIsNotLocked","inputs":[]},{"type":"error","name":"NotPoolOwner","inputs":[]}],"bytecode":{"object":"0x60e03461009857601f61028138819003918201601f19168301916001600160401b0383118484101761009d5780849260609460405283398101031261009857610047816100b3565b906100606040610059602084016100b3565b92016100b3565b91600160005560805260a05260c0526040516101b990816100c8823960805181610111015260a05181610154015260c0518160970152f35b600080fd5b634e487b7160e01b600052604160045260246000fd5b51906001600160a01b03821682036100985756fe60806040818152600436101561001457600080fd5b600091823560e01c9081631595cd6f14610140575080634ecabfb2146100fd578063a75d4d6e146100e3578063ac7aa1f6146100c6578063ad5c4648146100835763b5697a1c1461006457600080fd5b3461007f578160031936011261007f57602090516101f48152f35b5080fd5b503461007f578160031936011261007f57517f00000000000000000000000000000000000000000000000000000000000000006001600160a01b03168152602090f35b503461007f578160031936011261007f5760209051620151808152f35b503461007f578160031936011261007f5751908152602090f35b503461007f578160031936011261007f57517f00000000000000000000000000000000000000000000000000000000000000006001600160a01b03168152602090f35b83903461007f578160031936011261007f577f00000000000000000000000000000000000000000000000000000000000000006001600160a01b03168152602090f3fea2646970667358221220d4627cf51d1cb5360958c18f510c3559fc137a5d545f4380d7720eb7935f171064736f6c63430008140033","linkReferences":{}},"methodIdentifiers":{"AOI_DEX_FACTORY()":"4ecabfb2","AOI_DEX_ROUTER()":"1595cd6f","EMPTY_MERKLE_ROOT()":"a75d4d6e","IDO_FEE_RATE()":"b5697a1c","MIN_LOCKED_DURATION()":"ac7aa1f6","WETH()":"ad5c4648"},"id":52}