{"abi":[{"type":"constructor","inputs":[{"name":"_aoiFactory","type":"address","internalType":"address"},{"name":"_aoiRouter","type":"address","internalType":"address"},{"name":"_WETH","type":"address","internalType":"address"}],"stateMutability":"nonpayable"},{"type":"function","name":"AOI_DEX_FACTORY","inputs":[],"outputs":[{"name":"","type":"address","internalType":"address"}],"stateMutability":"view"},{"type":"function","name":"AOI_DEX_ROUTER","inputs":[],"outputs":[{"name":"","type":"address","internalType":"address"}],"stateMutability":"view"},{"type":"function","name":"EMPTY_MERKLE_ROOT","inputs":[],"outputs":[{"name":"","type":"bytes32","internalType":"bytes32"}],"stateMutability":"view"},{"type":"function","name":"IDO_FEE_RATE","inputs":[],"outputs":[{"name":"","type":"uint16","internalType":"uint16"}],"stateMutability":"view"},{"type":"function","name":"MIN_LOCKED_DURATION","inputs":[],"outputs":[{"name":"","type":"uint256","internalType":"uint256"}],"stateMutability":"view"},{"type":"function","name":"WETH","inputs":[],"outputs":[{"name":"","type":"address","internalType":"address"}],"stateMutability":"view"},{"type":"event","name":"PoolCreated","inputs":[{"name":"owner","type":"address","indexed":true,"internalType":"address"},{"name":"tokenAddress","type":"address","indexed":true,"internalType":"address"},{"name":"poolId","type":"uint256","indexed":false,"internalType":"uint256"}],"anonymous":false},{"type":"error","name":"ActionIsNotNothing","inputs":[]},{"type":"error","name":"CannotUnlockLiquidityLocked","inputs":[]},{"type":"error","name":"IdoPoolAlreadyDeposited","inputs":[]},{"type":"error","name":"InvalidAction","inputs":[]},{"type":"error","name":"InvalidLockExpired","inputs":[]},{"type":"error","name":"InvalidPoolId","inputs":[]},{"type":"error","name":"InvalidPricePerToken","inputs":[]},{"type":"error","name":"InvalidTokenAddress","inputs":[]},{"type":"error","name":"LiquidityIsNotLocked","inputs":[]},{"type":"error","name":"NotPoolOwner","inputs":[]}],"bytecode":{"object":"0x6080346100a557601f61023938819003918201601f19168301916001600160401b038311848410176100aa578084926060946040528339810103126100a557610047816100c0565b906100606040610059602084016100c0565b92016100c0565b600160035560018060a01b0380928160018060a01b03199516856000541617600055168360015416176001551690600254161760025560405161016490816100d58239f35b600080fd5b634e487b7160e01b600052604160045260246000fd5b51906001600160a01b03821682036100a55756fe60806040818152600436101561001457600080fd5b600091823560e01c9081631595cd6f14610109575080634ecabfb2146100e2578063a75d4d6e146100c8578063ac7aa1f6146100ab578063ad5c4648146100835763b5697a1c1461006457600080fd5b3461007f578160031936011261007f57602090516101f48152f35b5080fd5b503461007f578160031936011261007f5760025490516001600160a01b039091168152602090f35b503461007f578160031936011261007f5760209051620151808152f35b503461007f578160031936011261007f5751908152602090f35b503461007f578160031936011261007f57905490516001600160a01b039091168152602090f35b83903461007f578160031936011261007f576001546001600160a01b03168152602090f3fea2646970667358221220f157b44353bd77cd1f02bd590b0c94826799cba1f36aad79203d5284f2969f1c64736f6c63430008140033","linkReferences":{}},"methodIdentifiers":{"AOI_DEX_FACTORY()":"4ecabfb2","AOI_DEX_ROUTER()":"1595cd6f","EMPTY_MERKLE_ROOT()":"a75d4d6e","IDO_FEE_RATE()":"b5697a1c","MIN_LOCKED_DURATION()":"ac7aa1f6","WETH()":"ad5c4648"},"id":53}